{
  "_format": "hh-sol-artifact-1",
  "contractName": "Escrow",
  "sourceName": "contracts/Escrow.sol",
  "abi": [
    {
      "inputs": [
        {
          "internalType": "address",
          "name": "_propertyContract",
          "type": "address"
        },
        {
          "internalType": "uint256",
          "name": "_feeRate",
          "type": "uint256"
        },
        {
          "internalType": "uint256",
          "name": "_timeLimit",
          "type": "uint256"
        }
      ],
      "stateMutability": "nonpayable",
      "type": "constructor"
    },
    {
      "inputs": [],
      "name": "EscrowAlreadyExists",
      "type": "error"
    },
    {
      "inputs": [],
      "name": "EscrowNotActive",
      "type": "error"
    },
    {
      "inputs": [],
      "name": "EscrowNotFound",
      "type": "error"
    },
    {
      "inputs": [],
      "name": "InsufficientFunds",
      "type": "error"
    },
    {
      "inputs": [],
      "name": "InvalidAddress",
      "type": "error"
    },
    {
      "inputs": [],
      "name": "InvalidAmount",
      "type": "error"
    },
    {
      "inputs": [],
      "name": "InvalidEscrowState",
      "type": "error"
    },
    {
      "inputs": [],
      "name": "NFTTransferFailed",
      "type": "error"
    },
    {
      "inputs": [],
      "name": "NotAuthorized",
      "type": "error"
    },
    {
      "inputs": [
        {
          "internalType": "address",
          "name": "owner",
          "type": "address"
        }
      ],
      "name": "OwnableInvalidOwner",
      "type": "error"
    },
    {
      "inputs": [
        {
          "internalType": "address",
          "name": "account",
          "type": "address"
        }
      ],
      "name": "OwnableUnauthorizedAccount",
      "type": "error"
    },
    {
      "inputs": [],
      "name": "ReentrancyGuardReentrantCall",
      "type": "error"
    },
    {
      "inputs": [],
      "name": "TransferFailed",
      "type": "error"
    },
    {
      "anonymous": false,
      "inputs": [
        {
          "indexed": true,
          "internalType": "bytes32",
          "name": "escrowId",
          "type": "bytes32"
        },
        {
          "indexed": false,
          "internalType": "bool",
          "name": "buyerApproved",
          "type": "bool"
        },
        {
          "indexed": false,
          "internalType": "bool",
          "name": "sellerApproved",
          "type": "bool"
        }
      ],
      "name": "ApprovalUpdated",
      "type": "event"
    },
    {
      "anonymous": false,
      "inputs": [
        {
          "indexed": true,
          "internalType": "bytes32",
          "name": "escrowId",
          "type": "bytes32"
        },
        {
          "indexed": false,
          "internalType": "string",
          "name": "reason",
          "type": "string"
        }
      ],
      "name": "EscrowCancelled",
      "type": "event"
    },
    {
      "anonymous": false,
      "inputs": [
        {
          "indexed": true,
          "internalType": "bytes32",
          "name": "escrowId",
          "type": "bytes32"
        },
        {
          "indexed": true,
          "internalType": "address",
          "name": "buyer",
          "type": "address"
        },
        {
          "indexed": true,
          "internalType": "address",
          "name": "seller",
          "type": "address"
        },
        {
          "indexed": false,
          "internalType": "uint256",
          "name": "amount",
          "type": "uint256"
        },
        {
          "indexed": false,
          "internalType": "uint256",
          "name": "fee",
          "type": "uint256"
        }
      ],
      "name": "EscrowCompleted",
      "type": "event"
    },
    {
      "anonymous": false,
      "inputs": [
        {
          "indexed": true,
          "internalType": "bytes32",
          "name": "escrowId",
          "type": "bytes32"
        },
        {
          "indexed": true,
          "internalType": "address",
          "name": "propertyContract",
          "type": "address"
        },
        {
          "indexed": true,
          "internalType": "uint256",
          "name": "tokenId",
          "type": "uint256"
        },
        {
          "indexed": false,
          "internalType": "address",
          "name": "buyer",
          "type": "address"
        },
        {
          "indexed": false,
          "internalType": "address",
          "name": "seller",
          "type": "address"
        },
        {
          "indexed": false,
          "internalType": "uint256",
          "name": "amount",
          "type": "uint256"
        },
        {
          "indexed": false,
          "internalType": "uint256",
          "name": "expiresAt",
          "type": "uint256"
        }
      ],
      "name": "EscrowCreated",
      "type": "event"
    },
    {
      "anonymous": false,
      "inputs": [
        {
          "indexed": true,
          "internalType": "bytes32",
          "name": "escrowId",
          "type": "bytes32"
        },
        {
          "indexed": false,
          "internalType": "address",
          "name": "disputedBy",
          "type": "address"
        },
        {
          "indexed": false,
          "internalType": "string",
          "name": "reason",
          "type": "string"
        }
      ],
      "name": "EscrowDisputed",
      "type": "event"
    },
    {
      "anonymous": false,
      "inputs": [
        {
          "indexed": true,
          "internalType": "bytes32",
          "name": "escrowId",
          "type": "bytes32"
        },
        {
          "indexed": false,
          "internalType": "enum Escrow.EscrowStatus",
          "name": "resolution",
          "type": "uint8"
        }
      ],
      "name": "EscrowResolved",
      "type": "event"
    },
    {
      "anonymous": false,
      "inputs": [
        {
          "indexed": false,
          "internalType": "uint256",
          "name": "oldRate",
          "type": "uint256"
        },
        {
          "indexed": false,
          "internalType": "uint256",
          "name": "newRate",
          "type": "uint256"
        }
      ],
      "name": "FeeRateUpdated",
      "type": "event"
    },
    {
      "anonymous": false,
      "inputs": [
        {
          "indexed": true,
          "internalType": "bytes32",
          "name": "escrowId",
          "type": "bytes32"
        },
        {
          "indexed": true,
          "internalType": "address",
          "name": "from",
          "type": "address"
        },
        {
          "indexed": false,
          "internalType": "uint256",
          "name": "amount",
          "type": "uint256"
        }
      ],
      "name": "FundsDeposited",
      "type": "event"
    },
    {
      "anonymous": false,
      "inputs": [
        {
          "indexed": true,
          "internalType": "bytes32",
          "name": "escrowId",
          "type": "bytes32"
        },
        {
          "indexed": false,
          "internalType": "bool",
          "name": "passed",
          "type": "bool"
        },
        {
          "indexed": false,
          "internalType": "address",
          "name": "updatedBy",
          "type": "address"
        }
      ],
      "name": "InspectionUpdated",
      "type": "event"
    },
    {
      "anonymous": false,
      "inputs": [
        {
          "indexed": true,
          "internalType": "address",
          "name": "previousOwner",
          "type": "address"
        },
        {
          "indexed": true,
          "internalType": "address",
          "name": "newOwner",
          "type": "address"
        }
      ],
      "name": "OwnershipTransferred",
      "type": "event"
    },
    {
      "anonymous": false,
      "inputs": [
        {
          "indexed": false,
          "internalType": "uint256",
          "name": "oldLimit",
          "type": "uint256"
        },
        {
          "indexed": false,
          "internalType": "uint256",
          "name": "newLimit",
          "type": "uint256"
        }
      ],
      "name": "TimeLimitUpdated",
      "type": "event"
    },
    {
      "stateMutability": "payable",
      "type": "fallback"
    },
    {
      "inputs": [
        {
          "internalType": "bytes32",
          "name": "_escrowId",
          "type": "bytes32"
        }
      ],
      "name": "approveEscrow",
      "outputs": [],
      "stateMutability": "nonpayable",
      "type": "function"
    },
    {
      "inputs": [
        {
          "internalType": "bytes32",
          "name": "_escrowId",
          "type": "bytes32"
        },
        {
          "internalType": "string",
          "name": "_reason",
          "type": "string"
        }
      ],
      "name": "cancelEscrow",
      "outputs": [],
      "stateMutability": "nonpayable",
      "type": "function"
    },
    {
      "inputs": [
        {
          "internalType": "address",
          "name": "_propertyContract",
          "type": "address"
        },
        {
          "internalType": "uint256",
          "name": "_tokenId",
          "type": "uint256"
        },
        {
          "internalType": "address",
          "name": "_seller",
          "type": "address"
        },
        {
          "internalType": "uint256",
          "name": "_price",
          "type": "uint256"
        }
      ],
      "name": "createEscrow",
      "outputs": [
        {
          "internalType": "bytes32",
          "name": "",
          "type": "bytes32"
        }
      ],
      "stateMutability": "nonpayable",
      "type": "function"
    },
    {
      "inputs": [
        {
          "internalType": "bytes32",
          "name": "_escrowId",
          "type": "bytes32"
        }
      ],
      "name": "depositFunds",
      "outputs": [],
      "stateMutability": "payable",
      "type": "function"
    },
    {
      "inputs": [
        {
          "internalType": "bytes32",
          "name": "_escrowId",
          "type": "bytes32"
        },
        {
          "internalType": "string",
          "name": "_reason",
          "type": "string"
        }
      ],
      "name": "disputeEscrow",
      "outputs": [],
      "stateMutability": "nonpayable",
      "type": "function"
    },
    {
      "inputs": [
        {
          "internalType": "bytes32",
          "name": "",
          "type": "bytes32"
        }
      ],
      "name": "escrowDeposits",
      "outputs": [
        {
          "internalType": "uint256",
          "name": "",
          "type": "uint256"
        }
      ],
      "stateMutability": "view",
      "type": "function"
    },
    {
      "inputs": [],
      "name": "escrowFeeRate",
      "outputs": [
        {
          "internalType": "uint256",
          "name": "",
          "type": "uint256"
        }
      ],
      "stateMutability": "view",
      "type": "function"
    },
    {
      "inputs": [],
      "name": "escrowTimeLimit",
      "outputs": [
        {
          "internalType": "uint256",
          "name": "",
          "type": "uint256"
        }
      ],
      "stateMutability": "view",
      "type": "function"
    },
    {
      "inputs": [
        {
          "internalType": "bytes32",
          "name": "",
          "type": "bytes32"
        }
      ],
      "name": "escrows",
      "outputs": [
        {
          "internalType": "address",
          "name": "propertyContract",
          "type": "address"
        },
        {
          "internalType": "uint256",
          "name": "tokenId",
          "type": "uint256"
        },
        {
          "internalType": "address",
          "name": "buyer",
          "type": "address"
        },
        {
          "internalType": "address",
          "name": "seller",
          "type": "address"
        },
        {
          "internalType": "uint256",
          "name": "amount",
          "type": "uint256"
        },
        {
          "internalType": "uint256",
          "name": "createdAt",
          "type": "uint256"
        },
        {
          "internalType": "uint256",
          "name": "expiresAt",
          "type": "uint256"
        },
        {
          "internalType": "enum Escrow.EscrowStatus",
          "name": "status",
          "type": "uint8"
        },
        {
          "internalType": "bool",
          "name": "inspectionPassed",
          "type": "bool"
        },
        {
          "internalType": "bool",
          "name": "buyerApproved",
          "type": "bool"
        },
        {
          "internalType": "bool",
          "name": "sellerApproved",
          "type": "bool"
        }
      ],
      "stateMutability": "view",
      "type": "function"
    },
    {
      "inputs": [],
      "name": "getContractBalance",
      "outputs": [
        {
          "internalType": "uint256",
          "name": "",
          "type": "uint256"
        }
      ],
      "stateMutability": "view",
      "type": "function"
    },
    {
      "inputs": [
        {
          "internalType": "bytes32",
          "name": "_escrowId",
          "type": "bytes32"
        }
      ],
      "name": "getEscrowDetails",
      "outputs": [
        {
          "components": [
            {
              "internalType": "address",
              "name": "propertyContract",
              "type": "address"
            },
            {
              "internalType": "uint256",
              "name": "tokenId",
              "type": "uint256"
            },
            {
              "internalType": "address",
              "name": "buyer",
              "type": "address"
            },
            {
              "internalType": "address",
              "name": "seller",
              "type": "address"
            },
            {
              "internalType": "uint256",
              "name": "amount",
              "type": "uint256"
            },
            {
              "internalType": "uint256",
              "name": "createdAt",
              "type": "uint256"
            },
            {
              "internalType": "uint256",
              "name": "expiresAt",
              "type": "uint256"
            },
            {
              "internalType": "enum Escrow.EscrowStatus",
              "name": "status",
              "type": "uint8"
            },
            {
              "internalType": "bool",
              "name": "inspectionPassed",
              "type": "bool"
            },
            {
              "internalType": "bool",
              "name": "buyerApproved",
              "type": "bool"
            },
            {
              "internalType": "bool",
              "name": "sellerApproved",
              "type": "bool"
            }
          ],
          "internalType": "struct Escrow.EscrowDetails",
          "name": "",
          "type": "tuple"
        }
      ],
      "stateMutability": "view",
      "type": "function"
    },
    {
      "inputs": [],
      "name": "owner",
      "outputs": [
        {
          "internalType": "address",
          "name": "",
          "type": "address"
        }
      ],
      "stateMutability": "view",
      "type": "function"
    },
    {
      "inputs": [],
      "name": "propertyContract",
      "outputs": [
        {
          "internalType": "address",
          "name": "",
          "type": "address"
        }
      ],
      "stateMutability": "view",
      "type": "function"
    },
    {
      "inputs": [],
      "name": "renounceOwnership",
      "outputs": [],
      "stateMutability": "nonpayable",
      "type": "function"
    },
    {
      "inputs": [
        {
          "internalType": "bytes32",
          "name": "_escrowId",
          "type": "bytes32"
        },
        {
          "internalType": "enum Escrow.EscrowStatus",
          "name": "_resolution",
          "type": "uint8"
        }
      ],
      "name": "resolveDispute",
      "outputs": [],
      "stateMutability": "nonpayable",
      "type": "function"
    },
    {
      "inputs": [
        {
          "internalType": "address",
          "name": "newOwner",
          "type": "address"
        }
      ],
      "name": "transferOwnership",
      "outputs": [],
      "stateMutability": "nonpayable",
      "type": "function"
    },
    {
      "inputs": [
        {
          "internalType": "uint256",
          "name": "_newFeeRate",
          "type": "uint256"
        }
      ],
      "name": "updateFeeRate",
      "outputs": [],
      "stateMutability": "nonpayable",
      "type": "function"
    },
    {
      "inputs": [
        {
          "internalType": "bytes32",
          "name": "_escrowId",
          "type": "bytes32"
        },
        {
          "internalType": "bool",
          "name": "_passed",
          "type": "bool"
        }
      ],
      "name": "updateInspectionStatus",
      "outputs": [],
      "stateMutability": "nonpayable",
      "type": "function"
    },
    {
      "inputs": [
        {
          "internalType": "uint256",
          "name": "_newTimeLimit",
          "type": "uint256"
        }
      ],
      "name": "updateTimeLimit",
      "outputs": [],
      "stateMutability": "nonpayable",
      "type": "function"
    },
    {
      "stateMutability": "payable",
      "type": "receive"
    }
  ],
  "bytecode": "0x608060405234801561001057600080fd5b50604051613463380380613463833981810160405281019061003291906102be565b33600073ffffffffffffffffffffffffffffffffffffffff168173ffffffffffffffffffffffffffffffffffffffff16036100a55760006040517f1e4fbdf700000000000000000000000000000000000000000000000000000000815260040161009c9190610320565b60405180910390fd5b6100b48161016160201b60201c565b506001808190555082600260006101000a81548173ffffffffffffffffffffffffffffffffffffffff021916908373ffffffffffffffffffffffffffffffffffffffff1602179055506103e8821115610139576040517f2c5211c600000000000000000000000000000000000000000000000000000000815260040160405180910390fd5b81600581905550600081116101515762278d00610153565b805b60068190555050505061033b565b60008060009054906101000a900473ffffffffffffffffffffffffffffffffffffffff169050816000806101000a81548173ffffffffffffffffffffffffffffffffffffffff021916908373ffffffffffffffffffffffffffffffffffffffff1602179055508173ffffffffffffffffffffffffffffffffffffffff168173ffffffffffffffffffffffffffffffffffffffff167f8be0079c531659141344cd1fd0a4f28419497f9722a3daafe3b4186f6b6457e060405160405180910390a35050565b600080fd5b600073ffffffffffffffffffffffffffffffffffffffff82169050919050565b60006102558261022a565b9050919050565b6102658161024a565b811461027057600080fd5b50565b6000815190506102828161025c565b92915050565b6000819050919050565b61029b81610288565b81146102a657600080fd5b50565b6000815190506102b881610292565b92915050565b6000806000606084860312156102d7576102d6610225565b5b60006102e586828701610273565b93505060206102f6868287016102a9565b9250506040610307868287016102a9565b9150509250925092565b61031a8161024a565b82525050565b60006020820190506103356000830184610311565b92915050565b6131198061034a6000396000f3fe6080604052600436106101185760003560e01c80638da5cb5b116100a0578063b641237c11610064578063b641237c1461039e578063ecdeada9146103c7578063f2fde38b146103f0578063f4940f0114610419578063faf3d83b1461044257610119565b80638da5cb5b146102da5780638fca967314610305578063945ce82d14610330578063a312ac971461034c578063a4cd57ab1461037557610119565b806351a89ce8116100e757806351a89ce8146101f5578063694ebe05146102325780636f9fb98a1461026f578063715018a61461029a5780637b84fda5146102b157610119565b80631b41c1ff1461011b5780632d83549c14610146578063370219ac1461018d57806338596b0b146101ca57610119565b5b005b34801561012757600080fd5b5061013061046b565b60405161013d919061255d565b60405180910390f35b34801561015257600080fd5b5061016d600480360381019061016891906125c2565b610471565b6040516101849b9a999897969594939291906126c2565b60405180910390f35b34801561019957600080fd5b506101b460048036038101906101af91906125c2565b61055f565b6040516101c1919061255d565b60405180910390f35b3480156101d657600080fd5b506101df610577565b6040516101ec919061255d565b60405180910390f35b34801561020157600080fd5b5061021c600480360381019061021791906125c2565b61057d565b604051610229919061288a565b60405180910390f35b34801561023e57600080fd5b50610259600480360381019061025491906128fe565b6107c9565b6040516102669190612974565b60405180910390f35b34801561027b57600080fd5b50610284610d17565b604051610291919061255d565b60405180910390f35b3480156102a657600080fd5b506102af610d27565b005b3480156102bd57600080fd5b506102d860048036038101906102d3919061298f565b610d3b565b005b3480156102e657600080fd5b506102ef610dca565b6040516102fc91906129bc565b60405180910390f35b34801561031157600080fd5b5061031a610df3565b60405161032791906129bc565b60405180910390f35b61034a600480360381019061034591906125c2565b610e19565b005b34801561035857600080fd5b50610373600480360381019061036e919061298f565b61102e565b005b34801561038157600080fd5b5061039c60048036038101906103979190612b1d565b6110bb565b005b3480156103aa57600080fd5b506103c560048036038101906103c09190612b9e565b6113e5565b005b3480156103d357600080fd5b506103ee60048036038101906103e99190612c0a565b6116bc565b005b3480156103fc57600080fd5b5061041760048036038101906104129190612c4a565b6118c3565b005b34801561042557600080fd5b50610440600480360381019061043b91906125c2565b611949565b005b34801561044e57600080fd5b5061046960048036038101906104649190612b1d565b611bb9565b005b60065481565b60036020528060005260406000206000915090508060000160009054906101000a900473ffffffffffffffffffffffffffffffffffffffff16908060010154908060020160009054906101000a900473ffffffffffffffffffffffffffffffffffffffff16908060030160009054906101000a900473ffffffffffffffffffffffffffffffffffffffff16908060040154908060050154908060060154908060070160009054906101000a900460ff16908060070160019054906101000a900460ff16908060070160029054906101000a900460ff16908060070160039054906101000a900460ff1690508b565b60046020528060005260406000206000915090505481565b60055481565b610585612490565b600060036000848152602001908152602001600020604051806101600160405290816000820160009054906101000a900473ffffffffffffffffffffffffffffffffffffffff1673ffffffffffffffffffffffffffffffffffffffff1673ffffffffffffffffffffffffffffffffffffffff168152602001600182015481526020016002820160009054906101000a900473ffffffffffffffffffffffffffffffffffffffff1673ffffffffffffffffffffffffffffffffffffffff1673ffffffffffffffffffffffffffffffffffffffff1681526020016003820160009054906101000a900473ffffffffffffffffffffffffffffffffffffffff1673ffffffffffffffffffffffffffffffffffffffff1673ffffffffffffffffffffffffffffffffffffffff1681526020016004820154815260200160058201548152602001600682015481526020016007820160009054906101000a900460ff1660048111156106f5576106f4612630565b5b600481111561070757610706612630565b5b81526020016007820160019054906101000a900460ff161515151581526020016007820160029054906101000a900460ff161515151581526020016007820160039054906101000a900460ff16151515158152505090506000600481111561077257610771612630565b5b8160e00151600481111561078957610788612630565b5b036107c0576040517ff1d80ab100000000000000000000000000000000000000000000000000000000815260040160405180910390fd5b80915050919050565b60006107d3611dd1565b600073ffffffffffffffffffffffffffffffffffffffff168573ffffffffffffffffffffffffffffffffffffffff16148061083a5750600073ffffffffffffffffffffffffffffffffffffffff168373ffffffffffffffffffffffffffffffffffffffff16145b15610871576040517fe6c4247b00000000000000000000000000000000000000000000000000000000815260040160405180910390fd5b600082036108ab576040517f2c5211c600000000000000000000000000000000000000000000000000000000815260040160405180910390fd5b60008573ffffffffffffffffffffffffffffffffffffffff16636352211e866040518263ffffffff1660e01b81526004016108e6919061255d565b602060405180830381865afa158015610903573d6000803e3d6000fd5b505050506040513d601f19601f820116820180604052508101906109279190612c8c565b90508373ffffffffffffffffffffffffffffffffffffffff168173ffffffffffffffffffffffffffffffffffffffff161461098e576040517fea8e4eb500000000000000000000000000000000000000000000000000000000815260040160405180910390fd5b600086863387426040516020016109a9959493929190612d22565b604051602081830303815290604052805190602001209050600060048111156109d5576109d4612630565b5b6003600083815260200190815260200160002060070160009054906101000a900460ff166004811115610a0b57610a0a612630565b5b14610a42576040517fed77877900000000000000000000000000000000000000000000000000000000815260040160405180910390fd5b6040518061016001604052808873ffffffffffffffffffffffffffffffffffffffff1681526020018781526020013373ffffffffffffffffffffffffffffffffffffffff1681526020018673ffffffffffffffffffffffffffffffffffffffff16815260200185815260200142815260200160065442610ac29190612db0565b815260200160016004811115610adb57610ada612630565b5b8152602001600015158152602001600015158152602001600015158152506003600083815260200190815260200160002060008201518160000160006101000a81548173ffffffffffffffffffffffffffffffffffffffff021916908373ffffffffffffffffffffffffffffffffffffffff1602179055506020820151816001015560408201518160020160006101000a81548173ffffffffffffffffffffffffffffffffffffffff021916908373ffffffffffffffffffffffffffffffffffffffff16021790555060608201518160030160006101000a81548173ffffffffffffffffffffffffffffffffffffffff021916908373ffffffffffffffffffffffffffffffffffffffff1602179055506080820151816004015560a0820151816005015560c0820151816006015560e08201518160070160006101000a81548160ff02191690836004811115610c3457610c33612630565b5b02179055506101008201518160070160016101000a81548160ff0219169083151502179055506101208201518160070160026101000a81548160ff0219169083151502179055506101408201518160070160036101000a81548160ff021916908315150217905550905050858773ffffffffffffffffffffffffffffffffffffffff16827f2f967cdc46d14d14b15cfb70fe20984062b300dc9df8322fcbd326fa5560599b33898960065442610cea9190612db0565b604051610cfa9493929190612de4565b60405180910390a48092505050610d0f611e17565b949350505050565b6000610d21611e20565b47905090565b610d2f611e20565b610d396000611ea7565b565b610d43611e20565b6103e8811115610d7f576040517f2c5211c600000000000000000000000000000000000000000000000000000000815260040160405180910390fd5b60006005549050816005819055507f14914da2bf76024616fbe1859783fcd4dbddcb179b1f3a854949fbf920dcb9578183604051610dbe929190612e29565b60405180910390a15050565b60008060009054906101000a900473ffffffffffffffffffffffffffffffffffffffff16905090565b600260009054906101000a900473ffffffffffffffffffffffffffffffffffffffff1681565b610e21611dd1565b600060036000838152602001908152602001600020905060016004811115610e4c57610e4b612630565b5b8160070160009054906101000a900460ff166004811115610e7057610e6f612630565b5b14610ea7576040517f692bfa7f00000000000000000000000000000000000000000000000000000000815260040160405180910390fd5b8060020160009054906101000a900473ffffffffffffffffffffffffffffffffffffffff1673ffffffffffffffffffffffffffffffffffffffff163373ffffffffffffffffffffffffffffffffffffffff1614610f30576040517fea8e4eb500000000000000000000000000000000000000000000000000000000815260040160405180910390fd5b80600401543414610f6d576040517f2c5211c600000000000000000000000000000000000000000000000000000000815260040160405180910390fd5b600060046000848152602001908152602001600020541115610fbb576040517fa891029a00000000000000000000000000000000000000000000000000000000815260040160405180910390fd5b3460046000848152602001908152602001600020819055503373ffffffffffffffffffffffffffffffffffffffff16827f6221f2b1a766e0a60a83a05c2ca8be3bf4b8028dbcb5b67624f5392a07372ae33460405161101a919061255d565b60405180910390a35061102b611e17565b50565b611036611e20565b60008103611070576040517f2c5211c600000000000000000000000000000000000000000000000000000000815260040160405180910390fd5b60006006549050816006819055507ff80d1fa1cd2e7958f8bb480c27f4517d14d8986cb81f9095b5a6857c50074a7d81836040516110af929190612e29565b60405180910390a15050565b6110c3611dd1565b6000600360008481526020019081526020016000209050600160048111156110ee576110ed612630565b5b8160070160009054906101000a900460ff16600481111561111257611111612630565b5b14611149576040517f692bfa7f00000000000000000000000000000000000000000000000000000000815260040160405180910390fd5b8060020160009054906101000a900473ffffffffffffffffffffffffffffffffffffffff1673ffffffffffffffffffffffffffffffffffffffff163373ffffffffffffffffffffffffffffffffffffffff16141580156111f957508060030160009054906101000a900473ffffffffffffffffffffffffffffffffffffffff1673ffffffffffffffffffffffffffffffffffffffff163373ffffffffffffffffffffffffffffffffffffffff1614155b80156112385750611208610dca565b73ffffffffffffffffffffffffffffffffffffffff163373ffffffffffffffffffffffffffffffffffffffff1614155b1561126f576040517fea8e4eb500000000000000000000000000000000000000000000000000000000815260040160405180910390fd5b60038160070160006101000a81548160ff0219169083600481111561129757611296612630565b5b021790555060006004600085815260200190815260200160002054905060006004600086815260200190815260200160002081905550600081111561139f5760008260020160009054906101000a900473ffffffffffffffffffffffffffffffffffffffff1673ffffffffffffffffffffffffffffffffffffffff168260405161132090612e83565b60006040518083038185875af1925050503d806000811461135d576040519150601f19603f3d011682016040523d82523d6000602084013e611362565b606091505b505090508061139d576040517f90b8ec1800000000000000000000000000000000000000000000000000000000815260040160405180910390fd5b505b837fe173efa1002dc96426573f832df7b93111bd0400b4e61ba7b2edd306b8e1f0e7846040516113cf9190612f17565b60405180910390a250506113e1611e17565b5050565b6113ed611e20565b6113f5611dd1565b600060036000848152602001908152602001600020905060048081111561141f5761141e612630565b5b8160070160009054906101000a900460ff16600481111561144357611442612630565b5b1461147a576040517fa891029a00000000000000000000000000000000000000000000000000000000815260040160405180910390fd5b6002600481111561148e5761148d612630565b5b8260048111156114a1576114a0612630565b5b141580156114d45750600360048111156114be576114bd612630565b5b8260048111156114d1576114d0612630565b5b14155b1561150b576040517fa891029a00000000000000000000000000000000000000000000000000000000815260040160405180910390fd5b6002600481111561151f5761151e612630565b5b82600481111561153257611531612630565b5b036115455761154083611f6b565b611677565b60038160070160006101000a81548160ff0219169083600481111561156d5761156c612630565b5b02179055506000600460008581526020019081526020016000205490506000600460008681526020019081526020016000208190555060008111156116755760008260020160009054906101000a900473ffffffffffffffffffffffffffffffffffffffff1673ffffffffffffffffffffffffffffffffffffffff16826040516115f690612e83565b60006040518083038185875af1925050503d8060008114611633576040519150601f19603f3d011682016040523d82523d6000602084013e611638565b606091505b5050905080611673576040517f90b8ec1800000000000000000000000000000000000000000000000000000000815260040160405180910390fd5b505b505b827f08d7139721d952b5676c8c0f188e3a33f9b1abc36bb5e30618d4bca264807c12836040516116a79190612f39565b60405180910390a2506116b8611e17565b5050565b6000600360008481526020019081526020016000209050600160048111156116e7576116e6612630565b5b8160070160009054906101000a900460ff16600481111561170b5761170a612630565b5b14611742576040517f692bfa7f00000000000000000000000000000000000000000000000000000000815260040160405180910390fd5b8060020160009054906101000a900473ffffffffffffffffffffffffffffffffffffffff1673ffffffffffffffffffffffffffffffffffffffff163373ffffffffffffffffffffffffffffffffffffffff16141580156117f257508060030160009054906101000a900473ffffffffffffffffffffffffffffffffffffffff1673ffffffffffffffffffffffffffffffffffffffff163373ffffffffffffffffffffffffffffffffffffffff1614155b80156118315750611801610dca565b73ffffffffffffffffffffffffffffffffffffffff163373ffffffffffffffffffffffffffffffffffffffff1614155b15611868576040517fea8e4eb500000000000000000000000000000000000000000000000000000000815260040160405180910390fd5b818160070160016101000a81548160ff021916908315150217905550827f12f1165af94749a130428adc5932b4a4e3e284b601f0ef51d7d43b57ff15606483336040516118b6929190612f54565b60405180910390a2505050565b6118cb611e20565b600073ffffffffffffffffffffffffffffffffffffffff168173ffffffffffffffffffffffffffffffffffffffff160361193d5760006040517f1e4fbdf700000000000000000000000000000000000000000000000000000000815260040161193491906129bc565b60405180910390fd5b61194681611ea7565b50565b611951611dd1565b60006003600083815260200190815260200160002090506001600481111561197c5761197b612630565b5b8160070160009054906101000a900460ff1660048111156119a05761199f612630565b5b146119d7576040517f692bfa7f00000000000000000000000000000000000000000000000000000000815260040160405180910390fd5b8060020160009054906101000a900473ffffffffffffffffffffffffffffffffffffffff1673ffffffffffffffffffffffffffffffffffffffff163373ffffffffffffffffffffffffffffffffffffffff1603611a505760018160070160026101000a81548160ff021916908315150217905550611afc565b8060030160009054906101000a900473ffffffffffffffffffffffffffffffffffffffff1673ffffffffffffffffffffffffffffffffffffffff163373ffffffffffffffffffffffffffffffffffffffff1603611ac95760018160070160036101000a81548160ff021916908315150217905550611afb565b6040517fea8e4eb500000000000000000000000000000000000000000000000000000000815260040160405180910390fd5b5b817fa3a94e80a3d87c39a60962995d90c8ce0eb3aee0151bac3997a97a6aa5abaf5f8260070160029054906101000a900460ff168360070160039054906101000a900460ff16604051611b50929190612f7d565b60405180910390a28060070160029054906101000a900460ff168015611b8457508060070160039054906101000a900460ff165b8015611b9e57508060070160019054906101000a900460ff165b15611bad57611bac82611f6b565b5b50611bb6611e17565b50565b600060036000848152602001908152602001600020905060016004811115611be457611be3612630565b5b8160070160009054906101000a900460ff166004811115611c0857611c07612630565b5b14611c3f576040517f692bfa7f00000000000000000000000000000000000000000000000000000000815260040160405180910390fd5b8060020160009054906101000a900473ffffffffffffffffffffffffffffffffffffffff1673ffffffffffffffffffffffffffffffffffffffff163373ffffffffffffffffffffffffffffffffffffffff1614158015611cef57508060030160009054906101000a900473ffffffffffffffffffffffffffffffffffffffff1673ffffffffffffffffffffffffffffffffffffffff163373ffffffffffffffffffffffffffffffffffffffff1614155b8015611d2e5750611cfe610dca565b73ffffffffffffffffffffffffffffffffffffffff163373ffffffffffffffffffffffffffffffffffffffff1614155b15611d65576040517fea8e4eb500000000000000000000000000000000000000000000000000000000815260040160405180910390fd5b60048160070160006101000a81548160ff02191690836004811115611d8d57611d8c612630565b5b0217905550827f85df63e82b1c4b692591e851fd05ac7c87d4dd28557d780c47c462a11f64e0c83384604051611dc4929190612fa6565b60405180910390a2505050565b600260015403611e0d576040517f3ee5aeb500000000000000000000000000000000000000000000000000000000815260040160405180910390fd5b6002600181905550565b60018081905550565b611e28612488565b73ffffffffffffffffffffffffffffffffffffffff16611e46610dca565b73ffffffffffffffffffffffffffffffffffffffff1614611ea557611e69612488565b6040517f118cdaa7000000000000000000000000000000000000000000000000000000008152600401611e9c91906129bc565b60405180910390fd5b565b60008060009054906101000a900473ffffffffffffffffffffffffffffffffffffffff169050816000806101000a81548173ffffffffffffffffffffffffffffffffffffffff021916908373ffffffffffffffffffffffffffffffffffffffff1602179055508173ffffffffffffffffffffffffffffffffffffffff168173ffffffffffffffffffffffffffffffffffffffff167f8be0079c531659141344cd1fd0a4f28419497f9722a3daafe3b4186f6b6457e060405160405180910390a35050565b600060036000838152602001908152602001600020905060016004811115611f9657611f95612630565b5b8160070160009054906101000a900460ff166004811115611fba57611fb9612630565b5b14611ff1576040517f692bfa7f00000000000000000000000000000000000000000000000000000000815260040160405180910390fd5b8060070160029054906101000a900460ff16158061201e57508060070160039054906101000a900460ff16155b8061203857508060070160019054906101000a900460ff16155b1561206f576040517fa891029a00000000000000000000000000000000000000000000000000000000815260040160405180910390fd5b60006004600084815260200190815260200160002054905081600401548110156120c5576040517f356680b700000000000000000000000000000000000000000000000000000000815260040160405180910390fd5b600061271060055484600401546120dc9190612fd6565b6120e69190613047565b905060008184600401546120fa9190613078565b90506000600460008781526020019081526020016000208190555060028460070160006101000a81548160ff0219169083600481111561213d5761213c612630565b5b02179055508360000160009054906101000a900473ffffffffffffffffffffffffffffffffffffffff1673ffffffffffffffffffffffffffffffffffffffff166323b872dd8560030160009054906101000a900473ffffffffffffffffffffffffffffffffffffffff168660020160009054906101000a900473ffffffffffffffffffffffffffffffffffffffff1687600101546040518463ffffffff1660e01b81526004016121ef939291906130ac565b600060405180830381600087803b15801561220957600080fd5b505af192505050801561221a575060015b612250576040517f4605c59800000000000000000000000000000000000000000000000000000000815260040160405180910390fd5b60008460030160009054906101000a900473ffffffffffffffffffffffffffffffffffffffff1673ffffffffffffffffffffffffffffffffffffffff168260405161229a90612e83565b60006040518083038185875af1925050503d80600081146122d7576040519150601f19603f3d011682016040523d82523d6000602084013e6122dc565b606091505b5050905080612317576040517f90b8ec1800000000000000000000000000000000000000000000000000000000815260040160405180910390fd5b60008311156123cc57600061232a610dca565b73ffffffffffffffffffffffffffffffffffffffff168460405161234d90612e83565b60006040518083038185875af1925050503d806000811461238a576040519150601f19603f3d011682016040523d82523d6000602084013e61238f565b606091505b50509050806123ca576040517f90b8ec1800000000000000000000000000000000000000000000000000000000815260040160405180910390fd5b505b8460030160009054906101000a900473ffffffffffffffffffffffffffffffffffffffff1673ffffffffffffffffffffffffffffffffffffffff168560020160009054906101000a900473ffffffffffffffffffffffffffffffffffffffff1673ffffffffffffffffffffffffffffffffffffffff16877f01028ac1cb8bdca71170b372b533230e6e528d155bc10b1b71aa4bcc3c040700886004015487604051612478929190612e29565b60405180910390a4505050505050565b600033905090565b604051806101600160405280600073ffffffffffffffffffffffffffffffffffffffff16815260200160008152602001600073ffffffffffffffffffffffffffffffffffffffff168152602001600073ffffffffffffffffffffffffffffffffffffffff1681526020016000815260200160008152602001600081526020016000600481111561252357612522612630565b5b81526020016000151581526020016000151581526020016000151581525090565b6000819050919050565b61255781612544565b82525050565b6000602082019050612572600083018461254e565b92915050565b6000604051905090565b600080fd5b600080fd5b6000819050919050565b61259f8161258c565b81146125aa57600080fd5b50565b6000813590506125bc81612596565b92915050565b6000602082840312156125d8576125d7612582565b5b60006125e6848285016125ad565b91505092915050565b600073ffffffffffffffffffffffffffffffffffffffff82169050919050565b600061261a826125ef565b9050919050565b61262a8161260f565b82525050565b7f4e487b7100000000000000000000000000000000000000000000000000000000600052602160045260246000fd5b600581106126705761266f612630565b5b50565b60008190506126818261265f565b919050565b600061269182612673565b9050919050565b6126a181612686565b82525050565b60008115159050919050565b6126bc816126a7565b82525050565b6000610160820190506126d8600083018e612621565b6126e5602083018d61254e565b6126f2604083018c612621565b6126ff606083018b612621565b61270c608083018a61254e565b61271960a083018961254e565b61272660c083018861254e565b61273360e0830187612698565b6127416101008301866126b3565b61274f6101208301856126b3565b61275d6101408301846126b3565b9c9b505050505050505050505050565b6127768161260f565b82525050565b61278581612544565b82525050565b61279481612686565b82525050565b6127a3816126a7565b82525050565b610160820160008201516127c0600085018261276d565b5060208201516127d3602085018261277c565b5060408201516127e6604085018261276d565b5060608201516127f9606085018261276d565b50608082015161280c608085018261277c565b5060a082015161281f60a085018261277c565b5060c082015161283260c085018261277c565b5060e082015161284560e085018261278b565b5061010082015161285a61010085018261279a565b5061012082015161286f61012085018261279a565b5061014082015161288461014085018261279a565b50505050565b6000610160820190506128a060008301846127a9565b92915050565b6128af8161260f565b81146128ba57600080fd5b50565b6000813590506128cc816128a6565b92915050565b6128db81612544565b81146128e657600080fd5b50565b6000813590506128f8816128d2565b92915050565b6000806000806080858703121561291857612917612582565b5b6000612926878288016128bd565b9450506020612937878288016128e9565b9350506040612948878288016128bd565b9250506060612959878288016128e9565b91505092959194509250565b61296e8161258c565b82525050565b60006020820190506129896000830184612965565b92915050565b6000602082840312156129a5576129a4612582565b5b60006129b3848285016128e9565b91505092915050565b60006020820190506129d16000830184612621565b92915050565b600080fd5b600080fd5b6000601f19601f8301169050919050565b7f4e487b7100000000000000000000000000000000000000000000000000000000600052604160045260246000fd5b612a2a826129e1565b810181811067ffffffffffffffff82111715612a4957612a486129f2565b5b80604052505050565b6000612a5c612578565b9050612a688282612a21565b919050565b600067ffffffffffffffff821115612a8857612a876129f2565b5b612a91826129e1565b9050602081019050919050565b82818337600083830152505050565b6000612ac0612abb84612a6d565b612a52565b905082815260208101848484011115612adc57612adb6129dc565b5b612ae7848285612a9e565b509392505050565b600082601f830112612b0457612b036129d7565b5b8135612b14848260208601612aad565b91505092915050565b60008060408385031215612b3457612b33612582565b5b6000612b42858286016125ad565b925050602083013567ffffffffffffffff811115612b6357612b62612587565b5b612b6f85828601612aef565b9150509250929050565b60058110612b8657600080fd5b50565b600081359050612b9881612b79565b92915050565b60008060408385031215612bb557612bb4612582565b5b6000612bc3858286016125ad565b9250506020612bd485828601612b89565b9150509250929050565b612be7816126a7565b8114612bf257600080fd5b50565b600081359050612c0481612bde565b92915050565b60008060408385031215612c2157612c20612582565b5b6000612c2f858286016125ad565b9250506020612c4085828601612bf5565b9150509250929050565b600060208284031215612c6057612c5f612582565b5b6000612c6e848285016128bd565b91505092915050565b600081519050612c86816128a6565b92915050565b600060208284031215612ca257612ca1612582565b5b6000612cb084828501612c77565b91505092915050565b60008160601b9050919050565b6000612cd182612cb9565b9050919050565b6000612ce382612cc6565b9050919050565b612cfb612cf68261260f565b612cd8565b82525050565b6000819050919050565b612d1c612d1782612544565b612d01565b82525050565b6000612d2e8288612cea565b601482019150612d3e8287612d0b565b602082019150612d4e8286612cea565b601482019150612d5e8285612cea565b601482019150612d6e8284612d0b565b6020820191508190509695505050505050565b7f4e487b7100000000000000000000000000000000000000000000000000000000600052601160045260246000fd5b6000612dbb82612544565b9150612dc683612544565b9250828201905080821115612dde57612ddd612d81565b5b92915050565b6000608082019050612df96000830187612621565b612e066020830186612621565b612e13604083018561254e565b612e20606083018461254e565b95945050505050565b6000604082019050612e3e600083018561254e565b612e4b602083018461254e565b9392505050565b600081905092915050565b50565b6000612e6d600083612e52565b9150612e7882612e5d565b600082019050919050565b6000612e8e82612e60565b9150819050919050565b600081519050919050565b600082825260208201905092915050565b60005b83811015612ed2578082015181840152602081019050612eb7565b60008484015250505050565b6000612ee982612e98565b612ef38185612ea3565b9350612f03818560208601612eb4565b612f0c816129e1565b840191505092915050565b60006020820190508181036000830152612f318184612ede565b905092915050565b6000602082019050612f4e6000830184612698565b92915050565b6000604082019050612f6960008301856126b3565b612f766020830184612621565b9392505050565b6000604082019050612f9260008301856126b3565b612f9f60208301846126b3565b9392505050565b6000604082019050612fbb6000830185612621565b8181036020830152612fcd8184612ede565b90509392505050565b6000612fe182612544565b9150612fec83612544565b9250828202612ffa81612544565b9150828204841483151761301157613010612d81565b5b5092915050565b7f4e487b7100000000000000000000000000000000000000000000000000000000600052601260045260246000fd5b600061305282612544565b915061305d83612544565b92508261306d5761306c613018565b5b828204905092915050565b600061308382612544565b915061308e83612544565b92508282039050818111156130a6576130a5612d81565b5b92915050565b60006060820190506130c16000830186612621565b6130ce6020830185612621565b6130db604083018461254e565b94935050505056fea2646970667358221220e52dcc5711e5ddb841c95c7bab27138bc73cbe5fdd98111c48fdd9760a395afa64736f6c634300081c0033",
  "linkReferences": {},
  "deployedLinkReferences": {}
}