{
  "_format": "hh-sol-artifact-1",
  "contractName": "Escrow",
  "sourceName": "contracts/Escrow.sol",
  "abi": [
    {
      "inputs": [
        {
          "internalType": "address",
          "name": "_propertyContract",
          "type": "address"
        },
        {
          "internalType": "uint256",
          "name": "_feeRate",
          "type": "uint256"
        },
        {
          "internalType": "uint256",
          "name": "_timeLimit",
          "type": "uint256"
        }
      ],
      "stateMutability": "nonpayable",
      "type": "constructor"
    },
    {
      "inputs": [],
      "name": "EscrowAlreadyExists",
      "type": "error"
    },
    {
      "inputs": [],
      "name": "EscrowNotActive",
      "type": "error"
    },
    {
      "inputs": [],
      "name": "EscrowNotExpired",
      "type": "error"
    },
    {
      "inputs": [],
      "name": "EscrowNotFound",
      "type": "error"
    },
    {
      "inputs": [],
      "name": "InsufficientFunds",
      "type": "error"
    },
    {
      "inputs": [],
      "name": "InvalidAddress",
      "type": "error"
    },
    {
      "inputs": [],
      "name": "InvalidAmount",
      "type": "error"
    },
    {
      "inputs": [],
      "name": "InvalidEscrowState",
      "type": "error"
    },
    {
      "inputs": [],
      "name": "NFTTransferFailed",
      "type": "error"
    },
    {
      "inputs": [],
      "name": "NotAuthorized",
      "type": "error"
    },
    {
      "inputs": [
        {
          "internalType": "address",
          "name": "owner",
          "type": "address"
        }
      ],
      "name": "OwnableInvalidOwner",
      "type": "error"
    },
    {
      "inputs": [
        {
          "internalType": "address",
          "name": "account",
          "type": "address"
        }
      ],
      "name": "OwnableUnauthorizedAccount",
      "type": "error"
    },
    {
      "inputs": [],
      "name": "ReentrancyGuardReentrantCall",
      "type": "error"
    },
    {
      "inputs": [],
      "name": "TransferFailed",
      "type": "error"
    },
    {
      "anonymous": false,
      "inputs": [
        {
          "indexed": true,
          "internalType": "bytes32",
          "name": "escrowId",
          "type": "bytes32"
        },
        {
          "indexed": false,
          "internalType": "bool",
          "name": "buyerApproved",
          "type": "bool"
        },
        {
          "indexed": false,
          "internalType": "bool",
          "name": "sellerApproved",
          "type": "bool"
        }
      ],
      "name": "ApprovalUpdated",
      "type": "event"
    },
    {
      "anonymous": false,
      "inputs": [
        {
          "indexed": true,
          "internalType": "bytes32",
          "name": "escrowId",
          "type": "bytes32"
        },
        {
          "indexed": false,
          "internalType": "string",
          "name": "reason",
          "type": "string"
        }
      ],
      "name": "EscrowCancelled",
      "type": "event"
    },
    {
      "anonymous": false,
      "inputs": [
        {
          "indexed": true,
          "internalType": "bytes32",
          "name": "escrowId",
          "type": "bytes32"
        },
        {
          "indexed": true,
          "internalType": "address",
          "name": "buyer",
          "type": "address"
        },
        {
          "indexed": true,
          "internalType": "address",
          "name": "seller",
          "type": "address"
        },
        {
          "indexed": false,
          "internalType": "uint256",
          "name": "amount",
          "type": "uint256"
        },
        {
          "indexed": false,
          "internalType": "uint256",
          "name": "fee",
          "type": "uint256"
        }
      ],
      "name": "EscrowCompleted",
      "type": "event"
    },
    {
      "anonymous": false,
      "inputs": [
        {
          "indexed": true,
          "internalType": "bytes32",
          "name": "escrowId",
          "type": "bytes32"
        },
        {
          "indexed": true,
          "internalType": "address",
          "name": "propertyContract",
          "type": "address"
        },
        {
          "indexed": true,
          "internalType": "uint256",
          "name": "tokenId",
          "type": "uint256"
        },
        {
          "indexed": false,
          "internalType": "address",
          "name": "buyer",
          "type": "address"
        },
        {
          "indexed": false,
          "internalType": "address",
          "name": "seller",
          "type": "address"
        },
        {
          "indexed": false,
          "internalType": "uint256",
          "name": "amount",
          "type": "uint256"
        },
        {
          "indexed": false,
          "internalType": "uint256",
          "name": "expiresAt",
          "type": "uint256"
        }
      ],
      "name": "EscrowCreated",
      "type": "event"
    },
    {
      "anonymous": false,
      "inputs": [
        {
          "indexed": true,
          "internalType": "bytes32",
          "name": "escrowId",
          "type": "bytes32"
        },
        {
          "indexed": false,
          "internalType": "address",
          "name": "disputedBy",
          "type": "address"
        },
        {
          "indexed": false,
          "internalType": "string",
          "name": "reason",
          "type": "string"
        }
      ],
      "name": "EscrowDisputed",
      "type": "event"
    },
    {
      "anonymous": false,
      "inputs": [
        {
          "indexed": true,
          "internalType": "bytes32",
          "name": "escrowId",
          "type": "bytes32"
        },
        {
          "indexed": false,
          "internalType": "enum Escrow.EscrowStatus",
          "name": "resolution",
          "type": "uint8"
        }
      ],
      "name": "EscrowResolved",
      "type": "event"
    },
    {
      "anonymous": false,
      "inputs": [
        {
          "indexed": false,
          "internalType": "uint256",
          "name": "oldRate",
          "type": "uint256"
        },
        {
          "indexed": false,
          "internalType": "uint256",
          "name": "newRate",
          "type": "uint256"
        }
      ],
      "name": "FeeRateUpdated",
      "type": "event"
    },
    {
      "anonymous": false,
      "inputs": [
        {
          "indexed": true,
          "internalType": "bytes32",
          "name": "escrowId",
          "type": "bytes32"
        },
        {
          "indexed": true,
          "internalType": "address",
          "name": "from",
          "type": "address"
        },
        {
          "indexed": false,
          "internalType": "uint256",
          "name": "amount",
          "type": "uint256"
        }
      ],
      "name": "FundsDeposited",
      "type": "event"
    },
    {
      "anonymous": false,
      "inputs": [
        {
          "indexed": true,
          "internalType": "bytes32",
          "name": "escrowId",
          "type": "bytes32"
        },
        {
          "indexed": false,
          "internalType": "bool",
          "name": "passed",
          "type": "bool"
        },
        {
          "indexed": false,
          "internalType": "address",
          "name": "updatedBy",
          "type": "address"
        }
      ],
      "name": "InspectionUpdated",
      "type": "event"
    },
    {
      "anonymous": false,
      "inputs": [
        {
          "indexed": true,
          "internalType": "address",
          "name": "previousOwner",
          "type": "address"
        },
        {
          "indexed": true,
          "internalType": "address",
          "name": "newOwner",
          "type": "address"
        }
      ],
      "name": "OwnershipTransferred",
      "type": "event"
    },
    {
      "anonymous": false,
      "inputs": [
        {
          "indexed": false,
          "internalType": "uint256",
          "name": "oldLimit",
          "type": "uint256"
        },
        {
          "indexed": false,
          "internalType": "uint256",
          "name": "newLimit",
          "type": "uint256"
        }
      ],
      "name": "TimeLimitUpdated",
      "type": "event"
    },
    {
      "inputs": [
        {
          "internalType": "bytes32",
          "name": "_escrowId",
          "type": "bytes32"
        }
      ],
      "name": "approveEscrow",
      "outputs": [],
      "stateMutability": "nonpayable",
      "type": "function"
    },
    {
      "inputs": [
        {
          "internalType": "bytes32",
          "name": "_escrowId",
          "type": "bytes32"
        },
        {
          "internalType": "string",
          "name": "_reason",
          "type": "string"
        }
      ],
      "name": "cancelEscrow",
      "outputs": [],
      "stateMutability": "nonpayable",
      "type": "function"
    },
    {
      "inputs": [
        {
          "internalType": "address",
          "name": "_propertyContract",
          "type": "address"
        },
        {
          "internalType": "uint256",
          "name": "_tokenId",
          "type": "uint256"
        },
        {
          "internalType": "address",
          "name": "_seller",
          "type": "address"
        },
        {
          "internalType": "uint256",
          "name": "_price",
          "type": "uint256"
        }
      ],
      "name": "createEscrow",
      "outputs": [
        {
          "internalType": "bytes32",
          "name": "",
          "type": "bytes32"
        }
      ],
      "stateMutability": "nonpayable",
      "type": "function"
    },
    {
      "inputs": [
        {
          "internalType": "bytes32",
          "name": "_escrowId",
          "type": "bytes32"
        }
      ],
      "name": "depositFunds",
      "outputs": [],
      "stateMutability": "payable",
      "type": "function"
    },
    {
      "inputs": [
        {
          "internalType": "bytes32",
          "name": "_escrowId",
          "type": "bytes32"
        },
        {
          "internalType": "string",
          "name": "_reason",
          "type": "string"
        }
      ],
      "name": "disputeEscrow",
      "outputs": [],
      "stateMutability": "nonpayable",
      "type": "function"
    },
    {
      "inputs": [],
      "name": "escrowFeeRate",
      "outputs": [
        {
          "internalType": "uint256",
          "name": "",
          "type": "uint256"
        }
      ],
      "stateMutability": "view",
      "type": "function"
    },
    {
      "inputs": [],
      "name": "escrowTimeLimit",
      "outputs": [
        {
          "internalType": "uint256",
          "name": "",
          "type": "uint256"
        }
      ],
      "stateMutability": "view",
      "type": "function"
    },
    {
      "inputs": [
        {
          "internalType": "bytes32",
          "name": "",
          "type": "bytes32"
        }
      ],
      "name": "escrows",
      "outputs": [
        {
          "internalType": "uint256",
          "name": "tokenId",
          "type": "uint256"
        },
        {
          "internalType": "uint256",
          "name": "amount",
          "type": "uint256"
        },
        {
          "internalType": "address",
          "name": "propertyContract",
          "type": "address"
        },
        {
          "internalType": "address",
          "name": "buyer",
          "type": "address"
        },
        {
          "internalType": "address",
          "name": "seller",
          "type": "address"
        },
        {
          "internalType": "uint64",
          "name": "createdAt",
          "type": "uint64"
        },
        {
          "internalType": "uint64",
          "name": "expiresAt",
          "type": "uint64"
        },
        {
          "internalType": "enum Escrow.EscrowStatus",
          "name": "status",
          "type": "uint8"
        },
        {
          "internalType": "bool",
          "name": "inspectionPassed",
          "type": "bool"
        },
        {
          "internalType": "bool",
          "name": "buyerApproved",
          "type": "bool"
        },
        {
          "internalType": "bool",
          "name": "sellerApproved",
          "type": "bool"
        },
        {
          "internalType": "bool",
          "name": "isFunded",
          "type": "bool"
        }
      ],
      "stateMutability": "view",
      "type": "function"
    },
    {
      "inputs": [],
      "name": "getContractBalance",
      "outputs": [
        {
          "internalType": "uint256",
          "name": "",
          "type": "uint256"
        }
      ],
      "stateMutability": "view",
      "type": "function"
    },
    {
      "inputs": [
        {
          "internalType": "bytes32",
          "name": "_escrowId",
          "type": "bytes32"
        }
      ],
      "name": "getEscrowDetails",
      "outputs": [
        {
          "components": [
            {
              "internalType": "uint256",
              "name": "tokenId",
              "type": "uint256"
            },
            {
              "internalType": "uint256",
              "name": "amount",
              "type": "uint256"
            },
            {
              "internalType": "address",
              "name": "propertyContract",
              "type": "address"
            },
            {
              "internalType": "address",
              "name": "buyer",
              "type": "address"
            },
            {
              "internalType": "address",
              "name": "seller",
              "type": "address"
            },
            {
              "internalType": "uint64",
              "name": "createdAt",
              "type": "uint64"
            },
            {
              "internalType": "uint64",
              "name": "expiresAt",
              "type": "uint64"
            },
            {
              "internalType": "enum Escrow.EscrowStatus",
              "name": "status",
              "type": "uint8"
            },
            {
              "internalType": "bool",
              "name": "inspectionPassed",
              "type": "bool"
            },
            {
              "internalType": "bool",
              "name": "buyerApproved",
              "type": "bool"
            },
            {
              "internalType": "bool",
              "name": "sellerApproved",
              "type": "bool"
            },
            {
              "internalType": "bool",
              "name": "isFunded",
              "type": "bool"
            }
          ],
          "internalType": "struct Escrow.EscrowDetails",
          "name": "",
          "type": "tuple"
        }
      ],
      "stateMutability": "view",
      "type": "function"
    },
    {
      "inputs": [],
      "name": "owner",
      "outputs": [
        {
          "internalType": "address",
          "name": "",
          "type": "address"
        }
      ],
      "stateMutability": "view",
      "type": "function"
    },
    {
      "inputs": [],
      "name": "propertyContract",
      "outputs": [
        {
          "internalType": "address",
          "name": "",
          "type": "address"
        }
      ],
      "stateMutability": "view",
      "type": "function"
    },
    {
      "inputs": [],
      "name": "renounceOwnership",
      "outputs": [],
      "stateMutability": "nonpayable",
      "type": "function"
    },
    {
      "inputs": [
        {
          "internalType": "bytes32",
          "name": "_escrowId",
          "type": "bytes32"
        },
        {
          "internalType": "enum Escrow.EscrowStatus",
          "name": "_resolution",
          "type": "uint8"
        }
      ],
      "name": "resolveDispute",
      "outputs": [],
      "stateMutability": "nonpayable",
      "type": "function"
    },
    {
      "inputs": [
        {
          "internalType": "address",
          "name": "newOwner",
          "type": "address"
        }
      ],
      "name": "transferOwnership",
      "outputs": [],
      "stateMutability": "nonpayable",
      "type": "function"
    },
    {
      "inputs": [
        {
          "internalType": "uint256",
          "name": "_newFeeRate",
          "type": "uint256"
        }
      ],
      "name": "updateFeeRate",
      "outputs": [],
      "stateMutability": "nonpayable",
      "type": "function"
    },
    {
      "inputs": [
        {
          "internalType": "bytes32",
          "name": "_escrowId",
          "type": "bytes32"
        },
        {
          "internalType": "bool",
          "name": "_passed",
          "type": "bool"
        }
      ],
      "name": "updateInspectionStatus",
      "outputs": [],
      "stateMutability": "nonpayable",
      "type": "function"
    },
    {
      "inputs": [
        {
          "internalType": "uint256",
          "name": "_newTimeLimit",
          "type": "uint256"
        }
      ],
      "name": "updateTimeLimit",
      "outputs": [],
      "stateMutability": "nonpayable",
      "type": "function"
    }
  ],
  "bytecode": "0x608060405234801561001057600080fd5b5060405161352b38038061352b833981810160405281019061003291906102be565b33600073ffffffffffffffffffffffffffffffffffffffff168173ffffffffffffffffffffffffffffffffffffffff16036100a55760006040517f1e4fbdf700000000000000000000000000000000000000000000000000000000815260040161009c9190610320565b60405180910390fd5b6100b48161016160201b60201c565b506001808190555082600260006101000a81548173ffffffffffffffffffffffffffffffffffffffff021916908373ffffffffffffffffffffffffffffffffffffffff1602179055506103e8821115610139576040517f2c5211c600000000000000000000000000000000000000000000000000000000815260040160405180910390fd5b81600481905550600081116101515762278d00610153565b805b60058190555050505061033b565b60008060009054906101000a900473ffffffffffffffffffffffffffffffffffffffff169050816000806101000a81548173ffffffffffffffffffffffffffffffffffffffff021916908373ffffffffffffffffffffffffffffffffffffffff1602179055508173ffffffffffffffffffffffffffffffffffffffff168173ffffffffffffffffffffffffffffffffffffffff167f8be0079c531659141344cd1fd0a4f28419497f9722a3daafe3b4186f6b6457e060405160405180910390a35050565b600080fd5b600073ffffffffffffffffffffffffffffffffffffffff82169050919050565b60006102558261022a565b9050919050565b6102658161024a565b811461027057600080fd5b50565b6000815190506102828161025c565b92915050565b6000819050919050565b61029b81610288565b81146102a657600080fd5b50565b6000815190506102b881610292565b92915050565b6000806000606084860312156102d7576102d6610225565b5b60006102e586828701610273565b93505060206102f6868287016102a9565b9250506040610307868287016102a9565b9150509250925092565b61031a8161024a565b82525050565b60006020820190506103356000830184610311565b92915050565b6131e18061034a6000396000f3fe6080604052600436106101095760003560e01c80638fca967311610095578063b641237c11610064578063b641237c14610355578063ecdeada91461037e578063f2fde38b146103a7578063f4940f01146103d0578063faf3d83b146103f957610109565b80638fca9673146102bc578063945ce82d146102e7578063a312ac9714610303578063a4cd57ab1461032c57610109565b8063694ebe05116100dc578063694ebe05146101e95780636f9fb98a14610226578063715018a6146102515780637b84fda5146102685780638da5cb5b1461029157610109565b80631b41c1ff1461010e5780632d83549c1461013957806338596b0b1461018157806351a89ce8146101ac575b600080fd5b34801561011a57600080fd5b50610123610422565b60405161013091906125cf565b60405180910390f35b34801561014557600080fd5b50610160600480360381019061015b9190612634565b610428565b6040516101789c9b9a99989796959493929190612757565b60405180910390f35b34801561018d57600080fd5b50610196610551565b6040516101a391906125cf565b60405180910390f35b3480156101b857600080fd5b506101d360048036038101906101ce9190612634565b610557565b6040516101e09190612952565b60405180910390f35b3480156101f557600080fd5b50610210600480360381019061020b91906129c6565b61080e565b60405161021d9190612a3c565b60405180910390f35b34801561023257600080fd5b5061023b610dd3565b60405161024891906125cf565b60405180910390f35b34801561025d57600080fd5b50610266610de3565b005b34801561027457600080fd5b5061028f600480360381019061028a9190612a57565b610df7565b005b34801561029d57600080fd5b506102a6610e86565b6040516102b39190612a84565b60405180910390f35b3480156102c857600080fd5b506102d1610eaf565b6040516102de9190612a84565b60405180910390f35b61030160048036038101906102fc9190612634565b610ed5565b005b34801561030f57600080fd5b5061032a60048036038101906103259190612a57565b6110ea565b005b34801561033857600080fd5b50610353600480360381019061034e9190612be5565b611177565b005b34801561036157600080fd5b5061037c60048036038101906103779190612c66565b61152f565b005b34801561038a57600080fd5b506103a560048036038101906103a09190612cd2565b611809565b005b3480156103b357600080fd5b506103ce60048036038101906103c99190612d12565b611a10565b005b3480156103dc57600080fd5b506103f760048036038101906103f29190612634565b611a96565b005b34801561040557600080fd5b50610420600480360381019061041b9190612be5565b611d06565b005b60055481565b60036020528060005260406000206000915090508060000154908060010154908060020160009054906101000a900473ffffffffffffffffffffffffffffffffffffffff16908060030160009054906101000a900473ffffffffffffffffffffffffffffffffffffffff16908060040160009054906101000a900473ffffffffffffffffffffffffffffffffffffffff16908060040160149054906101000a900467ffffffffffffffff16908060050160009054906101000a900467ffffffffffffffff16908060050160089054906101000a900460ff16908060050160099054906101000a900460ff169080600501600a9054906101000a900460ff169080600501600b9054906101000a900460ff169080600501600c9054906101000a900460ff1690508c565b60045481565b61055f6124e5565b6000600360008481526020019081526020016000206040518061018001604052908160008201548152602001600182015481526020016002820160009054906101000a900473ffffffffffffffffffffffffffffffffffffffff1673ffffffffffffffffffffffffffffffffffffffff1673ffffffffffffffffffffffffffffffffffffffff1681526020016003820160009054906101000a900473ffffffffffffffffffffffffffffffffffffffff1673ffffffffffffffffffffffffffffffffffffffff1673ffffffffffffffffffffffffffffffffffffffff1681526020016004820160009054906101000a900473ffffffffffffffffffffffffffffffffffffffff1673ffffffffffffffffffffffffffffffffffffffff1673ffffffffffffffffffffffffffffffffffffffff1681526020016004820160149054906101000a900467ffffffffffffffff1667ffffffffffffffff1667ffffffffffffffff1681526020016005820160009054906101000a900467ffffffffffffffff1667ffffffffffffffff1667ffffffffffffffff1681526020016005820160089054906101000a900460ff16600481111561071f5761071e6126c5565b5b6004811115610731576107306126c5565b5b81526020016005820160099054906101000a900460ff1615151515815260200160058201600a9054906101000a900460ff1615151515815260200160058201600b9054906101000a900460ff1615151515815260200160058201600c9054906101000a900460ff1615151515815250509050600060048111156107b7576107b66126c5565b5b8160e0015160048111156107ce576107cd6126c5565b5b03610805576040517ff1d80ab100000000000000000000000000000000000000000000000000000000815260040160405180910390fd5b80915050919050565b60008073ffffffffffffffffffffffffffffffffffffffff168573ffffffffffffffffffffffffffffffffffffffff1614806108765750600073ffffffffffffffffffffffffffffffffffffffff168373ffffffffffffffffffffffffffffffffffffffff16145b156108ad576040517fe6c4247b00000000000000000000000000000000000000000000000000000000815260040160405180910390fd5b600082036108e7576040517f2c5211c600000000000000000000000000000000000000000000000000000000815260040160405180910390fd5b60008573ffffffffffffffffffffffffffffffffffffffff16636352211e866040518263ffffffff1660e01b815260040161092291906125cf565b602060405180830381865afa15801561093f573d6000803e3d6000fd5b505050506040513d601f19601f820116820180604052508101906109639190612d54565b90508373ffffffffffffffffffffffffffffffffffffffff168173ffffffffffffffffffffffffffffffffffffffff16146109ca576040517fea8e4eb500000000000000000000000000000000000000000000000000000000815260040160405180910390fd5b600086863387426040516020016109e5959493929190612dea565b60405160208183030381529060405280519060200120905060006004811115610a1157610a106126c5565b5b6003600083815260200190815260200160002060050160089054906101000a900460ff166004811115610a4757610a466126c5565b5b14610a7e576040517fed77877900000000000000000000000000000000000000000000000000000000815260040160405180910390fd5b6040518061018001604052808781526020018581526020018873ffffffffffffffffffffffffffffffffffffffff1681526020013373ffffffffffffffffffffffffffffffffffffffff1681526020018673ffffffffffffffffffffffffffffffffffffffff1681526020014267ffffffffffffffff16815260200160055442610b089190612e78565b67ffffffffffffffff16815260200160016004811115610b2b57610b2a6126c5565b5b81526020016000151581526020016000151581526020016000151581526020016000151581525060036000838152602001908152602001600020600082015181600001556020820151816001015560408201518160020160006101000a81548173ffffffffffffffffffffffffffffffffffffffff021916908373ffffffffffffffffffffffffffffffffffffffff16021790555060608201518160030160006101000a81548173ffffffffffffffffffffffffffffffffffffffff021916908373ffffffffffffffffffffffffffffffffffffffff16021790555060808201518160040160006101000a81548173ffffffffffffffffffffffffffffffffffffffff021916908373ffffffffffffffffffffffffffffffffffffffff16021790555060a08201518160040160146101000a81548167ffffffffffffffff021916908367ffffffffffffffff16021790555060c08201518160050160006101000a81548167ffffffffffffffff021916908367ffffffffffffffff16021790555060e08201518160050160086101000a81548160ff02191690836004811115610cd757610cd66126c5565b5b02179055506101008201518160050160096101000a81548160ff02191690831515021790555061012082015181600501600a6101000a81548160ff02191690831515021790555061014082015181600501600b6101000a81548160ff02191690831515021790555061016082015181600501600c6101000a81548160ff021916908315150217905550905050858773ffffffffffffffffffffffffffffffffffffffff16827f2f967cdc46d14d14b15cfb70fe20984062b300dc9df8322fcbd326fa5560599b33898960055442610dae9190612e78565b604051610dbe9493929190612eac565b60405180910390a48092505050949350505050565b6000610ddd611f1e565b47905090565b610deb611f1e565b610df56000611fa5565b565b610dff611f1e565b6103e8811115610e3b576040517f2c5211c600000000000000000000000000000000000000000000000000000000815260040160405180910390fd5b60006004549050816004819055507f14914da2bf76024616fbe1859783fcd4dbddcb179b1f3a854949fbf920dcb9578183604051610e7a929190612ef1565b60405180910390a15050565b60008060009054906101000a900473ffffffffffffffffffffffffffffffffffffffff16905090565b600260009054906101000a900473ffffffffffffffffffffffffffffffffffffffff1681565b610edd612069565b600060036000838152602001908152602001600020905060016004811115610f0857610f076126c5565b5b8160050160089054906101000a900460ff166004811115610f2c57610f2b6126c5565b5b14610f63576040517f692bfa7f00000000000000000000000000000000000000000000000000000000815260040160405180910390fd5b8060030160009054906101000a900473ffffffffffffffffffffffffffffffffffffffff1673ffffffffffffffffffffffffffffffffffffffff163373ffffffffffffffffffffffffffffffffffffffff1614610fec576040517fea8e4eb500000000000000000000000000000000000000000000000000000000815260040160405180910390fd5b80600101543414611029576040517f2c5211c600000000000000000000000000000000000000000000000000000000815260040160405180910390fd5b80600501600c9054906101000a900460ff1615611072576040517fa891029a00000000000000000000000000000000000000000000000000000000815260040160405180910390fd5b600181600501600c6101000a81548160ff0219169083151502179055503373ffffffffffffffffffffffffffffffffffffffff16827f6221f2b1a766e0a60a83a05c2ca8be3bf4b8028dbcb5b67624f5392a07372ae3346040516110d691906125cf565b60405180910390a3506110e76120af565b50565b6110f2611f1e565b6000810361112c576040517f2c5211c600000000000000000000000000000000000000000000000000000000815260040160405180910390fd5b60006005549050816005819055507ff80d1fa1cd2e7958f8bb480c27f4517d14d8986cb81f9095b5a6857c50074a7d818360405161116b929190612ef1565b60405180910390a15050565b6000600360008481526020019081526020016000209050600160048111156111a2576111a16126c5565b5b8160050160089054906101000a900460ff1660048111156111c6576111c56126c5565b5b146111fd576040517f692bfa7f00000000000000000000000000000000000000000000000000000000815260040160405180910390fd5b8060030160009054906101000a900473ffffffffffffffffffffffffffffffffffffffff1673ffffffffffffffffffffffffffffffffffffffff163373ffffffffffffffffffffffffffffffffffffffff16141580156112ad57508060040160009054906101000a900473ffffffffffffffffffffffffffffffffffffffff1673ffffffffffffffffffffffffffffffffffffffff163373ffffffffffffffffffffffffffffffffffffffff1614155b80156112ec57506112bc610e86565b73ffffffffffffffffffffffffffffffffffffffff163373ffffffffffffffffffffffffffffffffffffffff1614155b15611323576040517fea8e4eb500000000000000000000000000000000000000000000000000000000815260040160405180910390fd5b8060050160009054906101000a900467ffffffffffffffff1667ffffffffffffffff16421080156113875750611357610e86565b73ffffffffffffffffffffffffffffffffffffffff163373ffffffffffffffffffffffffffffffffffffffff1614155b156113be576040517f5b3d0edd00000000000000000000000000000000000000000000000000000000815260040160405180910390fd5b60038160050160086101000a81548160ff021916908360048111156113e6576113e56126c5565b5b021790555080600501600c9054906101000a900460ff16156114f257600081600101549050600082600501600c6101000a81548160ff02191690831515021790555060008260030160009054906101000a900473ffffffffffffffffffffffffffffffffffffffff1673ffffffffffffffffffffffffffffffffffffffff168260405161147290612f4b565b60006040518083038185875af1925050503d80600081146114af576040519150601f19603f3d011682016040523d82523d6000602084013e6114b4565b606091505b50509050806114ef576040517f90b8ec1800000000000000000000000000000000000000000000000000000000815260040160405180910390fd5b50505b827fe173efa1002dc96426573f832df7b93111bd0400b4e61ba7b2edd306b8e1f0e7836040516115229190612fdf565b60405180910390a2505050565b611537611f1e565b61153f612069565b6000600360008481526020019081526020016000209050600480811115611569576115686126c5565b5b8160050160089054906101000a900460ff16600481111561158d5761158c6126c5565b5b146115c4576040517fa891029a00000000000000000000000000000000000000000000000000000000815260040160405180910390fd5b600260048111156115d8576115d76126c5565b5b8260048111156115eb576115ea6126c5565b5b1415801561161e575060036004811115611608576116076126c5565b5b82600481111561161b5761161a6126c5565b5b14155b15611655576040517fa891029a00000000000000000000000000000000000000000000000000000000815260040160405180910390fd5b60026004811115611669576116686126c5565b5b82600481111561167c5761167b6126c5565b5b0361168f5761168a836120b8565b6117c4565b60038160050160086101000a81548160ff021916908360048111156116b7576116b66126c5565b5b021790555080600501600c9054906101000a900460ff16156117c357600081600101549050600082600501600c6101000a81548160ff02191690831515021790555060008260030160009054906101000a900473ffffffffffffffffffffffffffffffffffffffff1673ffffffffffffffffffffffffffffffffffffffff168260405161174390612f4b565b60006040518083038185875af1925050503d8060008114611780576040519150601f19603f3d011682016040523d82523d6000602084013e611785565b606091505b50509050806117c0576040517f90b8ec1800000000000000000000000000000000000000000000000000000000815260040160405180910390fd5b50505b5b827f08d7139721d952b5676c8c0f188e3a33f9b1abc36bb5e30618d4bca264807c12836040516117f49190613001565b60405180910390a2506118056120af565b5050565b600060036000848152602001908152602001600020905060016004811115611834576118336126c5565b5b8160050160089054906101000a900460ff166004811115611858576118576126c5565b5b1461188f576040517f692bfa7f00000000000000000000000000000000000000000000000000000000815260040160405180910390fd5b8060030160009054906101000a900473ffffffffffffffffffffffffffffffffffffffff1673ffffffffffffffffffffffffffffffffffffffff163373ffffffffffffffffffffffffffffffffffffffff161415801561193f57508060040160009054906101000a900473ffffffffffffffffffffffffffffffffffffffff1673ffffffffffffffffffffffffffffffffffffffff163373ffffffffffffffffffffffffffffffffffffffff1614155b801561197e575061194e610e86565b73ffffffffffffffffffffffffffffffffffffffff163373ffffffffffffffffffffffffffffffffffffffff1614155b156119b5576040517fea8e4eb500000000000000000000000000000000000000000000000000000000815260040160405180910390fd5b818160050160096101000a81548160ff021916908315150217905550827f12f1165af94749a130428adc5932b4a4e3e284b601f0ef51d7d43b57ff1560648333604051611a0392919061301c565b60405180910390a2505050565b611a18611f1e565b600073ffffffffffffffffffffffffffffffffffffffff168173ffffffffffffffffffffffffffffffffffffffff1603611a8a5760006040517f1e4fbdf7000000000000000000000000000000000000000000000000000000008152600401611a819190612a84565b60405180910390fd5b611a9381611fa5565b50565b611a9e612069565b600060036000838152602001908152602001600020905060016004811115611ac957611ac86126c5565b5b8160050160089054906101000a900460ff166004811115611aed57611aec6126c5565b5b14611b24576040517f692bfa7f00000000000000000000000000000000000000000000000000000000815260040160405180910390fd5b8060030160009054906101000a900473ffffffffffffffffffffffffffffffffffffffff1673ffffffffffffffffffffffffffffffffffffffff163373ffffffffffffffffffffffffffffffffffffffff1603611b9d57600181600501600a6101000a81548160ff021916908315150217905550611c49565b8060040160009054906101000a900473ffffffffffffffffffffffffffffffffffffffff1673ffffffffffffffffffffffffffffffffffffffff163373ffffffffffffffffffffffffffffffffffffffff1603611c1657600181600501600b6101000a81548160ff021916908315150217905550611c48565b6040517fea8e4eb500000000000000000000000000000000000000000000000000000000815260040160405180910390fd5b5b817fa3a94e80a3d87c39a60962995d90c8ce0eb3aee0151bac3997a97a6aa5abaf5f82600501600a9054906101000a900460ff1683600501600b9054906101000a900460ff16604051611c9d929190613045565b60405180910390a280600501600a9054906101000a900460ff168015611cd1575080600501600b9054906101000a900460ff165b8015611ceb57508060050160099054906101000a900460ff165b15611cfa57611cf9826120b8565b5b50611d036120af565b50565b600060036000848152602001908152602001600020905060016004811115611d3157611d306126c5565b5b8160050160089054906101000a900460ff166004811115611d5557611d546126c5565b5b14611d8c576040517f692bfa7f00000000000000000000000000000000000000000000000000000000815260040160405180910390fd5b8060030160009054906101000a900473ffffffffffffffffffffffffffffffffffffffff1673ffffffffffffffffffffffffffffffffffffffff163373ffffffffffffffffffffffffffffffffffffffff1614158015611e3c57508060040160009054906101000a900473ffffffffffffffffffffffffffffffffffffffff1673ffffffffffffffffffffffffffffffffffffffff163373ffffffffffffffffffffffffffffffffffffffff1614155b8015611e7b5750611e4b610e86565b73ffffffffffffffffffffffffffffffffffffffff163373ffffffffffffffffffffffffffffffffffffffff1614155b15611eb2576040517fea8e4eb500000000000000000000000000000000000000000000000000000000815260040160405180910390fd5b60048160050160086101000a81548160ff02191690836004811115611eda57611ed96126c5565b5b0217905550827f85df63e82b1c4b692591e851fd05ac7c87d4dd28557d780c47c462a11f64e0c83384604051611f1192919061306e565b60405180910390a2505050565b611f266124dd565b73ffffffffffffffffffffffffffffffffffffffff16611f44610e86565b73ffffffffffffffffffffffffffffffffffffffff1614611fa357611f676124dd565b6040517f118cdaa7000000000000000000000000000000000000000000000000000000008152600401611f9a9190612a84565b60405180910390fd5b565b60008060009054906101000a900473ffffffffffffffffffffffffffffffffffffffff169050816000806101000a81548173ffffffffffffffffffffffffffffffffffffffff021916908373ffffffffffffffffffffffffffffffffffffffff1602179055508173ffffffffffffffffffffffffffffffffffffffff168173ffffffffffffffffffffffffffffffffffffffff167f8be0079c531659141344cd1fd0a4f28419497f9722a3daafe3b4186f6b6457e060405160405180910390a35050565b6002600154036120a5576040517f3ee5aeb500000000000000000000000000000000000000000000000000000000815260040160405180910390fd5b6002600181905550565b60018081905550565b600060036000838152602001908152602001600020905080600501600c9054906101000a900460ff16612117576040517f356680b700000000000000000000000000000000000000000000000000000000815260040160405180910390fd5b6000612710600454836001015461212e919061309e565b612138919061310f565b9050600081836001015461214c9190613140565b9050600083600501600c6101000a81548160ff02191690831515021790555060028360050160086101000a81548160ff02191690836004811115612193576121926126c5565b5b02179055508260020160009054906101000a900473ffffffffffffffffffffffffffffffffffffffff1673ffffffffffffffffffffffffffffffffffffffff166323b872dd8460040160009054906101000a900473ffffffffffffffffffffffffffffffffffffffff168560030160009054906101000a900473ffffffffffffffffffffffffffffffffffffffff1686600001546040518463ffffffff1660e01b815260040161224593929190613174565b600060405180830381600087803b15801561225f57600080fd5b505af1925050508015612270575060015b6122a6576040517f4605c59800000000000000000000000000000000000000000000000000000000815260040160405180910390fd5b60008360040160009054906101000a900473ffffffffffffffffffffffffffffffffffffffff1673ffffffffffffffffffffffffffffffffffffffff16826040516122f090612f4b565b60006040518083038185875af1925050503d806000811461232d576040519150601f19603f3d011682016040523d82523d6000602084013e612332565b606091505b505090508061236d576040517f90b8ec1800000000000000000000000000000000000000000000000000000000815260040160405180910390fd5b6000831115612422576000612380610e86565b73ffffffffffffffffffffffffffffffffffffffff16846040516123a390612f4b565b60006040518083038185875af1925050503d80600081146123e0576040519150601f19603f3d011682016040523d82523d6000602084013e6123e5565b606091505b5050905080612420576040517f90b8ec1800000000000000000000000000000000000000000000000000000000815260040160405180910390fd5b505b8360040160009054906101000a900473ffffffffffffffffffffffffffffffffffffffff1673ffffffffffffffffffffffffffffffffffffffff168460030160009054906101000a900473ffffffffffffffffffffffffffffffffffffffff1673ffffffffffffffffffffffffffffffffffffffff16867f01028ac1cb8bdca71170b372b533230e6e528d155bc10b1b71aa4bcc3c0407008760010154876040516124ce929190612ef1565b60405180910390a45050505050565b600033905090565b6040518061018001604052806000815260200160008152602001600073ffffffffffffffffffffffffffffffffffffffff168152602001600073ffffffffffffffffffffffffffffffffffffffff168152602001600073ffffffffffffffffffffffffffffffffffffffff168152602001600067ffffffffffffffff168152602001600067ffffffffffffffff1681526020016000600481111561258c5761258b6126c5565b5b81526020016000151581526020016000151581526020016000151581526020016000151581525090565b6000819050919050565b6125c9816125b6565b82525050565b60006020820190506125e460008301846125c0565b92915050565b6000604051905090565b600080fd5b600080fd5b6000819050919050565b612611816125fe565b811461261c57600080fd5b50565b60008135905061262e81612608565b92915050565b60006020828403121561264a576126496125f4565b5b60006126588482850161261f565b91505092915050565b600073ffffffffffffffffffffffffffffffffffffffff82169050919050565b600061268c82612661565b9050919050565b61269c81612681565b82525050565b600067ffffffffffffffff82169050919050565b6126bf816126a2565b82525050565b7f4e487b7100000000000000000000000000000000000000000000000000000000600052602160045260246000fd5b60058110612705576127046126c5565b5b50565b6000819050612716826126f4565b919050565b600061272682612708565b9050919050565b6127368161271b565b82525050565b60008115159050919050565b6127518161273c565b82525050565b60006101808201905061276d600083018f6125c0565b61277a602083018e6125c0565b612787604083018d612693565b612794606083018c612693565b6127a1608083018b612693565b6127ae60a083018a6126b6565b6127bb60c08301896126b6565b6127c860e083018861272d565b6127d6610100830187612748565b6127e4610120830186612748565b6127f2610140830185612748565b612800610160830184612748565b9d9c50505050505050505050505050565b61281a816125b6565b82525050565b61282981612681565b82525050565b612838816126a2565b82525050565b6128478161271b565b82525050565b6128568161273c565b82525050565b610180820160008201516128736000850182612811565b5060208201516128866020850182612811565b5060408201516128996040850182612820565b5060608201516128ac6060850182612820565b5060808201516128bf6080850182612820565b5060a08201516128d260a085018261282f565b5060c08201516128e560c085018261282f565b5060e08201516128f860e085018261283e565b5061010082015161290d61010085018261284d565b5061012082015161292261012085018261284d565b5061014082015161293761014085018261284d565b5061016082015161294c61016085018261284d565b50505050565b600061018082019050612968600083018461285c565b92915050565b61297781612681565b811461298257600080fd5b50565b6000813590506129948161296e565b92915050565b6129a3816125b6565b81146129ae57600080fd5b50565b6000813590506129c08161299a565b92915050565b600080600080608085870312156129e0576129df6125f4565b5b60006129ee87828801612985565b94505060206129ff878288016129b1565b9350506040612a1087828801612985565b9250506060612a21878288016129b1565b91505092959194509250565b612a36816125fe565b82525050565b6000602082019050612a516000830184612a2d565b92915050565b600060208284031215612a6d57612a6c6125f4565b5b6000612a7b848285016129b1565b91505092915050565b6000602082019050612a996000830184612693565b92915050565b600080fd5b600080fd5b6000601f19601f8301169050919050565b7f4e487b7100000000000000000000000000000000000000000000000000000000600052604160045260246000fd5b612af282612aa9565b810181811067ffffffffffffffff82111715612b1157612b10612aba565b5b80604052505050565b6000612b246125ea565b9050612b308282612ae9565b919050565b600067ffffffffffffffff821115612b5057612b4f612aba565b5b612b5982612aa9565b9050602081019050919050565b82818337600083830152505050565b6000612b88612b8384612b35565b612b1a565b905082815260208101848484011115612ba457612ba3612aa4565b5b612baf848285612b66565b509392505050565b600082601f830112612bcc57612bcb612a9f565b5b8135612bdc848260208601612b75565b91505092915050565b60008060408385031215612bfc57612bfb6125f4565b5b6000612c0a8582860161261f565b925050602083013567ffffffffffffffff811115612c2b57612c2a6125f9565b5b612c3785828601612bb7565b9150509250929050565b60058110612c4e57600080fd5b50565b600081359050612c6081612c41565b92915050565b60008060408385031215612c7d57612c7c6125f4565b5b6000612c8b8582860161261f565b9250506020612c9c85828601612c51565b9150509250929050565b612caf8161273c565b8114612cba57600080fd5b50565b600081359050612ccc81612ca6565b92915050565b60008060408385031215612ce957612ce86125f4565b5b6000612cf78582860161261f565b9250506020612d0885828601612cbd565b9150509250929050565b600060208284031215612d2857612d276125f4565b5b6000612d3684828501612985565b91505092915050565b600081519050612d4e8161296e565b92915050565b600060208284031215612d6a57612d696125f4565b5b6000612d7884828501612d3f565b91505092915050565b60008160601b9050919050565b6000612d9982612d81565b9050919050565b6000612dab82612d8e565b9050919050565b612dc3612dbe82612681565b612da0565b82525050565b6000819050919050565b612de4612ddf826125b6565b612dc9565b82525050565b6000612df68288612db2565b601482019150612e068287612dd3565b602082019150612e168286612db2565b601482019150612e268285612db2565b601482019150612e368284612dd3565b6020820191508190509695505050505050565b7f4e487b7100000000000000000000000000000000000000000000000000000000600052601160045260246000fd5b6000612e83826125b6565b9150612e8e836125b6565b9250828201905080821115612ea657612ea5612e49565b5b92915050565b6000608082019050612ec16000830187612693565b612ece6020830186612693565b612edb60408301856125c0565b612ee860608301846125c0565b95945050505050565b6000604082019050612f0660008301856125c0565b612f1360208301846125c0565b9392505050565b600081905092915050565b50565b6000612f35600083612f1a565b9150612f4082612f25565b600082019050919050565b6000612f5682612f28565b9150819050919050565b600081519050919050565b600082825260208201905092915050565b60005b83811015612f9a578082015181840152602081019050612f7f565b60008484015250505050565b6000612fb182612f60565b612fbb8185612f6b565b9350612fcb818560208601612f7c565b612fd481612aa9565b840191505092915050565b60006020820190508181036000830152612ff98184612fa6565b905092915050565b6000602082019050613016600083018461272d565b92915050565b60006040820190506130316000830185612748565b61303e6020830184612693565b9392505050565b600060408201905061305a6000830185612748565b6130676020830184612748565b9392505050565b60006040820190506130836000830185612693565b81810360208301526130958184612fa6565b90509392505050565b60006130a9826125b6565b91506130b4836125b6565b92508282026130c2816125b6565b915082820484148315176130d9576130d8612e49565b5b5092915050565b7f4e487b7100000000000000000000000000000000000000000000000000000000600052601260045260246000fd5b600061311a826125b6565b9150613125836125b6565b925082613135576131346130e0565b5b828204905092915050565b600061314b826125b6565b9150613156836125b6565b925082820390508181111561316e5761316d612e49565b5b92915050565b60006060820190506131896000830186612693565b6131966020830185612693565b6131a360408301846125c0565b94935050505056fea26469706673582212204201d11d349f50245e1078b225ac3ce25fdebd3c2adf986b0b512ab8cb5acf3e64736f6c634300081c0033",
  "linkReferences": {},
  "deployedLinkReferences": {}
}