{
  "_format": "hh-sol-artifact-1",
  "contractName": "Escrow",
  "sourceName": "contracts/Escrow.sol",
  "abi": [
    {
      "inputs": [
        {
          "internalType": "address",
          "name": "_propertyContract",
          "type": "address"
        },
        {
          "internalType": "uint256",
          "name": "_feeRate",
          "type": "uint256"
        },
        {
          "internalType": "uint256",
          "name": "_timeLimit",
          "type": "uint256"
        }
      ],
      "stateMutability": "nonpayable",
      "type": "constructor"
    },
    {
      "inputs": [],
      "name": "EscrowAlreadyExists",
      "type": "error"
    },
    {
      "inputs": [],
      "name": "EscrowNotActive",
      "type": "error"
    },
    {
      "inputs": [],
      "name": "EscrowNotFound",
      "type": "error"
    },
    {
      "inputs": [],
      "name": "InsufficientFunds",
      "type": "error"
    },
    {
      "inputs": [],
      "name": "InvalidAddress",
      "type": "error"
    },
    {
      "inputs": [],
      "name": "InvalidAmount",
      "type": "error"
    },
    {
      "inputs": [],
      "name": "InvalidEscrowState",
      "type": "error"
    },
    {
      "inputs": [],
      "name": "NFTTransferFailed",
      "type": "error"
    },
    {
      "inputs": [],
      "name": "NotAuthorized",
      "type": "error"
    },
    {
      "inputs": [
        {
          "internalType": "address",
          "name": "owner",
          "type": "address"
        }
      ],
      "name": "OwnableInvalidOwner",
      "type": "error"
    },
    {
      "inputs": [
        {
          "internalType": "address",
          "name": "account",
          "type": "address"
        }
      ],
      "name": "OwnableUnauthorizedAccount",
      "type": "error"
    },
    {
      "inputs": [],
      "name": "ReentrancyGuardReentrantCall",
      "type": "error"
    },
    {
      "inputs": [],
      "name": "TransferFailed",
      "type": "error"
    },
    {
      "anonymous": false,
      "inputs": [
        {
          "indexed": true,
          "internalType": "bytes32",
          "name": "escrowId",
          "type": "bytes32"
        },
        {
          "indexed": false,
          "internalType": "bool",
          "name": "buyerApproved",
          "type": "bool"
        },
        {
          "indexed": false,
          "internalType": "bool",
          "name": "sellerApproved",
          "type": "bool"
        }
      ],
      "name": "ApprovalUpdated",
      "type": "event"
    },
    {
      "anonymous": false,
      "inputs": [
        {
          "indexed": true,
          "internalType": "bytes32",
          "name": "escrowId",
          "type": "bytes32"
        },
        {
          "indexed": false,
          "internalType": "string",
          "name": "reason",
          "type": "string"
        }
      ],
      "name": "EscrowCancelled",
      "type": "event"
    },
    {
      "anonymous": false,
      "inputs": [
        {
          "indexed": true,
          "internalType": "bytes32",
          "name": "escrowId",
          "type": "bytes32"
        },
        {
          "indexed": true,
          "internalType": "address",
          "name": "buyer",
          "type": "address"
        },
        {
          "indexed": true,
          "internalType": "address",
          "name": "seller",
          "type": "address"
        },
        {
          "indexed": false,
          "internalType": "uint256",
          "name": "amount",
          "type": "uint256"
        },
        {
          "indexed": false,
          "internalType": "uint256",
          "name": "fee",
          "type": "uint256"
        }
      ],
      "name": "EscrowCompleted",
      "type": "event"
    },
    {
      "anonymous": false,
      "inputs": [
        {
          "indexed": true,
          "internalType": "bytes32",
          "name": "escrowId",
          "type": "bytes32"
        },
        {
          "indexed": true,
          "internalType": "address",
          "name": "propertyContract",
          "type": "address"
        },
        {
          "indexed": true,
          "internalType": "uint256",
          "name": "tokenId",
          "type": "uint256"
        },
        {
          "indexed": false,
          "internalType": "address",
          "name": "buyer",
          "type": "address"
        },
        {
          "indexed": false,
          "internalType": "address",
          "name": "seller",
          "type": "address"
        },
        {
          "indexed": false,
          "internalType": "uint256",
          "name": "amount",
          "type": "uint256"
        },
        {
          "indexed": false,
          "internalType": "uint256",
          "name": "expiresAt",
          "type": "uint256"
        }
      ],
      "name": "EscrowCreated",
      "type": "event"
    },
    {
      "anonymous": false,
      "inputs": [
        {
          "indexed": true,
          "internalType": "bytes32",
          "name": "escrowId",
          "type": "bytes32"
        },
        {
          "indexed": false,
          "internalType": "address",
          "name": "disputedBy",
          "type": "address"
        },
        {
          "indexed": false,
          "internalType": "string",
          "name": "Reason",
          "type": "string"
        }
      ],
      "name": "EscrowDisputed",
      "type": "event"
    },
    {
      "anonymous": false,
      "inputs": [
        {
          "indexed": true,
          "internalType": "bytes32",
          "name": "escrowId",
          "type": "bytes32"
        },
        {
          "indexed": false,
          "internalType": "enum Escrow.EscrowStatus",
          "name": "resolution",
          "type": "uint8"
        }
      ],
      "name": "EscrowResolved",
      "type": "event"
    },
    {
      "anonymous": false,
      "inputs": [
        {
          "indexed": false,
          "internalType": "uint256",
          "name": "oldRate",
          "type": "uint256"
        },
        {
          "indexed": false,
          "internalType": "uint256",
          "name": "newRate",
          "type": "uint256"
        }
      ],
      "name": "FeeRateUpdated",
      "type": "event"
    },
    {
      "anonymous": false,
      "inputs": [
        {
          "indexed": true,
          "internalType": "bytes32",
          "name": "escrowId",
          "type": "bytes32"
        },
        {
          "indexed": true,
          "internalType": "address",
          "name": "from",
          "type": "address"
        },
        {
          "indexed": false,
          "internalType": "uint256",
          "name": "amount",
          "type": "uint256"
        }
      ],
      "name": "FundsDeposited",
      "type": "event"
    },
    {
      "anonymous": false,
      "inputs": [
        {
          "indexed": true,
          "internalType": "bytes32",
          "name": "escrowId",
          "type": "bytes32"
        },
        {
          "indexed": false,
          "internalType": "bool",
          "name": "passed",
          "type": "bool"
        },
        {
          "indexed": false,
          "internalType": "address",
          "name": "updatedBy",
          "type": "address"
        }
      ],
      "name": "InspectionUpdated",
      "type": "event"
    },
    {
      "anonymous": false,
      "inputs": [
        {
          "indexed": true,
          "internalType": "address",
          "name": "previousOwner",
          "type": "address"
        },
        {
          "indexed": true,
          "internalType": "address",
          "name": "newOwner",
          "type": "address"
        }
      ],
      "name": "OwnershipTransferred",
      "type": "event"
    },
    {
      "anonymous": false,
      "inputs": [
        {
          "indexed": false,
          "internalType": "uint256",
          "name": "oldLimit",
          "type": "uint256"
        },
        {
          "indexed": false,
          "internalType": "uint256",
          "name": "newLimit",
          "type": "uint256"
        }
      ],
      "name": "TimeLimitUpdated",
      "type": "event"
    },
    {
      "stateMutability": "payable",
      "type": "fallback"
    },
    {
      "inputs": [
        {
          "internalType": "bytes32",
          "name": "_escrowId",
          "type": "bytes32"
        }
      ],
      "name": "approveEscrow",
      "outputs": [],
      "stateMutability": "nonpayable",
      "type": "function"
    },
    {
      "inputs": [
        {
          "internalType": "bytes32",
          "name": "_escrowId",
          "type": "bytes32"
        },
        {
          "internalType": "string",
          "name": "_reason",
          "type": "string"
        }
      ],
      "name": "cancelEscrow",
      "outputs": [],
      "stateMutability": "nonpayable",
      "type": "function"
    },
    {
      "inputs": [
        {
          "internalType": "address",
          "name": "_propertyContract",
          "type": "address"
        },
        {
          "internalType": "uint256",
          "name": "_tokenId",
          "type": "uint256"
        },
        {
          "internalType": "address",
          "name": "_seller",
          "type": "address"
        },
        {
          "internalType": "uint256",
          "name": "_price",
          "type": "uint256"
        }
      ],
      "name": "createEscrow",
      "outputs": [
        {
          "internalType": "bytes32",
          "name": "",
          "type": "bytes32"
        }
      ],
      "stateMutability": "nonpayable",
      "type": "function"
    },
    {
      "inputs": [
        {
          "internalType": "bytes32",
          "name": "_escrowId",
          "type": "bytes32"
        }
      ],
      "name": "depositFunds",
      "outputs": [],
      "stateMutability": "payable",
      "type": "function"
    },
    {
      "inputs": [
        {
          "internalType": "bytes32",
          "name": "_escrowId",
          "type": "bytes32"
        },
        {
          "internalType": "string",
          "name": "_reason",
          "type": "string"
        }
      ],
      "name": "disputeEscrow",
      "outputs": [],
      "stateMutability": "nonpayable",
      "type": "function"
    },
    {
      "inputs": [],
      "name": "escrowFeeRate",
      "outputs": [
        {
          "internalType": "uint256",
          "name": "",
          "type": "uint256"
        }
      ],
      "stateMutability": "view",
      "type": "function"
    },
    {
      "inputs": [],
      "name": "escrowTimeLimit",
      "outputs": [
        {
          "internalType": "uint256",
          "name": "",
          "type": "uint256"
        }
      ],
      "stateMutability": "view",
      "type": "function"
    },
    {
      "inputs": [
        {
          "internalType": "bytes32",
          "name": "",
          "type": "bytes32"
        }
      ],
      "name": "escrows",
      "outputs": [
        {
          "internalType": "address",
          "name": "propertyContract",
          "type": "address"
        },
        {
          "internalType": "uint256",
          "name": "tokenId",
          "type": "uint256"
        },
        {
          "internalType": "address",
          "name": "buyer",
          "type": "address"
        },
        {
          "internalType": "address",
          "name": "seller",
          "type": "address"
        },
        {
          "internalType": "uint256",
          "name": "amount",
          "type": "uint256"
        },
        {
          "internalType": "uint256",
          "name": "createdAt",
          "type": "uint256"
        },
        {
          "internalType": "uint256",
          "name": "expiresAt",
          "type": "uint256"
        },
        {
          "internalType": "enum Escrow.EscrowStatus",
          "name": "status",
          "type": "uint8"
        },
        {
          "internalType": "bool",
          "name": "inspectionPassed",
          "type": "bool"
        },
        {
          "internalType": "bool",
          "name": "buyerApproved",
          "type": "bool"
        },
        {
          "internalType": "bool",
          "name": "sellerApproved",
          "type": "bool"
        }
      ],
      "stateMutability": "view",
      "type": "function"
    },
    {
      "inputs": [],
      "name": "getContractBalance",
      "outputs": [
        {
          "internalType": "uint256",
          "name": "",
          "type": "uint256"
        }
      ],
      "stateMutability": "view",
      "type": "function"
    },
    {
      "inputs": [
        {
          "internalType": "bytes32",
          "name": "_escrowId",
          "type": "bytes32"
        }
      ],
      "name": "getEscrowDetails",
      "outputs": [
        {
          "components": [
            {
              "internalType": "address",
              "name": "propertyContract",
              "type": "address"
            },
            {
              "internalType": "uint256",
              "name": "tokenId",
              "type": "uint256"
            },
            {
              "internalType": "address",
              "name": "buyer",
              "type": "address"
            },
            {
              "internalType": "address",
              "name": "seller",
              "type": "address"
            },
            {
              "internalType": "uint256",
              "name": "amount",
              "type": "uint256"
            },
            {
              "internalType": "uint256",
              "name": "createdAt",
              "type": "uint256"
            },
            {
              "internalType": "uint256",
              "name": "expiresAt",
              "type": "uint256"
            },
            {
              "internalType": "enum Escrow.EscrowStatus",
              "name": "status",
              "type": "uint8"
            },
            {
              "internalType": "bool",
              "name": "inspectionPassed",
              "type": "bool"
            },
            {
              "internalType": "bool",
              "name": "buyerApproved",
              "type": "bool"
            },
            {
              "internalType": "bool",
              "name": "sellerApproved",
              "type": "bool"
            }
          ],
          "internalType": "struct Escrow.EscrowDetails",
          "name": "",
          "type": "tuple"
        }
      ],
      "stateMutability": "view",
      "type": "function"
    },
    {
      "inputs": [],
      "name": "owner",
      "outputs": [
        {
          "internalType": "address",
          "name": "",
          "type": "address"
        }
      ],
      "stateMutability": "view",
      "type": "function"
    },
    {
      "inputs": [],
      "name": "propertyContract",
      "outputs": [
        {
          "internalType": "address",
          "name": "",
          "type": "address"
        }
      ],
      "stateMutability": "view",
      "type": "function"
    },
    {
      "inputs": [],
      "name": "renounceOwnership",
      "outputs": [],
      "stateMutability": "nonpayable",
      "type": "function"
    },
    {
      "inputs": [
        {
          "internalType": "bytes32",
          "name": "_escrowId",
          "type": "bytes32"
        },
        {
          "internalType": "enum Escrow.EscrowStatus",
          "name": "_resolution",
          "type": "uint8"
        }
      ],
      "name": "resolveDispute",
      "outputs": [],
      "stateMutability": "nonpayable",
      "type": "function"
    },
    {
      "inputs": [
        {
          "internalType": "address",
          "name": "newOwner",
          "type": "address"
        }
      ],
      "name": "transferOwnership",
      "outputs": [],
      "stateMutability": "nonpayable",
      "type": "function"
    },
    {
      "inputs": [
        {
          "internalType": "uint256",
          "name": "_newFeeRate",
          "type": "uint256"
        }
      ],
      "name": "updateFeeRate",
      "outputs": [],
      "stateMutability": "nonpayable",
      "type": "function"
    },
    {
      "inputs": [
        {
          "internalType": "bytes32",
          "name": "_escrowId",
          "type": "bytes32"
        },
        {
          "internalType": "bool",
          "name": "_passed",
          "type": "bool"
        }
      ],
      "name": "updateInspectionStatus",
      "outputs": [],
      "stateMutability": "nonpayable",
      "type": "function"
    },
    {
      "inputs": [
        {
          "internalType": "uint256",
          "name": "_newTimeLimit",
          "type": "uint256"
        }
      ],
      "name": "updateTimeLimit",
      "outputs": [],
      "stateMutability": "nonpayable",
      "type": "function"
    },
    {
      "stateMutability": "payable",
      "type": "receive"
    }
  ],
  "bytecode": "0x608060405234801561001057600080fd5b50604051613319380380613319833981810160405281019061003291906102be565b33600073ffffffffffffffffffffffffffffffffffffffff168173ffffffffffffffffffffffffffffffffffffffff16036100a55760006040517f1e4fbdf700000000000000000000000000000000000000000000000000000000815260040161009c9190610320565b60405180910390fd5b6100b48161016160201b60201c565b506001808190555082600260006101000a81548173ffffffffffffffffffffffffffffffffffffffff021916908373ffffffffffffffffffffffffffffffffffffffff1602179055506103e8821115610139576040517f2c5211c600000000000000000000000000000000000000000000000000000000815260040160405180910390fd5b81600481905550600081116101515762278d00610153565b805b60058190555050505061033b565b60008060009054906101000a900473ffffffffffffffffffffffffffffffffffffffff169050816000806101000a81548173ffffffffffffffffffffffffffffffffffffffff021916908373ffffffffffffffffffffffffffffffffffffffff1602179055508173ffffffffffffffffffffffffffffffffffffffff168173ffffffffffffffffffffffffffffffffffffffff167f8be0079c531659141344cd1fd0a4f28419497f9722a3daafe3b4186f6b6457e060405160405180910390a35050565b600080fd5b600073ffffffffffffffffffffffffffffffffffffffff82169050919050565b60006102558261022a565b9050919050565b6102658161024a565b811461027057600080fd5b50565b6000815190506102828161025c565b92915050565b6000819050919050565b61029b81610288565b81146102a657600080fd5b50565b6000815190506102b881610292565b92915050565b6000806000606084860312156102d7576102d6610225565b5b60006102e586828701610273565b93505060206102f6868287016102a9565b9250506040610307868287016102a9565b9150509250925092565b61031a8161024a565b82525050565b60006020820190506103356000830184610311565b92915050565b612fcf8061034a6000396000f3fe60806040526004361061010d5760003560e01c80638fca967311610095578063b641237c11610064578063b641237c14610356578063ecdeada91461037f578063f2fde38b146103a8578063f4940f01146103d1578063faf3d83b146103fa5761010e565b80638fca9673146102bd578063945ce82d146102e8578063a312ac9714610304578063a4cd57ab1461032d5761010e565b8063694ebe05116100dc578063694ebe05146101ea5780636f9fb98a14610227578063715018a6146102525780637b84fda5146102695780638da5cb5b146102925761010e565b80631b41c1ff146101105780632d83549c1461013b57806338596b0b1461018257806351a89ce8146101ad5761010e565b5b005b34801561011c57600080fd5b50610125610423565b6040516101329190612413565b60405180910390f35b34801561014757600080fd5b50610162600480360381019061015d9190612478565b610429565b6040516101799b9a99989796959493929190612578565b60405180910390f35b34801561018e57600080fd5b50610197610517565b6040516101a49190612413565b60405180910390f35b3480156101b957600080fd5b506101d460048036038101906101cf9190612478565b61051d565b6040516101e19190612740565b60405180910390f35b3480156101f657600080fd5b50610211600480360381019061020c91906127b4565b610769565b60405161021e919061282a565b60405180910390f35b34801561023357600080fd5b5061023c610cb7565b6040516102499190612413565b60405180910390f35b34801561025e57600080fd5b50610267610cc7565b005b34801561027557600080fd5b50610290600480360381019061028b9190612845565b610cdb565b005b34801561029e57600080fd5b506102a7610d6a565b6040516102b49190612872565b60405180910390f35b3480156102c957600080fd5b506102d2610d93565b6040516102df9190612872565b60405180910390f35b61030260048036038101906102fd9190612478565b610db9565b005b34801561031057600080fd5b5061032b60048036038101906103269190612845565b610f68565b005b34801561033957600080fd5b50610354600480360381019061034f91906129d3565b610ff5565b005b34801561036257600080fd5b5061037d60048036038101906103789190612a54565b6112f3565b005b34801561038b57600080fd5b506103a660048036038101906103a19190612ac0565b61159e565b005b3480156103b457600080fd5b506103cf60048036038101906103ca9190612b00565b6117a5565b005b3480156103dd57600080fd5b506103f860048036038101906103f39190612478565b61182b565b005b34801561040657600080fd5b50610421600480360381019061041c91906129d3565b611a9b565b005b60055481565b60036020528060005260406000206000915090508060000160009054906101000a900473ffffffffffffffffffffffffffffffffffffffff16908060010154908060020160009054906101000a900473ffffffffffffffffffffffffffffffffffffffff16908060030160009054906101000a900473ffffffffffffffffffffffffffffffffffffffff16908060040154908060050154908060060154908060070160009054906101000a900460ff16908060070160019054906101000a900460ff16908060070160029054906101000a900460ff16908060070160039054906101000a900460ff1690508b565b60045481565b610525612346565b600060036000848152602001908152602001600020604051806101600160405290816000820160009054906101000a900473ffffffffffffffffffffffffffffffffffffffff1673ffffffffffffffffffffffffffffffffffffffff1673ffffffffffffffffffffffffffffffffffffffff168152602001600182015481526020016002820160009054906101000a900473ffffffffffffffffffffffffffffffffffffffff1673ffffffffffffffffffffffffffffffffffffffff1673ffffffffffffffffffffffffffffffffffffffff1681526020016003820160009054906101000a900473ffffffffffffffffffffffffffffffffffffffff1673ffffffffffffffffffffffffffffffffffffffff1673ffffffffffffffffffffffffffffffffffffffff1681526020016004820154815260200160058201548152602001600682015481526020016007820160009054906101000a900460ff166004811115610695576106946124e6565b5b60048111156106a7576106a66124e6565b5b81526020016007820160019054906101000a900460ff161515151581526020016007820160029054906101000a900460ff161515151581526020016007820160039054906101000a900460ff161515151581525050905060006004811115610712576107116124e6565b5b8160e001516004811115610729576107286124e6565b5b03610760576040517ff1d80ab100000000000000000000000000000000000000000000000000000000815260040160405180910390fd5b80915050919050565b6000610773611cb3565b600073ffffffffffffffffffffffffffffffffffffffff168573ffffffffffffffffffffffffffffffffffffffff1614806107da5750600073ffffffffffffffffffffffffffffffffffffffff168373ffffffffffffffffffffffffffffffffffffffff16145b15610811576040517fe6c4247b00000000000000000000000000000000000000000000000000000000815260040160405180910390fd5b6000820361084b576040517f2c5211c600000000000000000000000000000000000000000000000000000000815260040160405180910390fd5b60008573ffffffffffffffffffffffffffffffffffffffff16636352211e866040518263ffffffff1660e01b81526004016108869190612413565b602060405180830381865afa1580156108a3573d6000803e3d6000fd5b505050506040513d601f19601f820116820180604052508101906108c79190612b42565b90508373ffffffffffffffffffffffffffffffffffffffff168173ffffffffffffffffffffffffffffffffffffffff161461092e576040517fea8e4eb500000000000000000000000000000000000000000000000000000000815260040160405180910390fd5b60008686338742604051602001610949959493929190612bd8565b60405160208183030381529060405280519060200120905060006004811115610975576109746124e6565b5b6003600083815260200190815260200160002060070160009054906101000a900460ff1660048111156109ab576109aa6124e6565b5b146109e2576040517fed77877900000000000000000000000000000000000000000000000000000000815260040160405180910390fd5b6040518061016001604052808873ffffffffffffffffffffffffffffffffffffffff1681526020018781526020013373ffffffffffffffffffffffffffffffffffffffff1681526020018673ffffffffffffffffffffffffffffffffffffffff16815260200185815260200142815260200160055442610a629190612c66565b815260200160016004811115610a7b57610a7a6124e6565b5b8152602001600015158152602001600015158152602001600015158152506003600083815260200190815260200160002060008201518160000160006101000a81548173ffffffffffffffffffffffffffffffffffffffff021916908373ffffffffffffffffffffffffffffffffffffffff1602179055506020820151816001015560408201518160020160006101000a81548173ffffffffffffffffffffffffffffffffffffffff021916908373ffffffffffffffffffffffffffffffffffffffff16021790555060608201518160030160006101000a81548173ffffffffffffffffffffffffffffffffffffffff021916908373ffffffffffffffffffffffffffffffffffffffff1602179055506080820151816004015560a0820151816005015560c0820151816006015560e08201518160070160006101000a81548160ff02191690836004811115610bd457610bd36124e6565b5b02179055506101008201518160070160016101000a81548160ff0219169083151502179055506101208201518160070160026101000a81548160ff0219169083151502179055506101408201518160070160036101000a81548160ff021916908315150217905550905050858773ffffffffffffffffffffffffffffffffffffffff16827f2f967cdc46d14d14b15cfb70fe20984062b300dc9df8322fcbd326fa5560599b33898960055442610c8a9190612c66565b604051610c9a9493929190612c9a565b60405180910390a48092505050610caf611cf9565b949350505050565b6000610cc1611d02565b47905090565b610ccf611d02565b610cd96000611d89565b565b610ce3611d02565b6103e8811115610d1f576040517f2c5211c600000000000000000000000000000000000000000000000000000000815260040160405180910390fd5b60006004549050816004819055507f14914da2bf76024616fbe1859783fcd4dbddcb179b1f3a854949fbf920dcb9578183604051610d5e929190612cdf565b60405180910390a15050565b60008060009054906101000a900473ffffffffffffffffffffffffffffffffffffffff16905090565b600260009054906101000a900473ffffffffffffffffffffffffffffffffffffffff1681565b610dc1611cb3565b600060036000838152602001908152602001600020905060016004811115610dec57610deb6124e6565b5b8160070160009054906101000a900460ff166004811115610e1057610e0f6124e6565b5b14610e47576040517f692bfa7f00000000000000000000000000000000000000000000000000000000815260040160405180910390fd5b8060020160009054906101000a900473ffffffffffffffffffffffffffffffffffffffff1673ffffffffffffffffffffffffffffffffffffffff163373ffffffffffffffffffffffffffffffffffffffff1614610ed0576040517fea8e4eb500000000000000000000000000000000000000000000000000000000815260040160405180910390fd5b80600401543414610f0d576040517f2c5211c600000000000000000000000000000000000000000000000000000000815260040160405180910390fd5b3373ffffffffffffffffffffffffffffffffffffffff16827f6221f2b1a766e0a60a83a05c2ca8be3bf4b8028dbcb5b67624f5392a07372ae334604051610f549190612413565b60405180910390a350610f65611cf9565b50565b610f70611d02565b60008103610faa576040517f2c5211c600000000000000000000000000000000000000000000000000000000815260040160405180910390fd5b60006005549050816005819055507ff80d1fa1cd2e7958f8bb480c27f4517d14d8986cb81f9095b5a6857c50074a7d8183604051610fe9929190612cdf565b60405180910390a15050565b610ffd611cb3565b600060036000848152602001908152602001600020905060016004811115611028576110276124e6565b5b8160070160009054906101000a900460ff16600481111561104c5761104b6124e6565b5b14611083576040517f692bfa7f00000000000000000000000000000000000000000000000000000000815260040160405180910390fd5b8060020160009054906101000a900473ffffffffffffffffffffffffffffffffffffffff1673ffffffffffffffffffffffffffffffffffffffff163373ffffffffffffffffffffffffffffffffffffffff161415801561113357508060030160009054906101000a900473ffffffffffffffffffffffffffffffffffffffff1673ffffffffffffffffffffffffffffffffffffffff163373ffffffffffffffffffffffffffffffffffffffff1614155b80156111725750611142610d6a565b73ffffffffffffffffffffffffffffffffffffffff163373ffffffffffffffffffffffffffffffffffffffff1614155b156111a9576040517fea8e4eb500000000000000000000000000000000000000000000000000000000815260040160405180910390fd5b60038160070160006101000a81548160ff021916908360048111156111d1576111d06124e6565b5b0217905550600047905060008111156112ad5760008260020160009054906101000a900473ffffffffffffffffffffffffffffffffffffffff1673ffffffffffffffffffffffffffffffffffffffff168260405161122e90612d39565b60006040518083038185875af1925050503d806000811461126b576040519150601f19603f3d011682016040523d82523d6000602084013e611270565b606091505b50509050806112ab576040517f90b8ec1800000000000000000000000000000000000000000000000000000000815260040160405180910390fd5b505b837fe173efa1002dc96426573f832df7b93111bd0400b4e61ba7b2edd306b8e1f0e7846040516112dd9190612dcd565b60405180910390a250506112ef611cf9565b5050565b6112fb611d02565b611303611cb3565b600060036000848152602001908152602001600020905060048081111561132d5761132c6124e6565b5b8160070160009054906101000a900460ff166004811115611351576113506124e6565b5b14611388576040517fa891029a00000000000000000000000000000000000000000000000000000000815260040160405180910390fd5b6002600481111561139c5761139b6124e6565b5b8260048111156113af576113ae6124e6565b5b141580156113e25750600360048111156113cc576113cb6124e6565b5b8260048111156113df576113de6124e6565b5b14155b15611419576040517fa891029a00000000000000000000000000000000000000000000000000000000815260040160405180910390fd5b6002600481111561142d5761142c6124e6565b5b8260048111156114405761143f6124e6565b5b036114535761144e83611e4d565b611559565b60038160070160006101000a81548160ff0219169083600481111561147b5761147a6124e6565b5b0217905550600047905060008111156115575760008260020160009054906101000a900473ffffffffffffffffffffffffffffffffffffffff1673ffffffffffffffffffffffffffffffffffffffff16826040516114d890612d39565b60006040518083038185875af1925050503d8060008114611515576040519150601f19603f3d011682016040523d82523d6000602084013e61151a565b606091505b5050905080611555576040517f90b8ec1800000000000000000000000000000000000000000000000000000000815260040160405180910390fd5b505b505b827f08d7139721d952b5676c8c0f188e3a33f9b1abc36bb5e30618d4bca264807c12836040516115899190612def565b60405180910390a25061159a611cf9565b5050565b6000600360008481526020019081526020016000209050600160048111156115c9576115c86124e6565b5b8160070160009054906101000a900460ff1660048111156115ed576115ec6124e6565b5b14611624576040517f692bfa7f00000000000000000000000000000000000000000000000000000000815260040160405180910390fd5b8060020160009054906101000a900473ffffffffffffffffffffffffffffffffffffffff1673ffffffffffffffffffffffffffffffffffffffff163373ffffffffffffffffffffffffffffffffffffffff16141580156116d457508060030160009054906101000a900473ffffffffffffffffffffffffffffffffffffffff1673ffffffffffffffffffffffffffffffffffffffff163373ffffffffffffffffffffffffffffffffffffffff1614155b801561171357506116e3610d6a565b73ffffffffffffffffffffffffffffffffffffffff163373ffffffffffffffffffffffffffffffffffffffff1614155b1561174a576040517fea8e4eb500000000000000000000000000000000000000000000000000000000815260040160405180910390fd5b818160070160016101000a81548160ff021916908315150217905550827f12f1165af94749a130428adc5932b4a4e3e284b601f0ef51d7d43b57ff1560648333604051611798929190612e0a565b60405180910390a2505050565b6117ad611d02565b600073ffffffffffffffffffffffffffffffffffffffff168173ffffffffffffffffffffffffffffffffffffffff160361181f5760006040517f1e4fbdf70000000000000000000000000000000000000000000000000000000081526004016118169190612872565b60405180910390fd5b61182881611d89565b50565b611833611cb3565b60006003600083815260200190815260200160002090506001600481111561185e5761185d6124e6565b5b8160070160009054906101000a900460ff166004811115611882576118816124e6565b5b146118b9576040517f692bfa7f00000000000000000000000000000000000000000000000000000000815260040160405180910390fd5b8060020160009054906101000a900473ffffffffffffffffffffffffffffffffffffffff1673ffffffffffffffffffffffffffffffffffffffff163373ffffffffffffffffffffffffffffffffffffffff16036119325760018160070160026101000a81548160ff0219169083151502179055506119de565b8060030160009054906101000a900473ffffffffffffffffffffffffffffffffffffffff1673ffffffffffffffffffffffffffffffffffffffff163373ffffffffffffffffffffffffffffffffffffffff16036119ab5760018160070160036101000a81548160ff0219169083151502179055506119dd565b6040517fea8e4eb500000000000000000000000000000000000000000000000000000000815260040160405180910390fd5b5b817fa3a94e80a3d87c39a60962995d90c8ce0eb3aee0151bac3997a97a6aa5abaf5f8260070160029054906101000a900460ff168360070160039054906101000a900460ff16604051611a32929190612e33565b60405180910390a28060070160029054906101000a900460ff168015611a6657508060070160039054906101000a900460ff165b8015611a8057508060070160019054906101000a900460ff165b15611a8f57611a8e82611e4d565b5b50611a98611cf9565b50565b600060036000848152602001908152602001600020905060016004811115611ac657611ac56124e6565b5b8160070160009054906101000a900460ff166004811115611aea57611ae96124e6565b5b14611b21576040517f692bfa7f00000000000000000000000000000000000000000000000000000000815260040160405180910390fd5b8060020160009054906101000a900473ffffffffffffffffffffffffffffffffffffffff1673ffffffffffffffffffffffffffffffffffffffff163373ffffffffffffffffffffffffffffffffffffffff1614158015611bd157508060030160009054906101000a900473ffffffffffffffffffffffffffffffffffffffff1673ffffffffffffffffffffffffffffffffffffffff163373ffffffffffffffffffffffffffffffffffffffff1614155b8015611c105750611be0610d6a565b73ffffffffffffffffffffffffffffffffffffffff163373ffffffffffffffffffffffffffffffffffffffff1614155b15611c47576040517fea8e4eb500000000000000000000000000000000000000000000000000000000815260040160405180910390fd5b60048160070160006101000a81548160ff02191690836004811115611c6f57611c6e6124e6565b5b0217905550827f85df63e82b1c4b692591e851fd05ac7c87d4dd28557d780c47c462a11f64e0c83384604051611ca6929190612e5c565b60405180910390a2505050565b600260015403611cef576040517f3ee5aeb500000000000000000000000000000000000000000000000000000000815260040160405180910390fd5b6002600181905550565b60018081905550565b611d0a61233e565b73ffffffffffffffffffffffffffffffffffffffff16611d28610d6a565b73ffffffffffffffffffffffffffffffffffffffff1614611d8757611d4b61233e565b6040517f118cdaa7000000000000000000000000000000000000000000000000000000008152600401611d7e9190612872565b60405180910390fd5b565b60008060009054906101000a900473ffffffffffffffffffffffffffffffffffffffff169050816000806101000a81548173ffffffffffffffffffffffffffffffffffffffff021916908373ffffffffffffffffffffffffffffffffffffffff1602179055508173ffffffffffffffffffffffffffffffffffffffff168173ffffffffffffffffffffffffffffffffffffffff167f8be0079c531659141344cd1fd0a4f28419497f9722a3daafe3b4186f6b6457e060405160405180910390a35050565b600060036000838152602001908152602001600020905060016004811115611e7857611e776124e6565b5b8160070160009054906101000a900460ff166004811115611e9c57611e9b6124e6565b5b14611ed3576040517f692bfa7f00000000000000000000000000000000000000000000000000000000815260040160405180910390fd5b8060070160029054906101000a900460ff161580611f0057508060070160039054906101000a900460ff16155b80611f1a57508060070160019054906101000a900460ff16155b15611f51576040517fa891029a00000000000000000000000000000000000000000000000000000000815260040160405180910390fd5b60004790508160040154811015611f94576040517f356680b700000000000000000000000000000000000000000000000000000000815260040160405180910390fd5b60006127106004548460040154611fab9190612e8c565b611fb59190612efd565b90506000818460040154611fc99190612f2e565b905060028460070160006101000a81548160ff02191690836004811115611ff357611ff26124e6565b5b02179055508360000160009054906101000a900473ffffffffffffffffffffffffffffffffffffffff1673ffffffffffffffffffffffffffffffffffffffff166323b872dd8560030160009054906101000a900473ffffffffffffffffffffffffffffffffffffffff168660020160009054906101000a900473ffffffffffffffffffffffffffffffffffffffff1687600101546040518463ffffffff1660e01b81526004016120a593929190612f62565b600060405180830381600087803b1580156120bf57600080fd5b505af19250505080156120d0575060015b612106576040517f4605c59800000000000000000000000000000000000000000000000000000000815260040160405180910390fd5b60008460030160009054906101000a900473ffffffffffffffffffffffffffffffffffffffff1673ffffffffffffffffffffffffffffffffffffffff168260405161215090612d39565b60006040518083038185875af1925050503d806000811461218d576040519150601f19603f3d011682016040523d82523d6000602084013e612192565b606091505b50509050806121cd576040517f90b8ec1800000000000000000000000000000000000000000000000000000000815260040160405180910390fd5b60008311156122825760006121e0610d6a565b73ffffffffffffffffffffffffffffffffffffffff168460405161220390612d39565b60006040518083038185875af1925050503d8060008114612240576040519150601f19603f3d011682016040523d82523d6000602084013e612245565b606091505b5050905080612280576040517f90b8ec1800000000000000000000000000000000000000000000000000000000815260040160405180910390fd5b505b8460030160009054906101000a900473ffffffffffffffffffffffffffffffffffffffff1673ffffffffffffffffffffffffffffffffffffffff168560020160009054906101000a900473ffffffffffffffffffffffffffffffffffffffff1673ffffffffffffffffffffffffffffffffffffffff16877f01028ac1cb8bdca71170b372b533230e6e528d155bc10b1b71aa4bcc3c04070088600401548760405161232e929190612cdf565b60405180910390a4505050505050565b600033905090565b604051806101600160405280600073ffffffffffffffffffffffffffffffffffffffff16815260200160008152602001600073ffffffffffffffffffffffffffffffffffffffff168152602001600073ffffffffffffffffffffffffffffffffffffffff168152602001600081526020016000815260200160008152602001600060048111156123d9576123d86124e6565b5b81526020016000151581526020016000151581526020016000151581525090565b6000819050919050565b61240d816123fa565b82525050565b60006020820190506124286000830184612404565b92915050565b6000604051905090565b600080fd5b600080fd5b6000819050919050565b61245581612442565b811461246057600080fd5b50565b6000813590506124728161244c565b92915050565b60006020828403121561248e5761248d612438565b5b600061249c84828501612463565b91505092915050565b600073ffffffffffffffffffffffffffffffffffffffff82169050919050565b60006124d0826124a5565b9050919050565b6124e0816124c5565b82525050565b7f4e487b7100000000000000000000000000000000000000000000000000000000600052602160045260246000fd5b60058110612526576125256124e6565b5b50565b600081905061253782612515565b919050565b600061254782612529565b9050919050565b6125578161253c565b82525050565b60008115159050919050565b6125728161255d565b82525050565b60006101608201905061258e600083018e6124d7565b61259b602083018d612404565b6125a8604083018c6124d7565b6125b5606083018b6124d7565b6125c2608083018a612404565b6125cf60a0830189612404565b6125dc60c0830188612404565b6125e960e083018761254e565b6125f7610100830186612569565b612605610120830185612569565b612613610140830184612569565b9c9b505050505050505050505050565b61262c816124c5565b82525050565b61263b816123fa565b82525050565b61264a8161253c565b82525050565b6126598161255d565b82525050565b610160820160008201516126766000850182612623565b5060208201516126896020850182612632565b50604082015161269c6040850182612623565b5060608201516126af6060850182612623565b5060808201516126c26080850182612632565b5060a08201516126d560a0850182612632565b5060c08201516126e860c0850182612632565b5060e08201516126fb60e0850182612641565b50610100820151612710610100850182612650565b50610120820151612725610120850182612650565b5061014082015161273a610140850182612650565b50505050565b600061016082019050612756600083018461265f565b92915050565b612765816124c5565b811461277057600080fd5b50565b6000813590506127828161275c565b92915050565b612791816123fa565b811461279c57600080fd5b50565b6000813590506127ae81612788565b92915050565b600080600080608085870312156127ce576127cd612438565b5b60006127dc87828801612773565b94505060206127ed8782880161279f565b93505060406127fe87828801612773565b925050606061280f8782880161279f565b91505092959194509250565b61282481612442565b82525050565b600060208201905061283f600083018461281b565b92915050565b60006020828403121561285b5761285a612438565b5b60006128698482850161279f565b91505092915050565b600060208201905061288760008301846124d7565b92915050565b600080fd5b600080fd5b6000601f19601f8301169050919050565b7f4e487b7100000000000000000000000000000000000000000000000000000000600052604160045260246000fd5b6128e082612897565b810181811067ffffffffffffffff821117156128ff576128fe6128a8565b5b80604052505050565b600061291261242e565b905061291e82826128d7565b919050565b600067ffffffffffffffff82111561293e5761293d6128a8565b5b61294782612897565b9050602081019050919050565b82818337600083830152505050565b600061297661297184612923565b612908565b90508281526020810184848401111561299257612991612892565b5b61299d848285612954565b509392505050565b600082601f8301126129ba576129b961288d565b5b81356129ca848260208601612963565b91505092915050565b600080604083850312156129ea576129e9612438565b5b60006129f885828601612463565b925050602083013567ffffffffffffffff811115612a1957612a1861243d565b5b612a25858286016129a5565b9150509250929050565b60058110612a3c57600080fd5b50565b600081359050612a4e81612a2f565b92915050565b60008060408385031215612a6b57612a6a612438565b5b6000612a7985828601612463565b9250506020612a8a85828601612a3f565b9150509250929050565b612a9d8161255d565b8114612aa857600080fd5b50565b600081359050612aba81612a94565b92915050565b60008060408385031215612ad757612ad6612438565b5b6000612ae585828601612463565b9250506020612af685828601612aab565b9150509250929050565b600060208284031215612b1657612b15612438565b5b6000612b2484828501612773565b91505092915050565b600081519050612b3c8161275c565b92915050565b600060208284031215612b5857612b57612438565b5b6000612b6684828501612b2d565b91505092915050565b60008160601b9050919050565b6000612b8782612b6f565b9050919050565b6000612b9982612b7c565b9050919050565b612bb1612bac826124c5565b612b8e565b82525050565b6000819050919050565b612bd2612bcd826123fa565b612bb7565b82525050565b6000612be48288612ba0565b601482019150612bf48287612bc1565b602082019150612c048286612ba0565b601482019150612c148285612ba0565b601482019150612c248284612bc1565b6020820191508190509695505050505050565b7f4e487b7100000000000000000000000000000000000000000000000000000000600052601160045260246000fd5b6000612c71826123fa565b9150612c7c836123fa565b9250828201905080821115612c9457612c93612c37565b5b92915050565b6000608082019050612caf60008301876124d7565b612cbc60208301866124d7565b612cc96040830185612404565b612cd66060830184612404565b95945050505050565b6000604082019050612cf46000830185612404565b612d016020830184612404565b9392505050565b600081905092915050565b50565b6000612d23600083612d08565b9150612d2e82612d13565b600082019050919050565b6000612d4482612d16565b9150819050919050565b600081519050919050565b600082825260208201905092915050565b60005b83811015612d88578082015181840152602081019050612d6d565b60008484015250505050565b6000612d9f82612d4e565b612da98185612d59565b9350612db9818560208601612d6a565b612dc281612897565b840191505092915050565b60006020820190508181036000830152612de78184612d94565b905092915050565b6000602082019050612e04600083018461254e565b92915050565b6000604082019050612e1f6000830185612569565b612e2c60208301846124d7565b9392505050565b6000604082019050612e486000830185612569565b612e556020830184612569565b9392505050565b6000604082019050612e7160008301856124d7565b8181036020830152612e838184612d94565b90509392505050565b6000612e97826123fa565b9150612ea2836123fa565b9250828202612eb0816123fa565b91508282048414831517612ec757612ec6612c37565b5b5092915050565b7f4e487b7100000000000000000000000000000000000000000000000000000000600052601260045260246000fd5b6000612f08826123fa565b9150612f13836123fa565b925082612f2357612f22612ece565b5b828204905092915050565b6000612f39826123fa565b9150612f44836123fa565b9250828203905081811115612f5c57612f5b612c37565b5b92915050565b6000606082019050612f7760008301866124d7565b612f8460208301856124d7565b612f916040830184612404565b94935050505056fea26469706673582212201d4ce40b06ae14a2cfa461fe31cecb8675050ef64493c525a01184232eb5a04464736f6c634300081c0033",
  "linkReferences": {},
  "deployedLinkReferences": {}
}