{
  "_format": "hh-sol-artifact-1",
  "contractName": "Property",
  "sourceName": "contracts/Property.sol",
  "abi": [
    {
      "inputs": [
        {
          "internalType": "string",
          "name": "name",
          "type": "string"
        },
        {
          "internalType": "string",
          "name": "symbol",
          "type": "string"
        },
        {
          "internalType": "address",
          "name": "initialOwner",
          "type": "address"
        },
        {
          "internalType": "uint24",
          "name": "royaltyBasisPoints",
          "type": "uint24"
        }
      ],
      "stateMutability": "nonpayable",
      "type": "constructor"
    },
    {
      "inputs": [
        {
          "internalType": "address",
          "name": "sender",
          "type": "address"
        },
        {
          "internalType": "uint256",
          "name": "tokenId",
          "type": "uint256"
        },
        {
          "internalType": "address",
          "name": "owner",
          "type": "address"
        }
      ],
      "name": "ERC721IncorrectOwner",
      "type": "error"
    },
    {
      "inputs": [
        {
          "internalType": "address",
          "name": "operator",
          "type": "address"
        },
        {
          "internalType": "uint256",
          "name": "tokenId",
          "type": "uint256"
        }
      ],
      "name": "ERC721InsufficientApproval",
      "type": "error"
    },
    {
      "inputs": [
        {
          "internalType": "address",
          "name": "approver",
          "type": "address"
        }
      ],
      "name": "ERC721InvalidApprover",
      "type": "error"
    },
    {
      "inputs": [
        {
          "internalType": "address",
          "name": "operator",
          "type": "address"
        }
      ],
      "name": "ERC721InvalidOperator",
      "type": "error"
    },
    {
      "inputs": [
        {
          "internalType": "address",
          "name": "owner",
          "type": "address"
        }
      ],
      "name": "ERC721InvalidOwner",
      "type": "error"
    },
    {
      "inputs": [
        {
          "internalType": "address",
          "name": "receiver",
          "type": "address"
        }
      ],
      "name": "ERC721InvalidReceiver",
      "type": "error"
    },
    {
      "inputs": [
        {
          "internalType": "address",
          "name": "sender",
          "type": "address"
        }
      ],
      "name": "ERC721InvalidSender",
      "type": "error"
    },
    {
      "inputs": [
        {
          "internalType": "uint256",
          "name": "tokenId",
          "type": "uint256"
        }
      ],
      "name": "ERC721NonexistentToken",
      "type": "error"
    },
    {
      "inputs": [],
      "name": "IncorrectPayment",
      "type": "error"
    },
    {
      "inputs": [],
      "name": "InvalidInput",
      "type": "error"
    },
    {
      "inputs": [],
      "name": "NotOwner",
      "type": "error"
    },
    {
      "inputs": [
        {
          "internalType": "address",
          "name": "owner",
          "type": "address"
        }
      ],
      "name": "OwnableInvalidOwner",
      "type": "error"
    },
    {
      "inputs": [
        {
          "internalType": "address",
          "name": "account",
          "type": "address"
        }
      ],
      "name": "OwnableUnauthorizedAccount",
      "type": "error"
    },
    {
      "inputs": [],
      "name": "PropertyNotForSale",
      "type": "error"
    },
    {
      "inputs": [],
      "name": "ReentrancyGuardReentrantCall",
      "type": "error"
    },
    {
      "inputs": [],
      "name": "TransferFailed",
      "type": "error"
    },
    {
      "anonymous": false,
      "inputs": [
        {
          "indexed": true,
          "internalType": "address",
          "name": "owner",
          "type": "address"
        },
        {
          "indexed": true,
          "internalType": "address",
          "name": "approved",
          "type": "address"
        },
        {
          "indexed": true,
          "internalType": "uint256",
          "name": "tokenId",
          "type": "uint256"
        }
      ],
      "name": "Approval",
      "type": "event"
    },
    {
      "anonymous": false,
      "inputs": [
        {
          "indexed": true,
          "internalType": "address",
          "name": "owner",
          "type": "address"
        },
        {
          "indexed": true,
          "internalType": "address",
          "name": "operator",
          "type": "address"
        },
        {
          "indexed": false,
          "internalType": "bool",
          "name": "approved",
          "type": "bool"
        }
      ],
      "name": "ApprovalForAll",
      "type": "event"
    },
    {
      "anonymous": false,
      "inputs": [
        {
          "indexed": false,
          "internalType": "uint256",
          "name": "_fromTokenId",
          "type": "uint256"
        },
        {
          "indexed": false,
          "internalType": "uint256",
          "name": "_toTokenId",
          "type": "uint256"
        }
      ],
      "name": "BatchMetadataUpdate",
      "type": "event"
    },
    {
      "anonymous": false,
      "inputs": [
        {
          "indexed": false,
          "internalType": "uint256",
          "name": "_tokenId",
          "type": "uint256"
        }
      ],
      "name": "MetadataUpdate",
      "type": "event"
    },
    {
      "anonymous": false,
      "inputs": [
        {
          "indexed": true,
          "internalType": "address",
          "name": "previousOwner",
          "type": "address"
        },
        {
          "indexed": true,
          "internalType": "address",
          "name": "newOwner",
          "type": "address"
        }
      ],
      "name": "OwnershipTransferred",
      "type": "event"
    },
    {
      "anonymous": false,
      "inputs": [
        {
          "indexed": true,
          "internalType": "uint256",
          "name": "tokenId",
          "type": "uint256"
        },
        {
          "indexed": true,
          "internalType": "address",
          "name": "owner",
          "type": "address"
        },
        {
          "indexed": false,
          "internalType": "uint256",
          "name": "price",
          "type": "uint256"
        }
      ],
      "name": "PropertyListed",
      "type": "event"
    },
    {
      "anonymous": false,
      "inputs": [
        {
          "indexed": true,
          "internalType": "uint256",
          "name": "tokenId",
          "type": "uint256"
        },
        {
          "indexed": false,
          "internalType": "uint256",
          "name": "oldPrice",
          "type": "uint256"
        },
        {
          "indexed": false,
          "internalType": "uint256",
          "name": "newPrice",
          "type": "uint256"
        }
      ],
      "name": "PropertyPriceChanged",
      "type": "event"
    },
    {
      "anonymous": false,
      "inputs": [
        {
          "indexed": true,
          "internalType": "uint256",
          "name": "tokenId",
          "type": "uint256"
        },
        {
          "indexed": true,
          "internalType": "address",
          "name": "oldOwner",
          "type": "address"
        },
        {
          "indexed": true,
          "internalType": "address",
          "name": "newOwner",
          "type": "address"
        },
        {
          "indexed": false,
          "internalType": "uint256",
          "name": "price",
          "type": "uint256"
        }
      ],
      "name": "PropertySold",
      "type": "event"
    },
    {
      "anonymous": false,
      "inputs": [
        {
          "indexed": true,
          "internalType": "uint256",
          "name": "tokenId",
          "type": "uint256"
        },
        {
          "indexed": false,
          "internalType": "enum Property.PropertyStatus",
          "name": "status",
          "type": "uint8"
        }
      ],
      "name": "PropertyStatusChanged",
      "type": "event"
    },
    {
      "anonymous": false,
      "inputs": [
        {
          "indexed": true,
          "internalType": "address",
          "name": "from",
          "type": "address"
        },
        {
          "indexed": true,
          "internalType": "address",
          "name": "to",
          "type": "address"
        },
        {
          "indexed": true,
          "internalType": "uint256",
          "name": "tokenId",
          "type": "uint256"
        }
      ],
      "name": "Transfer",
      "type": "event"
    },
    {
      "inputs": [],
      "name": "ROYALTY_BASIS",
      "outputs": [
        {
          "internalType": "uint256",
          "name": "",
          "type": "uint256"
        }
      ],
      "stateMutability": "view",
      "type": "function"
    },
    {
      "inputs": [
        {
          "internalType": "uint256",
          "name": "",
          "type": "uint256"
        }
      ],
      "name": "_propertyDetails",
      "outputs": [
        {
          "internalType": "string",
          "name": "location",
          "type": "string"
        },
        {
          "internalType": "uint256",
          "name": "price",
          "type": "uint256"
        },
        {
          "internalType": "uint32",
          "name": "sqFootage",
          "type": "uint32"
        },
        {
          "internalType": "uint16",
          "name": "yearBuilt",
          "type": "uint16"
        },
        {
          "internalType": "uint8",
          "name": "bedrooms",
          "type": "uint8"
        },
        {
          "internalType": "uint8",
          "name": "bathrooms",
          "type": "uint8"
        },
        {
          "internalType": "enum Property.PropertyStatus",
          "name": "status",
          "type": "uint8"
        }
      ],
      "stateMutability": "view",
      "type": "function"
    },
    {
      "inputs": [
        {
          "internalType": "address",
          "name": "to",
          "type": "address"
        },
        {
          "internalType": "uint256",
          "name": "tokenId",
          "type": "uint256"
        }
      ],
      "name": "approve",
      "outputs": [],
      "stateMutability": "nonpayable",
      "type": "function"
    },
    {
      "inputs": [
        {
          "internalType": "address",
          "name": "owner",
          "type": "address"
        }
      ],
      "name": "balanceOf",
      "outputs": [
        {
          "internalType": "uint256",
          "name": "",
          "type": "uint256"
        }
      ],
      "stateMutability": "view",
      "type": "function"
    },
    {
      "inputs": [
        {
          "internalType": "uint256",
          "name": "tokenId",
          "type": "uint256"
        }
      ],
      "name": "buyProperty",
      "outputs": [],
      "stateMutability": "payable",
      "type": "function"
    },
    {
      "inputs": [
        {
          "internalType": "string",
          "name": "tokenURI",
          "type": "string"
        },
        {
          "internalType": "string",
          "name": "location",
          "type": "string"
        },
        {
          "internalType": "uint256",
          "name": "price",
          "type": "uint256"
        },
        {
          "internalType": "uint256",
          "name": "sqFootage",
          "type": "uint256"
        },
        {
          "internalType": "uint256",
          "name": "bedrooms",
          "type": "uint256"
        },
        {
          "internalType": "uint256",
          "name": "bathrooms",
          "type": "uint256"
        },
        {
          "internalType": "uint256",
          "name": "yearBuilt",
          "type": "uint256"
        }
      ],
      "name": "createProperty",
      "outputs": [
        {
          "internalType": "uint256",
          "name": "",
          "type": "uint256"
        }
      ],
      "stateMutability": "nonpayable",
      "type": "function"
    },
    {
      "inputs": [
        {
          "internalType": "uint256",
          "name": "tokenId",
          "type": "uint256"
        }
      ],
      "name": "getApproved",
      "outputs": [
        {
          "internalType": "address",
          "name": "",
          "type": "address"
        }
      ],
      "stateMutability": "view",
      "type": "function"
    },
    {
      "inputs": [
        {
          "internalType": "uint256",
          "name": "tokenId",
          "type": "uint256"
        }
      ],
      "name": "getPropertyDetails",
      "outputs": [
        {
          "components": [
            {
              "internalType": "string",
              "name": "location",
              "type": "string"
            },
            {
              "internalType": "uint256",
              "name": "price",
              "type": "uint256"
            },
            {
              "internalType": "uint32",
              "name": "sqFootage",
              "type": "uint32"
            },
            {
              "internalType": "uint16",
              "name": "yearBuilt",
              "type": "uint16"
            },
            {
              "internalType": "uint8",
              "name": "bedrooms",
              "type": "uint8"
            },
            {
              "internalType": "uint8",
              "name": "bathrooms",
              "type": "uint8"
            },
            {
              "internalType": "enum Property.PropertyStatus",
              "name": "status",
              "type": "uint8"
            }
          ],
          "internalType": "struct Property.PropertyDetails",
          "name": "",
          "type": "tuple"
        }
      ],
      "stateMutability": "view",
      "type": "function"
    },
    {
      "inputs": [
        {
          "internalType": "address",
          "name": "owner",
          "type": "address"
        },
        {
          "internalType": "address",
          "name": "operator",
          "type": "address"
        }
      ],
      "name": "isApprovedForAll",
      "outputs": [
        {
          "internalType": "bool",
          "name": "",
          "type": "bool"
        }
      ],
      "stateMutability": "view",
      "type": "function"
    },
    {
      "inputs": [],
      "name": "name",
      "outputs": [
        {
          "internalType": "string",
          "name": "",
          "type": "string"
        }
      ],
      "stateMutability": "view",
      "type": "function"
    },
    {
      "inputs": [],
      "name": "owner",
      "outputs": [
        {
          "internalType": "address",
          "name": "",
          "type": "address"
        }
      ],
      "stateMutability": "view",
      "type": "function"
    },
    {
      "inputs": [
        {
          "internalType": "uint256",
          "name": "tokenId",
          "type": "uint256"
        }
      ],
      "name": "ownerOf",
      "outputs": [
        {
          "internalType": "address",
          "name": "",
          "type": "address"
        }
      ],
      "stateMutability": "view",
      "type": "function"
    },
    {
      "inputs": [],
      "name": "renounceOwnership",
      "outputs": [],
      "stateMutability": "nonpayable",
      "type": "function"
    },
    {
      "inputs": [
        {
          "internalType": "uint256",
          "name": "",
          "type": "uint256"
        },
        {
          "internalType": "uint256",
          "name": "salePrice",
          "type": "uint256"
        }
      ],
      "name": "royaltyInfo",
      "outputs": [
        {
          "internalType": "address",
          "name": "receiver",
          "type": "address"
        },
        {
          "internalType": "uint256",
          "name": "royaltyAmount",
          "type": "uint256"
        }
      ],
      "stateMutability": "view",
      "type": "function"
    },
    {
      "inputs": [
        {
          "internalType": "address",
          "name": "from",
          "type": "address"
        },
        {
          "internalType": "address",
          "name": "to",
          "type": "address"
        },
        {
          "internalType": "uint256",
          "name": "tokenId",
          "type": "uint256"
        }
      ],
      "name": "safeTransferFrom",
      "outputs": [],
      "stateMutability": "nonpayable",
      "type": "function"
    },
    {
      "inputs": [
        {
          "internalType": "address",
          "name": "from",
          "type": "address"
        },
        {
          "internalType": "address",
          "name": "to",
          "type": "address"
        },
        {
          "internalType": "uint256",
          "name": "tokenId",
          "type": "uint256"
        },
        {
          "internalType": "bytes",
          "name": "data",
          "type": "bytes"
        }
      ],
      "name": "safeTransferFrom",
      "outputs": [],
      "stateMutability": "nonpayable",
      "type": "function"
    },
    {
      "inputs": [
        {
          "internalType": "address",
          "name": "operator",
          "type": "address"
        },
        {
          "internalType": "bool",
          "name": "approved",
          "type": "bool"
        }
      ],
      "name": "setApprovalForAll",
      "outputs": [],
      "stateMutability": "nonpayable",
      "type": "function"
    },
    {
      "inputs": [
        {
          "internalType": "bytes4",
          "name": "interfaceId",
          "type": "bytes4"
        }
      ],
      "name": "supportsInterface",
      "outputs": [
        {
          "internalType": "bool",
          "name": "",
          "type": "bool"
        }
      ],
      "stateMutability": "view",
      "type": "function"
    },
    {
      "inputs": [],
      "name": "symbol",
      "outputs": [
        {
          "internalType": "string",
          "name": "",
          "type": "string"
        }
      ],
      "stateMutability": "view",
      "type": "function"
    },
    {
      "inputs": [
        {
          "internalType": "uint256",
          "name": "tokenId",
          "type": "uint256"
        }
      ],
      "name": "tokenURI",
      "outputs": [
        {
          "internalType": "string",
          "name": "",
          "type": "string"
        }
      ],
      "stateMutability": "view",
      "type": "function"
    },
    {
      "inputs": [
        {
          "internalType": "address",
          "name": "from",
          "type": "address"
        },
        {
          "internalType": "address",
          "name": "to",
          "type": "address"
        },
        {
          "internalType": "uint256",
          "name": "tokenId",
          "type": "uint256"
        }
      ],
      "name": "transferFrom",
      "outputs": [],
      "stateMutability": "nonpayable",
      "type": "function"
    },
    {
      "inputs": [
        {
          "internalType": "address",
          "name": "newOwner",
          "type": "address"
        }
      ],
      "name": "transferOwnership",
      "outputs": [],
      "stateMutability": "nonpayable",
      "type": "function"
    },
    {
      "inputs": [
        {
          "internalType": "uint256",
          "name": "tokenId",
          "type": "uint256"
        },
        {
          "internalType": "uint256",
          "name": "newPrice",
          "type": "uint256"
        }
      ],
      "name": "updatePropertyPrice",
      "outputs": [],
      "stateMutability": "nonpayable",
      "type": "function"
    },
    {
      "inputs": [
        {
          "internalType": "uint256",
          "name": "tokenId",
          "type": "uint256"
        },
        {
          "internalType": "enum Property.PropertyStatus",
          "name": "status",
          "type": "uint8"
        }
      ],
      "name": "updatePropertyStatus",
      "outputs": [],
      "stateMutability": "nonpayable",
      "type": "function"
    }
  ],
  "bytecode": "0x608060405234801561001057600080fd5b506040516141e53803806141e583398181016040528101906100329190610467565b33848481600090816100449190610727565b5080600190816100549190610727565b505050600073ffffffffffffffffffffffffffffffffffffffff168173ffffffffffffffffffffffffffffffffffffffff16036100c95760006040517f1e4fbdf70000000000000000000000000000000000000000000000000000000081526004016100c09190610808565b60405180910390fd5b6100d88161019360201b60201c565b506001600881905550600060098190555060405180604001604052808373ffffffffffffffffffffffffffffffffffffffff1681526020018262ffffff16815250600b60008201518160000160006101000a81548173ffffffffffffffffffffffffffffffffffffffff021916908373ffffffffffffffffffffffffffffffffffffffff16021790555060208201518160000160146101000a81548162ffffff021916908362ffffff16021790555090505050505050610823565b6000600760009054906101000a900473ffffffffffffffffffffffffffffffffffffffff16905081600760006101000a81548173ffffffffffffffffffffffffffffffffffffffff021916908373ffffffffffffffffffffffffffffffffffffffff1602179055508173ffffffffffffffffffffffffffffffffffffffff168173ffffffffffffffffffffffffffffffffffffffff167f8be0079c531659141344cd1fd0a4f28419497f9722a3daafe3b4186f6b6457e060405160405180910390a35050565b6000604051905090565b600080fd5b600080fd5b600080fd5b600080fd5b6000601f19601f8301169050919050565b7f4e487b7100000000000000000000000000000000000000000000000000000000600052604160045260246000fd5b6102c082610277565b810181811067ffffffffffffffff821117156102df576102de610288565b5b80604052505050565b60006102f2610259565b90506102fe82826102b7565b919050565b600067ffffffffffffffff82111561031e5761031d610288565b5b61032782610277565b9050602081019050919050565b60005b83811015610352578082015181840152602081019050610337565b60008484015250505050565b600061037161036c84610303565b6102e8565b90508281526020810184848401111561038d5761038c610272565b5b610398848285610334565b509392505050565b600082601f8301126103b5576103b461026d565b5b81516103c584826020860161035e565b91505092915050565b600073ffffffffffffffffffffffffffffffffffffffff82169050919050565b60006103f9826103ce565b9050919050565b610409816103ee565b811461041457600080fd5b50565b60008151905061042681610400565b92915050565b600062ffffff82169050919050565b6104448161042c565b811461044f57600080fd5b50565b6000815190506104618161043b565b92915050565b6000806000806080858703121561048157610480610263565b5b600085015167ffffffffffffffff81111561049f5761049e610268565b5b6104ab878288016103a0565b945050602085015167ffffffffffffffff8111156104cc576104cb610268565b5b6104d8878288016103a0565b93505060406104e987828801610417565b92505060606104fa87828801610452565b91505092959194509250565b600081519050919050565b7f4e487b7100000000000000000000000000000000000000000000000000000000600052602260045260246000fd5b6000600282049050600182168061055857607f821691505b60208210810361056b5761056a610511565b5b50919050565b60008190508160005260206000209050919050565b60006020601f8301049050919050565b600082821b905092915050565b6000600883026105d37fffffffffffffffffffffffffffffffffffffffffffffffffffffffffffffffff82610596565b6105dd8683610596565b95508019841693508086168417925050509392505050565b6000819050919050565b6000819050919050565b600061062461061f61061a846105f5565b6105ff565b6105f5565b9050919050565b6000819050919050565b61063e83610609565b61065261064a8261062b565b8484546105a3565b825550505050565b600090565b61066761065a565b610672818484610635565b505050565b5b818110156106965761068b60008261065f565b600181019050610678565b5050565b601f8211156106db576106ac81610571565b6106b584610586565b810160208510156106c4578190505b6106d86106d085610586565b830182610677565b50505b505050565b600082821c905092915050565b60006106fe600019846008026106e0565b1980831691505092915050565b600061071783836106ed565b9150826002028217905092915050565b61073082610506565b67ffffffffffffffff81111561074957610748610288565b5b6107538254610540565b61075e82828561069a565b600060209050601f831160018114610791576000841561077f578287015190505b610789858261070b565b8655506107f1565b601f19841661079f86610571565b60005b828110156107c7578489015182556001820191506020850194506020810190506107a2565b868310156107e457848901516107e0601f8916826106ed565b8355505b6001600288020188555050505b505050505050565b610802816103ee565b82525050565b600060208201905061081d60008301846107f9565b92915050565b6139b3806108326000396000f3fe60806040526004361061014b5760003560e01c806370a08231116100b6578063b88d4fde1161006f578063b88d4fde146104c0578063c6ca0af5146104e9578063c87b56dd14610514578063e985e9c514610551578063f2fde38b1461058e578063fce401b2146105b75761014b565b806370a08231146103aa578063715018a6146103e75780638da5cb5b146103fe57806395d89b4114610429578063a22cb46514610454578063a5c55bc11461047d5761014b565b80632a55205a116101085780632a55205a1461028457806342842e0e146102c2578063564c0aec146102eb5780636352211e14610314578063652d8c7e146103515780636fa830a61461038e5761014b565b806301ffc9a71461015057806306fdde031461018d578063081812fc146101b8578063095ea7b3146101f5578063126dbe431461021e57806323b872dd1461025b575b600080fd5b34801561015c57600080fd5b5061017760048036038101906101729190612967565b6105e0565b60405161018491906129af565b60405180910390f35b34801561019957600080fd5b506101a261065a565b6040516101af9190612a5a565b60405180910390f35b3480156101c457600080fd5b506101df60048036038101906101da9190612ab2565b6106ec565b6040516101ec9190612b20565b60405180910390f35b34801561020157600080fd5b5061021c60048036038101906102179190612b67565b610708565b005b34801561022a57600080fd5b5061024560048036038101906102409190612ab2565b61071e565b6040516102529190612d6b565b60405180910390f35b34801561026757600080fd5b50610282600480360381019061027d9190612d8d565b6108ac565b005b34801561029057600080fd5b506102ab60048036038101906102a69190612de0565b6109ae565b6040516102b9929190612e2f565b60405180910390f35b3480156102ce57600080fd5b506102e960048036038101906102e49190612d8d565b610a14565b005b3480156102f757600080fd5b50610312600480360381019061030d9190612e7d565b610a34565b005b34801561032057600080fd5b5061033b60048036038101906103369190612ab2565b610b62565b6040516103489190612b20565b60405180910390f35b34801561035d57600080fd5b5061037860048036038101906103739190612ff2565b610b74565b60405161038591906130cc565b60405180910390f35b6103a860048036038101906103a39190612ab2565b610dff565b005b3480156103b657600080fd5b506103d160048036038101906103cc91906130e7565b611026565b6040516103de91906130cc565b60405180910390f35b3480156103f357600080fd5b506103fc6110e0565b005b34801561040a57600080fd5b506104136110f4565b6040516104209190612b20565b60405180910390f35b34801561043557600080fd5b5061043e61111e565b60405161044b9190612a5a565b60405180910390f35b34801561046057600080fd5b5061047b60048036038101906104769190613140565b6111b0565b005b34801561048957600080fd5b506104a4600480360381019061049f9190612ab2565b6111c6565b6040516104b797969594939291906131bc565b60405180910390f35b3480156104cc57600080fd5b506104e760048036038101906104e291906132d3565b6112d5565b005b3480156104f557600080fd5b506104fe6112fa565b60405161050b91906130cc565b60405180910390f35b34801561052057600080fd5b5061053b60048036038101906105369190612ab2565b611300565b6040516105489190612a5a565b60405180910390f35b34801561055d57600080fd5b5061057860048036038101906105739190613356565b611413565b60405161058591906129af565b60405180910390f35b34801561059a57600080fd5b506105b560048036038101906105b091906130e7565b6114a7565b005b3480156105c357600080fd5b506105de60048036038101906105d99190612de0565b61152d565b005b60007f2a55205a000000000000000000000000000000000000000000000000000000007bffffffffffffffffffffffffffffffffffffffffffffffffffffffff1916827bffffffffffffffffffffffffffffffffffffffffffffffffffffffff1916148061065357506106528261164f565b5b9050919050565b606060008054610669906133c5565b80601f0160208091040260200160405190810160405280929190818152602001828054610695906133c5565b80156106e25780601f106106b7576101008083540402835291602001916106e2565b820191906000526020600020905b8154815290600101906020018083116106c557829003601f168201915b5050505050905090565b60006106f7826116b0565b5061070182611738565b9050919050565b61071a8282610715611775565b61177d565b5050565b61072661289c565b61072f82610b62565b50600a60008381526020019081526020016000206040518060e001604052908160008201805461075e906133c5565b80601f016020809104026020016040519081016040528092919081815260200182805461078a906133c5565b80156107d75780601f106107ac576101008083540402835291602001916107d7565b820191906000526020600020905b8154815290600101906020018083116107ba57829003601f168201915b50505050508152602001600182015481526020016002820160009054906101000a900463ffffffff1663ffffffff1663ffffffff1681526020016002820160049054906101000a900461ffff1661ffff1661ffff1681526020016002820160069054906101000a900460ff1660ff1660ff1681526020016002820160079054906101000a900460ff1660ff1660ff1681526020016002820160089054906101000a900460ff16600281111561088f5761088e612c58565b5b60028111156108a1576108a0612c58565b5b815250509050919050565b600073ffffffffffffffffffffffffffffffffffffffff168273ffffffffffffffffffffffffffffffffffffffff160361091e5760006040517f64a0ae920000000000000000000000000000000000000000000000000000000081526004016109159190612b20565b60405180910390fd5b6000610932838361092d611775565b61178f565b90508373ffffffffffffffffffffffffffffffffffffffff168173ffffffffffffffffffffffffffffffffffffffff16146109a8578382826040517f64283d7b00000000000000000000000000000000000000000000000000000000815260040161099f939291906133f6565b60405180910390fd5b50505050565b600080612710600b60000160149054906101000a900462ffffff1662ffffff16846109d9919061345c565b6109e391906134cd565b9050600b60000160009054906101000a900473ffffffffffffffffffffffffffffffffffffffff1691509250929050565b610a2f838383604051806020016040528060008152506112d5565b505050565b6000610a3f83610b62565b90503373ffffffffffffffffffffffffffffffffffffffff168173ffffffffffffffffffffffffffffffffffffffff1614158015610ab057503373ffffffffffffffffffffffffffffffffffffffff16610a976110f4565b73ffffffffffffffffffffffffffffffffffffffff1614155b15610ae7576040517f30cd747100000000000000000000000000000000000000000000000000000000815260040160405180910390fd5b81600a600085815260200190815260200160002060020160086101000a81548160ff02191690836002811115610b2057610b1f612c58565b5b0217905550827fc9ad6f316a0c29919c9b20c406f1baca1b93c196df6515c9e236a803e8a50c1383604051610b5591906134fe565b60405180910390a2505050565b6000610b6d826116b0565b9050919050565b60008088511480610b86575060008751145b15610bbd576040517fb4fa3fb300000000000000000000000000000000000000000000000000000000815260040160405180910390fd5b6000861480610bcc5750600085145b80610bd75750600084145b80610be25750600083145b80610bed5750600082145b15610c24576040517fb4fa3fb300000000000000000000000000000000000000000000000000000000815260040160405180910390fd5b600160096000828254610c379190613519565b9250508190555060006009549050610c4f33826119a9565b610c59818a611aa2565b6040518060e001604052808981526020018881526020018763ffffffff1681526020018461ffff1681526020018660ff1681526020018560ff16815260200160006002811115610cac57610cab612c58565b5b815250600a60008381526020019081526020016000206000820151816000019081610cd791906136f9565b506020820151816001015560408201518160020160006101000a81548163ffffffff021916908363ffffffff16021790555060608201518160020160046101000a81548161ffff021916908361ffff16021790555060808201518160020160066101000a81548160ff021916908360ff16021790555060a08201518160020160076101000a81548160ff021916908360ff16021790555060c08201518160020160086101000a81548160ff02191690836002811115610d9957610d98612c58565b5b02179055509050503373ffffffffffffffffffffffffffffffffffffffff16817f23fb658c1698b92f5fe511a079c17ecf7965cbc3f1b873328c67e2c3c0820f1f89604051610de891906130cc565b60405180910390a380915050979650505050505050565b610e07611afe565b6000600a6000838152602001908152602001600020905060006002811115610e3257610e31612c58565b5b8160020160089054906101000a900460ff166002811115610e5657610e55612c58565b5b14610e8d576040517fa68cba2400000000000000000000000000000000000000000000000000000000815260040160405180910390fd5b80600101543414610eca576040517f569e8c1100000000000000000000000000000000000000000000000000000000815260040160405180910390fd5b6000610ed583610b62565b9050610ee2813385611b44565b60028260020160086101000a81548160ff02191690836002811115610f0a57610f09612c58565b5b021790555060008173ffffffffffffffffffffffffffffffffffffffff1634604051610f35906137fc565b60006040518083038185875af1925050503d8060008114610f72576040519150601f19603f3d011682016040523d82523d6000602084013e610f77565b606091505b5050905080610fb2576040517f90b8ec1800000000000000000000000000000000000000000000000000000000815260040160405180910390fd5b3373ffffffffffffffffffffffffffffffffffffffff168273ffffffffffffffffffffffffffffffffffffffff16857fddd64180d9701c7ede08673ac8106484ff983a472929330d4fbde4e35d65cb063460405161101091906130cc565b60405180910390a4505050611023611cb1565b50565b60008073ffffffffffffffffffffffffffffffffffffffff168273ffffffffffffffffffffffffffffffffffffffff16036110995760006040517f89c62b640000000000000000000000000000000000000000000000000000000081526004016110909190612b20565b60405180910390fd5b600360008373ffffffffffffffffffffffffffffffffffffffff1673ffffffffffffffffffffffffffffffffffffffff168152602001908152602001600020549050919050565b6110e8611cbb565b6110f26000611d42565b565b6000600760009054906101000a900473ffffffffffffffffffffffffffffffffffffffff16905090565b60606001805461112d906133c5565b80601f0160208091040260200160405190810160405280929190818152602001828054611159906133c5565b80156111a65780601f1061117b576101008083540402835291602001916111a6565b820191906000526020600020905b81548152906001019060200180831161118957829003601f168201915b5050505050905090565b6111c26111bb611775565b8383611e08565b5050565b600a6020528060005260406000206000915090508060000180546111e9906133c5565b80601f0160208091040260200160405190810160405280929190818152602001828054611215906133c5565b80156112625780601f1061123757610100808354040283529160200191611262565b820191906000526020600020905b81548152906001019060200180831161124557829003601f168201915b5050505050908060010154908060020160009054906101000a900463ffffffff16908060020160049054906101000a900461ffff16908060020160069054906101000a900460ff16908060020160079054906101000a900460ff16908060020160089054906101000a900460ff16905087565b6112e08484846108ac565b6112f46112eb611775565b85858585611f77565b50505050565b61271081565b606061130b826116b0565b50600060066000848152602001908152602001600020805461132c906133c5565b80601f0160208091040260200160405190810160405280929190818152602001828054611358906133c5565b80156113a55780601f1061137a576101008083540402835291602001916113a5565b820191906000526020600020905b81548152906001019060200180831161138857829003601f168201915b5050505050905060006113b6612128565b905060008151036113cb57819250505061140e565b6000825111156114005780826040516020016113e892919061384d565b6040516020818303038152906040529250505061140e565b6114098461213f565b925050505b919050565b6000600560008473ffffffffffffffffffffffffffffffffffffffff1673ffffffffffffffffffffffffffffffffffffffff16815260200190815260200160002060008373ffffffffffffffffffffffffffffffffffffffff1673ffffffffffffffffffffffffffffffffffffffff16815260200190815260200160002060009054906101000a900460ff16905092915050565b6114af611cbb565b600073ffffffffffffffffffffffffffffffffffffffff168173ffffffffffffffffffffffffffffffffffffffff16036115215760006040517f1e4fbdf70000000000000000000000000000000000000000000000000000000081526004016115189190612b20565b60405180910390fd5b61152a81611d42565b50565b600061153883610b62565b90503373ffffffffffffffffffffffffffffffffffffffff168173ffffffffffffffffffffffffffffffffffffffff161461159f576040517f30cd747100000000000000000000000000000000000000000000000000000000815260040160405180910390fd5b600082036115d9576040517fb4fa3fb300000000000000000000000000000000000000000000000000000000815260040160405180910390fd5b6000600a600085815260200190815260200160002060010154905082600a600086815260200190815260200160002060010181905550837fe5f28e34d1b7307cdc088bf0efdf0d985e62941da9ef9b491898f6f2b8cf0a0b8285604051611641929190613871565b60405180910390a250505050565b6000634906490660e01b7bffffffffffffffffffffffffffffffffffffffffffffffffffffffff1916827bffffffffffffffffffffffffffffffffffffffffffffffffffffffff191614806116a957506116a8826121a8565b5b9050919050565b6000806116bc8361228a565b9050600073ffffffffffffffffffffffffffffffffffffffff168173ffffffffffffffffffffffffffffffffffffffff160361172f57826040517f7e27328900000000000000000000000000000000000000000000000000000000815260040161172691906130cc565b60405180910390fd5b80915050919050565b60006004600083815260200190815260200160002060009054906101000a900473ffffffffffffffffffffffffffffffffffffffff169050919050565b600033905090565b61178a83838360016122c7565b505050565b60008061179b8461228a565b9050600073ffffffffffffffffffffffffffffffffffffffff168373ffffffffffffffffffffffffffffffffffffffff16146117dd576117dc81848661248c565b5b600073ffffffffffffffffffffffffffffffffffffffff168173ffffffffffffffffffffffffffffffffffffffff161461186e5761181f6000856000806122c7565b6001600360008373ffffffffffffffffffffffffffffffffffffffff1673ffffffffffffffffffffffffffffffffffffffff168152602001908152602001600020600082825403925050819055505b600073ffffffffffffffffffffffffffffffffffffffff168573ffffffffffffffffffffffffffffffffffffffff16146118f1576001600360008773ffffffffffffffffffffffffffffffffffffffff1673ffffffffffffffffffffffffffffffffffffffff168152602001908152602001600020600082825401925050819055505b846002600086815260200190815260200160002060006101000a81548173ffffffffffffffffffffffffffffffffffffffff021916908373ffffffffffffffffffffffffffffffffffffffff160217905550838573ffffffffffffffffffffffffffffffffffffffff168273ffffffffffffffffffffffffffffffffffffffff167fddf252ad1be2c89b69c2b068fc378daa952ba7f163c4a11628f55a4df523b3ef60405160405180910390a4809150509392505050565b600073ffffffffffffffffffffffffffffffffffffffff168273ffffffffffffffffffffffffffffffffffffffff1603611a1b5760006040517f64a0ae92000000000000000000000000000000000000000000000000000000008152600401611a129190612b20565b60405180910390fd5b6000611a298383600061178f565b9050600073ffffffffffffffffffffffffffffffffffffffff168173ffffffffffffffffffffffffffffffffffffffff1614611a9d5760006040517f73c6ac6e000000000000000000000000000000000000000000000000000000008152600401611a949190612b20565b60405180910390fd5b505050565b80600660008481526020019081526020016000209081611ac291906136f9565b507ff8e1a15aba9398e019f0b49df1a4fde98ee17ae345cb5f6b5e2c27f5033e8ce782604051611af291906130cc565b60405180910390a15050565b600260085403611b3a576040517f3ee5aeb500000000000000000000000000000000000000000000000000000000815260040160405180910390fd5b6002600881905550565b600073ffffffffffffffffffffffffffffffffffffffff168273ffffffffffffffffffffffffffffffffffffffff1603611bb65760006040517f64a0ae92000000000000000000000000000000000000000000000000000000008152600401611bad9190612b20565b60405180910390fd5b6000611bc48383600061178f565b9050600073ffffffffffffffffffffffffffffffffffffffff168173ffffffffffffffffffffffffffffffffffffffff1603611c3757816040517f7e273289000000000000000000000000000000000000000000000000000000008152600401611c2e91906130cc565b60405180910390fd5b8373ffffffffffffffffffffffffffffffffffffffff168173ffffffffffffffffffffffffffffffffffffffff1614611cab578382826040517f64283d7b000000000000000000000000000000000000000000000000000000008152600401611ca2939291906133f6565b60405180910390fd5b50505050565b6001600881905550565b611cc3611775565b73ffffffffffffffffffffffffffffffffffffffff16611ce16110f4565b73ffffffffffffffffffffffffffffffffffffffff1614611d4057611d04611775565b6040517f118cdaa7000000000000000000000000000000000000000000000000000000008152600401611d379190612b20565b60405180910390fd5b565b6000600760009054906101000a900473ffffffffffffffffffffffffffffffffffffffff16905081600760006101000a81548173ffffffffffffffffffffffffffffffffffffffff021916908373ffffffffffffffffffffffffffffffffffffffff1602179055508173ffffffffffffffffffffffffffffffffffffffff168173ffffffffffffffffffffffffffffffffffffffff167f8be0079c531659141344cd1fd0a4f28419497f9722a3daafe3b4186f6b6457e060405160405180910390a35050565b600073ffffffffffffffffffffffffffffffffffffffff168273ffffffffffffffffffffffffffffffffffffffff1603611e7957816040517f5b08ba18000000000000000000000000000000000000000000000000000000008152600401611e709190612b20565b60405180910390fd5b80600560008573ffffffffffffffffffffffffffffffffffffffff1673ffffffffffffffffffffffffffffffffffffffff16815260200190815260200160002060008473ffffffffffffffffffffffffffffffffffffffff1673ffffffffffffffffffffffffffffffffffffffff16815260200190815260200160002060006101000a81548160ff0219169083151502179055508173ffffffffffffffffffffffffffffffffffffffff168373ffffffffffffffffffffffffffffffffffffffff167f17307eab39ab6107e8899845ad3d59bd9653f200f220920489ca2b5937696c3183604051611f6a91906129af565b60405180910390a3505050565b60008373ffffffffffffffffffffffffffffffffffffffff163b1115612121578273ffffffffffffffffffffffffffffffffffffffff1663150b7a02868685856040518563ffffffff1660e01b8152600401611fd694939291906138ef565b6020604051808303816000875af192505050801561201257506040513d601f19601f8201168201806040525081019061200f9190613950565b60015b612096573d8060008114612042576040519150601f19603f3d011682016040523d82523d6000602084013e612047565b606091505b50600081510361208e57836040517f64a0ae920000000000000000000000000000000000000000000000000000000081526004016120859190612b20565b60405180910390fd5b805181602001fd5b63150b7a0260e01b7bffffffffffffffffffffffffffffffffffffffffffffffffffffffff1916817bffffffffffffffffffffffffffffffffffffffffffffffffffffffff19161461211f57836040517f64a0ae920000000000000000000000000000000000000000000000000000000081526004016121169190612b20565b60405180910390fd5b505b5050505050565b606060405180602001604052806000815250905090565b606061214a826116b0565b506000612155612128565b9050600081511161217557604051806020016040528060008152506121a0565b8061217f84612550565b60405160200161219092919061384d565b6040516020818303038152906040525b915050919050565b60007f80ac58cd000000000000000000000000000000000000000000000000000000007bffffffffffffffffffffffffffffffffffffffffffffffffffffffff1916827bffffffffffffffffffffffffffffffffffffffffffffffffffffffff1916148061227357507f5b5e139f000000000000000000000000000000000000000000000000000000007bffffffffffffffffffffffffffffffffffffffffffffffffffffffff1916827bffffffffffffffffffffffffffffffffffffffffffffffffffffffff1916145b8061228357506122828261261e565b5b9050919050565b60006002600083815260200190815260200160002060009054906101000a900473ffffffffffffffffffffffffffffffffffffffff169050919050565b80806123005750600073ffffffffffffffffffffffffffffffffffffffff168273ffffffffffffffffffffffffffffffffffffffff1614155b15612434576000612310846116b0565b9050600073ffffffffffffffffffffffffffffffffffffffff168373ffffffffffffffffffffffffffffffffffffffff161415801561237b57508273ffffffffffffffffffffffffffffffffffffffff168173ffffffffffffffffffffffffffffffffffffffff1614155b801561238e575061238c8184611413565b155b156123d057826040517fa9fbf51f0000000000000000000000000000000000000000000000000000000081526004016123c79190612b20565b60405180910390fd5b811561243257838573ffffffffffffffffffffffffffffffffffffffff168273ffffffffffffffffffffffffffffffffffffffff167f8c5be1e5ebec7d5bd14f71427d1e84f3dd0314c0f7b2291e5b200ac8c7c3b92560405160405180910390a45b505b836004600085815260200190815260200160002060006101000a81548173ffffffffffffffffffffffffffffffffffffffff021916908373ffffffffffffffffffffffffffffffffffffffff16021790555050505050565b612497838383612688565b61254b57600073ffffffffffffffffffffffffffffffffffffffff168373ffffffffffffffffffffffffffffffffffffffff160361250c57806040517f7e27328900000000000000000000000000000000000000000000000000000000815260040161250391906130cc565b60405180910390fd5b81816040517f177e802f000000000000000000000000000000000000000000000000000000008152600401612542929190612e2f565b60405180910390fd5b505050565b60606000600161255f84612749565b01905060008167ffffffffffffffff81111561257e5761257d612ec7565b5b6040519080825280601f01601f1916602001820160405280156125b05781602001600182028036833780820191505090505b509050600082602001820190505b600115612613578080600190039150507f3031323334353637383961626364656600000000000000000000000000000000600a86061a8153600a85816126075761260661349e565b5b049450600085036125be575b819350505050919050565b60007f01ffc9a7000000000000000000000000000000000000000000000000000000007bffffffffffffffffffffffffffffffffffffffffffffffffffffffff1916827bffffffffffffffffffffffffffffffffffffffffffffffffffffffff1916149050919050565b60008073ffffffffffffffffffffffffffffffffffffffff168373ffffffffffffffffffffffffffffffffffffffff161415801561274057508273ffffffffffffffffffffffffffffffffffffffff168473ffffffffffffffffffffffffffffffffffffffff16148061270157506127008484611413565b5b8061273f57508273ffffffffffffffffffffffffffffffffffffffff1661272783611738565b73ffffffffffffffffffffffffffffffffffffffff16145b5b90509392505050565b600080600090507a184f03e93ff9f4daa797ed6e38ed64bf6a1f01000000000000000083106127a7577a184f03e93ff9f4daa797ed6e38ed64bf6a1f010000000000000000838161279d5761279c61349e565b5b0492506040810190505b6d04ee2d6d415b85acef810000000083106127e4576d04ee2d6d415b85acef810000000083816127da576127d961349e565b5b0492506020810190505b662386f26fc10000831061281357662386f26fc1000083816128095761280861349e565b5b0492506010810190505b6305f5e100831061283c576305f5e10083816128325761283161349e565b5b0492506008810190505b61271083106128615761271083816128575761285661349e565b5b0492506004810190505b60648310612884576064838161287a5761287961349e565b5b0492506002810190505b600a8310612893576001810190505b80915050919050565b6040518060e001604052806060815260200160008152602001600063ffffffff168152602001600061ffff168152602001600060ff168152602001600060ff168152602001600060028111156128f5576128f4612c58565b5b81525090565b6000604051905090565b600080fd5b600080fd5b60007fffffffff0000000000000000000000000000000000000000000000000000000082169050919050565b6129448161290f565b811461294f57600080fd5b50565b6000813590506129618161293b565b92915050565b60006020828403121561297d5761297c612905565b5b600061298b84828501612952565b91505092915050565b60008115159050919050565b6129a981612994565b82525050565b60006020820190506129c460008301846129a0565b92915050565b600081519050919050565b600082825260208201905092915050565b60005b83811015612a045780820151818401526020810190506129e9565b60008484015250505050565b6000601f19601f8301169050919050565b6000612a2c826129ca565b612a3681856129d5565b9350612a468185602086016129e6565b612a4f81612a10565b840191505092915050565b60006020820190508181036000830152612a748184612a21565b905092915050565b6000819050919050565b612a8f81612a7c565b8114612a9a57600080fd5b50565b600081359050612aac81612a86565b92915050565b600060208284031215612ac857612ac7612905565b5b6000612ad684828501612a9d565b91505092915050565b600073ffffffffffffffffffffffffffffffffffffffff82169050919050565b6000612b0a82612adf565b9050919050565b612b1a81612aff565b82525050565b6000602082019050612b356000830184612b11565b92915050565b612b4481612aff565b8114612b4f57600080fd5b50565b600081359050612b6181612b3b565b92915050565b60008060408385031215612b7e57612b7d612905565b5b6000612b8c85828601612b52565b9250506020612b9d85828601612a9d565b9150509250929050565b600082825260208201905092915050565b6000612bc3826129ca565b612bcd8185612ba7565b9350612bdd8185602086016129e6565b612be681612a10565b840191505092915050565b612bfa81612a7c565b82525050565b600063ffffffff82169050919050565b612c1981612c00565b82525050565b600061ffff82169050919050565b612c3681612c1f565b82525050565b600060ff82169050919050565b612c5281612c3c565b82525050565b7f4e487b7100000000000000000000000000000000000000000000000000000000600052602160045260246000fd5b60038110612c9857612c97612c58565b5b50565b6000819050612ca982612c87565b919050565b6000612cb982612c9b565b9050919050565b612cc981612cae565b82525050565b600060e0830160008301518482036000860152612cec8282612bb8565b9150506020830151612d016020860182612bf1565b506040830151612d146040860182612c10565b506060830151612d276060860182612c2d565b506080830151612d3a6080860182612c49565b5060a0830151612d4d60a0860182612c49565b5060c0830151612d6060c0860182612cc0565b508091505092915050565b60006020820190508181036000830152612d858184612ccf565b905092915050565b600080600060608486031215612da657612da5612905565b5b6000612db486828701612b52565b9350506020612dc586828701612b52565b9250506040612dd686828701612a9d565b9150509250925092565b60008060408385031215612df757612df6612905565b5b6000612e0585828601612a9d565b9250506020612e1685828601612a9d565b9150509250929050565b612e2981612a7c565b82525050565b6000604082019050612e446000830185612b11565b612e516020830184612e20565b9392505050565b60038110612e6557600080fd5b50565b600081359050612e7781612e58565b92915050565b60008060408385031215612e9457612e93612905565b5b6000612ea285828601612a9d565b9250506020612eb385828601612e68565b9150509250929050565b600080fd5b600080fd5b7f4e487b7100000000000000000000000000000000000000000000000000000000600052604160045260246000fd5b612eff82612a10565b810181811067ffffffffffffffff82111715612f1e57612f1d612ec7565b5b80604052505050565b6000612f316128fb565b9050612f3d8282612ef6565b919050565b600067ffffffffffffffff821115612f5d57612f5c612ec7565b5b612f6682612a10565b9050602081019050919050565b82818337600083830152505050565b6000612f95612f9084612f42565b612f27565b905082815260208101848484011115612fb157612fb0612ec2565b5b612fbc848285612f73565b509392505050565b600082601f830112612fd957612fd8612ebd565b5b8135612fe9848260208601612f82565b91505092915050565b600080600080600080600060e0888a03121561301157613010612905565b5b600088013567ffffffffffffffff81111561302f5761302e61290a565b5b61303b8a828b01612fc4565b975050602088013567ffffffffffffffff81111561305c5761305b61290a565b5b6130688a828b01612fc4565b96505060406130798a828b01612a9d565b955050606061308a8a828b01612a9d565b945050608061309b8a828b01612a9d565b93505060a06130ac8a828b01612a9d565b92505060c06130bd8a828b01612a9d565b91505092959891949750929550565b60006020820190506130e16000830184612e20565b92915050565b6000602082840312156130fd576130fc612905565b5b600061310b84828501612b52565b91505092915050565b61311d81612994565b811461312857600080fd5b50565b60008135905061313a81613114565b92915050565b6000806040838503121561315757613156612905565b5b600061316585828601612b52565b92505060206131768582860161312b565b9150509250929050565b61318981612c00565b82525050565b61319881612c1f565b82525050565b6131a781612c3c565b82525050565b6131b681612cae565b82525050565b600060e08201905081810360008301526131d6818a612a21565b90506131e56020830189612e20565b6131f26040830188613180565b6131ff606083018761318f565b61320c608083018661319e565b61321960a083018561319e565b61322660c08301846131ad565b98975050505050505050565b600067ffffffffffffffff82111561324d5761324c612ec7565b5b61325682612a10565b9050602081019050919050565b600061327661327184613232565b612f27565b90508281526020810184848401111561329257613291612ec2565b5b61329d848285612f73565b509392505050565b600082601f8301126132ba576132b9612ebd565b5b81356132ca848260208601613263565b91505092915050565b600080600080608085870312156132ed576132ec612905565b5b60006132fb87828801612b52565b945050602061330c87828801612b52565b935050604061331d87828801612a9d565b925050606085013567ffffffffffffffff81111561333e5761333d61290a565b5b61334a878288016132a5565b91505092959194509250565b6000806040838503121561336d5761336c612905565b5b600061337b85828601612b52565b925050602061338c85828601612b52565b9150509250929050565b7f4e487b7100000000000000000000000000000000000000000000000000000000600052602260045260246000fd5b600060028204905060018216806133dd57607f821691505b6020821081036133f0576133ef613396565b5b50919050565b600060608201905061340b6000830186612b11565b6134186020830185612e20565b6134256040830184612b11565b949350505050565b7f4e487b7100000000000000000000000000000000000000000000000000000000600052601160045260246000fd5b600061346782612a7c565b915061347283612a7c565b925082820261348081612a7c565b915082820484148315176134975761349661342d565b5b5092915050565b7f4e487b7100000000000000000000000000000000000000000000000000000000600052601260045260246000fd5b60006134d882612a7c565b91506134e383612a7c565b9250826134f3576134f261349e565b5b828204905092915050565b600060208201905061351360008301846131ad565b92915050565b600061352482612a7c565b915061352f83612a7c565b92508282019050808211156135475761354661342d565b5b92915050565b60008190508160005260206000209050919050565b60006020601f8301049050919050565b600082821b905092915050565b6000600883026135af7fffffffffffffffffffffffffffffffffffffffffffffffffffffffffffffffff82613572565b6135b98683613572565b95508019841693508086168417925050509392505050565b6000819050919050565b60006135f66135f16135ec84612a7c565b6135d1565b612a7c565b9050919050565b6000819050919050565b613610836135db565b61362461361c826135fd565b84845461357f565b825550505050565b600090565b61363961362c565b613644818484613607565b505050565b5b818110156136685761365d600082613631565b60018101905061364a565b5050565b601f8211156136ad5761367e8161354d565b61368784613562565b81016020851015613696578190505b6136aa6136a285613562565b830182613649565b50505b505050565b600082821c905092915050565b60006136d0600019846008026136b2565b1980831691505092915050565b60006136e983836136bf565b9150826002028217905092915050565b613702826129ca565b67ffffffffffffffff81111561371b5761371a612ec7565b5b61372582546133c5565b61373082828561366c565b600060209050601f8311600181146137635760008415613751578287015190505b61375b85826136dd565b8655506137c3565b601f1984166137718661354d565b60005b8281101561379957848901518255600182019150602085019450602081019050613774565b868310156137b657848901516137b2601f8916826136bf565b8355505b6001600288020188555050505b505050505050565b600081905092915050565b50565b60006137e66000836137cb565b91506137f1826137d6565b600082019050919050565b6000613807826137d9565b9150819050919050565b600081905092915050565b6000613827826129ca565b6138318185613811565b93506138418185602086016129e6565b80840191505092915050565b6000613859828561381c565b9150613865828461381c565b91508190509392505050565b60006040820190506138866000830185612e20565b6138936020830184612e20565b9392505050565b600081519050919050565b600082825260208201905092915050565b60006138c18261389a565b6138cb81856138a5565b93506138db8185602086016129e6565b6138e481612a10565b840191505092915050565b60006080820190506139046000830187612b11565b6139116020830186612b11565b61391e6040830185612e20565b818103606083015261393081846138b6565b905095945050505050565b60008151905061394a8161293b565b92915050565b60006020828403121561396657613965612905565b5b60006139748482850161393b565b9150509291505056fea2646970667358221220203648c20606cde2a92a3e655a8f5a452072a1aaa1b5608b3acc7f13a1da7f4264736f6c634300081c0033",
  "linkReferences": {},
  "deployedLinkReferences": {}
}