{
  "_format": "hh-sol-artifact-1",
  "contractName": "Property",
  "sourceName": "contracts/Property.sol",
  "abi": [
    {
      "inputs": [
        {
          "internalType": "string",
          "name": "name",
          "type": "string"
        },
        {
          "internalType": "string",
          "name": "symbol",
          "type": "string"
        },
        {
          "internalType": "address",
          "name": "initialOwner",
          "type": "address"
        },
        {
          "internalType": "uint24",
          "name": "royaltyBasisPoints",
          "type": "uint24"
        }
      ],
      "stateMutability": "nonpayable",
      "type": "constructor"
    },
    {
      "inputs": [],
      "name": "ERC721EnumerableForbiddenBatchMint",
      "type": "error"
    },
    {
      "inputs": [
        {
          "internalType": "address",
          "name": "sender",
          "type": "address"
        },
        {
          "internalType": "uint256",
          "name": "tokenId",
          "type": "uint256"
        },
        {
          "internalType": "address",
          "name": "owner",
          "type": "address"
        }
      ],
      "name": "ERC721IncorrectOwner",
      "type": "error"
    },
    {
      "inputs": [
        {
          "internalType": "address",
          "name": "operator",
          "type": "address"
        },
        {
          "internalType": "uint256",
          "name": "tokenId",
          "type": "uint256"
        }
      ],
      "name": "ERC721InsufficientApproval",
      "type": "error"
    },
    {
      "inputs": [
        {
          "internalType": "address",
          "name": "approver",
          "type": "address"
        }
      ],
      "name": "ERC721InvalidApprover",
      "type": "error"
    },
    {
      "inputs": [
        {
          "internalType": "address",
          "name": "operator",
          "type": "address"
        }
      ],
      "name": "ERC721InvalidOperator",
      "type": "error"
    },
    {
      "inputs": [
        {
          "internalType": "address",
          "name": "owner",
          "type": "address"
        }
      ],
      "name": "ERC721InvalidOwner",
      "type": "error"
    },
    {
      "inputs": [
        {
          "internalType": "address",
          "name": "receiver",
          "type": "address"
        }
      ],
      "name": "ERC721InvalidReceiver",
      "type": "error"
    },
    {
      "inputs": [
        {
          "internalType": "address",
          "name": "sender",
          "type": "address"
        }
      ],
      "name": "ERC721InvalidSender",
      "type": "error"
    },
    {
      "inputs": [
        {
          "internalType": "uint256",
          "name": "tokenId",
          "type": "uint256"
        }
      ],
      "name": "ERC721NonexistentToken",
      "type": "error"
    },
    {
      "inputs": [
        {
          "internalType": "address",
          "name": "owner",
          "type": "address"
        },
        {
          "internalType": "uint256",
          "name": "index",
          "type": "uint256"
        }
      ],
      "name": "ERC721OutOfBoundsIndex",
      "type": "error"
    },
    {
      "inputs": [],
      "name": "IncorrectPayment",
      "type": "error"
    },
    {
      "inputs": [],
      "name": "InvalidInput",
      "type": "error"
    },
    {
      "inputs": [],
      "name": "NotOwner",
      "type": "error"
    },
    {
      "inputs": [
        {
          "internalType": "address",
          "name": "owner",
          "type": "address"
        }
      ],
      "name": "OwnableInvalidOwner",
      "type": "error"
    },
    {
      "inputs": [
        {
          "internalType": "address",
          "name": "account",
          "type": "address"
        }
      ],
      "name": "OwnableUnauthorizedAccount",
      "type": "error"
    },
    {
      "inputs": [],
      "name": "PropertyNotForSale",
      "type": "error"
    },
    {
      "inputs": [],
      "name": "ReentrancyGuardReentrantCall",
      "type": "error"
    },
    {
      "inputs": [],
      "name": "TransferFailed",
      "type": "error"
    },
    {
      "anonymous": false,
      "inputs": [
        {
          "indexed": true,
          "internalType": "address",
          "name": "owner",
          "type": "address"
        },
        {
          "indexed": true,
          "internalType": "address",
          "name": "approved",
          "type": "address"
        },
        {
          "indexed": true,
          "internalType": "uint256",
          "name": "tokenId",
          "type": "uint256"
        }
      ],
      "name": "Approval",
      "type": "event"
    },
    {
      "anonymous": false,
      "inputs": [
        {
          "indexed": true,
          "internalType": "address",
          "name": "owner",
          "type": "address"
        },
        {
          "indexed": true,
          "internalType": "address",
          "name": "operator",
          "type": "address"
        },
        {
          "indexed": false,
          "internalType": "bool",
          "name": "approved",
          "type": "bool"
        }
      ],
      "name": "ApprovalForAll",
      "type": "event"
    },
    {
      "anonymous": false,
      "inputs": [
        {
          "indexed": false,
          "internalType": "uint256",
          "name": "_fromTokenId",
          "type": "uint256"
        },
        {
          "indexed": false,
          "internalType": "uint256",
          "name": "_toTokenId",
          "type": "uint256"
        }
      ],
      "name": "BatchMetadataUpdate",
      "type": "event"
    },
    {
      "anonymous": false,
      "inputs": [
        {
          "indexed": false,
          "internalType": "uint256",
          "name": "_tokenId",
          "type": "uint256"
        }
      ],
      "name": "MetadataUpdate",
      "type": "event"
    },
    {
      "anonymous": false,
      "inputs": [
        {
          "indexed": true,
          "internalType": "address",
          "name": "previousOwner",
          "type": "address"
        },
        {
          "indexed": true,
          "internalType": "address",
          "name": "newOwner",
          "type": "address"
        }
      ],
      "name": "OwnershipTransferred",
      "type": "event"
    },
    {
      "anonymous": false,
      "inputs": [
        {
          "indexed": true,
          "internalType": "uint256",
          "name": "tokenId",
          "type": "uint256"
        },
        {
          "indexed": true,
          "internalType": "address",
          "name": "owner",
          "type": "address"
        },
        {
          "indexed": false,
          "internalType": "uint256",
          "name": "price",
          "type": "uint256"
        }
      ],
      "name": "PropertyListed",
      "type": "event"
    },
    {
      "anonymous": false,
      "inputs": [
        {
          "indexed": true,
          "internalType": "uint256",
          "name": "tokenId",
          "type": "uint256"
        },
        {
          "indexed": false,
          "internalType": "uint256",
          "name": "oldPrice",
          "type": "uint256"
        },
        {
          "indexed": false,
          "internalType": "uint256",
          "name": "newPrice",
          "type": "uint256"
        }
      ],
      "name": "PropertyPriceChanged",
      "type": "event"
    },
    {
      "anonymous": false,
      "inputs": [
        {
          "indexed": true,
          "internalType": "uint256",
          "name": "tokenId",
          "type": "uint256"
        },
        {
          "indexed": true,
          "internalType": "address",
          "name": "oldOwner",
          "type": "address"
        },
        {
          "indexed": true,
          "internalType": "address",
          "name": "newOwner",
          "type": "address"
        },
        {
          "indexed": false,
          "internalType": "uint256",
          "name": "price",
          "type": "uint256"
        }
      ],
      "name": "PropertySold",
      "type": "event"
    },
    {
      "anonymous": false,
      "inputs": [
        {
          "indexed": true,
          "internalType": "uint256",
          "name": "tokenId",
          "type": "uint256"
        },
        {
          "indexed": false,
          "internalType": "enum Property.PropertyStatus",
          "name": "status",
          "type": "uint8"
        }
      ],
      "name": "PropertyStatusChanged",
      "type": "event"
    },
    {
      "anonymous": false,
      "inputs": [
        {
          "indexed": true,
          "internalType": "address",
          "name": "from",
          "type": "address"
        },
        {
          "indexed": true,
          "internalType": "address",
          "name": "to",
          "type": "address"
        },
        {
          "indexed": true,
          "internalType": "uint256",
          "name": "tokenId",
          "type": "uint256"
        }
      ],
      "name": "Transfer",
      "type": "event"
    },
    {
      "inputs": [],
      "name": "ROYALTY_BASIS",
      "outputs": [
        {
          "internalType": "uint256",
          "name": "",
          "type": "uint256"
        }
      ],
      "stateMutability": "view",
      "type": "function"
    },
    {
      "inputs": [
        {
          "internalType": "uint256",
          "name": "",
          "type": "uint256"
        }
      ],
      "name": "_propertyDetails",
      "outputs": [
        {
          "internalType": "string",
          "name": "location",
          "type": "string"
        },
        {
          "internalType": "uint256",
          "name": "price",
          "type": "uint256"
        },
        {
          "internalType": "enum Property.PropertyStatus",
          "name": "status",
          "type": "uint8"
        },
        {
          "internalType": "uint256",
          "name": "sqFootage",
          "type": "uint256"
        },
        {
          "internalType": "uint256",
          "name": "bedrooms",
          "type": "uint256"
        },
        {
          "internalType": "uint256",
          "name": "bathrooms",
          "type": "uint256"
        },
        {
          "internalType": "uint256",
          "name": "yearBuilt",
          "type": "uint256"
        }
      ],
      "stateMutability": "view",
      "type": "function"
    },
    {
      "inputs": [
        {
          "internalType": "address",
          "name": "to",
          "type": "address"
        },
        {
          "internalType": "uint256",
          "name": "tokenId",
          "type": "uint256"
        }
      ],
      "name": "approve",
      "outputs": [],
      "stateMutability": "nonpayable",
      "type": "function"
    },
    {
      "inputs": [
        {
          "internalType": "address",
          "name": "owner",
          "type": "address"
        }
      ],
      "name": "balanceOf",
      "outputs": [
        {
          "internalType": "uint256",
          "name": "",
          "type": "uint256"
        }
      ],
      "stateMutability": "view",
      "type": "function"
    },
    {
      "inputs": [
        {
          "internalType": "uint256",
          "name": "tokenId",
          "type": "uint256"
        }
      ],
      "name": "buyProperty",
      "outputs": [],
      "stateMutability": "payable",
      "type": "function"
    },
    {
      "inputs": [
        {
          "internalType": "address",
          "name": "to",
          "type": "address"
        },
        {
          "internalType": "string",
          "name": "tokenURI",
          "type": "string"
        },
        {
          "internalType": "string",
          "name": "location",
          "type": "string"
        },
        {
          "internalType": "uint256",
          "name": "price",
          "type": "uint256"
        },
        {
          "internalType": "uint256",
          "name": "sqFootage",
          "type": "uint256"
        },
        {
          "internalType": "uint256",
          "name": "bedrooms",
          "type": "uint256"
        },
        {
          "internalType": "uint256",
          "name": "bathrooms",
          "type": "uint256"
        },
        {
          "internalType": "uint256",
          "name": "yearBuilt",
          "type": "uint256"
        }
      ],
      "name": "createProperty",
      "outputs": [
        {
          "internalType": "uint256",
          "name": "",
          "type": "uint256"
        }
      ],
      "stateMutability": "nonpayable",
      "type": "function"
    },
    {
      "inputs": [
        {
          "internalType": "uint256",
          "name": "tokenId",
          "type": "uint256"
        }
      ],
      "name": "getApproved",
      "outputs": [
        {
          "internalType": "address",
          "name": "",
          "type": "address"
        }
      ],
      "stateMutability": "view",
      "type": "function"
    },
    {
      "inputs": [
        {
          "internalType": "uint256",
          "name": "tokenId",
          "type": "uint256"
        }
      ],
      "name": "getPropertyDetails",
      "outputs": [
        {
          "components": [
            {
              "internalType": "string",
              "name": "location",
              "type": "string"
            },
            {
              "internalType": "uint256",
              "name": "price",
              "type": "uint256"
            },
            {
              "internalType": "enum Property.PropertyStatus",
              "name": "status",
              "type": "uint8"
            },
            {
              "internalType": "uint256",
              "name": "sqFootage",
              "type": "uint256"
            },
            {
              "internalType": "uint256",
              "name": "bedrooms",
              "type": "uint256"
            },
            {
              "internalType": "uint256",
              "name": "bathrooms",
              "type": "uint256"
            },
            {
              "internalType": "uint256",
              "name": "yearBuilt",
              "type": "uint256"
            }
          ],
          "internalType": "struct Property.PropertyDetails",
          "name": "",
          "type": "tuple"
        }
      ],
      "stateMutability": "view",
      "type": "function"
    },
    {
      "inputs": [
        {
          "internalType": "uint256",
          "name": "tokenId",
          "type": "uint256"
        }
      ],
      "name": "getPropertyOwner",
      "outputs": [
        {
          "internalType": "address",
          "name": "",
          "type": "address"
        }
      ],
      "stateMutability": "view",
      "type": "function"
    },
    {
      "inputs": [
        {
          "internalType": "address",
          "name": "owner",
          "type": "address"
        },
        {
          "internalType": "address",
          "name": "operator",
          "type": "address"
        }
      ],
      "name": "isApprovedForAll",
      "outputs": [
        {
          "internalType": "bool",
          "name": "",
          "type": "bool"
        }
      ],
      "stateMutability": "view",
      "type": "function"
    },
    {
      "inputs": [],
      "name": "name",
      "outputs": [
        {
          "internalType": "string",
          "name": "",
          "type": "string"
        }
      ],
      "stateMutability": "view",
      "type": "function"
    },
    {
      "inputs": [],
      "name": "owner",
      "outputs": [
        {
          "internalType": "address",
          "name": "",
          "type": "address"
        }
      ],
      "stateMutability": "view",
      "type": "function"
    },
    {
      "inputs": [
        {
          "internalType": "uint256",
          "name": "tokenId",
          "type": "uint256"
        }
      ],
      "name": "ownerOf",
      "outputs": [
        {
          "internalType": "address",
          "name": "",
          "type": "address"
        }
      ],
      "stateMutability": "view",
      "type": "function"
    },
    {
      "inputs": [],
      "name": "renounceOwnership",
      "outputs": [],
      "stateMutability": "nonpayable",
      "type": "function"
    },
    {
      "inputs": [
        {
          "internalType": "uint256",
          "name": "",
          "type": "uint256"
        },
        {
          "internalType": "uint256",
          "name": "salePrice",
          "type": "uint256"
        }
      ],
      "name": "royaltyInfo",
      "outputs": [
        {
          "internalType": "address",
          "name": "receiver",
          "type": "address"
        },
        {
          "internalType": "uint256",
          "name": "royaltyAmount",
          "type": "uint256"
        }
      ],
      "stateMutability": "view",
      "type": "function"
    },
    {
      "inputs": [
        {
          "internalType": "address",
          "name": "from",
          "type": "address"
        },
        {
          "internalType": "address",
          "name": "to",
          "type": "address"
        },
        {
          "internalType": "uint256",
          "name": "tokenId",
          "type": "uint256"
        }
      ],
      "name": "safeTransferFrom",
      "outputs": [],
      "stateMutability": "nonpayable",
      "type": "function"
    },
    {
      "inputs": [
        {
          "internalType": "address",
          "name": "from",
          "type": "address"
        },
        {
          "internalType": "address",
          "name": "to",
          "type": "address"
        },
        {
          "internalType": "uint256",
          "name": "tokenId",
          "type": "uint256"
        },
        {
          "internalType": "bytes",
          "name": "data",
          "type": "bytes"
        }
      ],
      "name": "safeTransferFrom",
      "outputs": [],
      "stateMutability": "nonpayable",
      "type": "function"
    },
    {
      "inputs": [
        {
          "internalType": "address",
          "name": "operator",
          "type": "address"
        },
        {
          "internalType": "bool",
          "name": "approved",
          "type": "bool"
        }
      ],
      "name": "setApprovalForAll",
      "outputs": [],
      "stateMutability": "nonpayable",
      "type": "function"
    },
    {
      "inputs": [
        {
          "internalType": "bytes4",
          "name": "interfaceId",
          "type": "bytes4"
        }
      ],
      "name": "supportsInterface",
      "outputs": [
        {
          "internalType": "bool",
          "name": "",
          "type": "bool"
        }
      ],
      "stateMutability": "view",
      "type": "function"
    },
    {
      "inputs": [],
      "name": "symbol",
      "outputs": [
        {
          "internalType": "string",
          "name": "",
          "type": "string"
        }
      ],
      "stateMutability": "view",
      "type": "function"
    },
    {
      "inputs": [
        {
          "internalType": "uint256",
          "name": "index",
          "type": "uint256"
        }
      ],
      "name": "tokenByIndex",
      "outputs": [
        {
          "internalType": "uint256",
          "name": "",
          "type": "uint256"
        }
      ],
      "stateMutability": "view",
      "type": "function"
    },
    {
      "inputs": [
        {
          "internalType": "address",
          "name": "owner",
          "type": "address"
        },
        {
          "internalType": "uint256",
          "name": "index",
          "type": "uint256"
        }
      ],
      "name": "tokenOfOwnerByIndex",
      "outputs": [
        {
          "internalType": "uint256",
          "name": "",
          "type": "uint256"
        }
      ],
      "stateMutability": "view",
      "type": "function"
    },
    {
      "inputs": [
        {
          "internalType": "uint256",
          "name": "tokenId",
          "type": "uint256"
        }
      ],
      "name": "tokenURI",
      "outputs": [
        {
          "internalType": "string",
          "name": "",
          "type": "string"
        }
      ],
      "stateMutability": "view",
      "type": "function"
    },
    {
      "inputs": [],
      "name": "totalSupply",
      "outputs": [
        {
          "internalType": "uint256",
          "name": "",
          "type": "uint256"
        }
      ],
      "stateMutability": "view",
      "type": "function"
    },
    {
      "inputs": [
        {
          "internalType": "address",
          "name": "from",
          "type": "address"
        },
        {
          "internalType": "address",
          "name": "to",
          "type": "address"
        },
        {
          "internalType": "uint256",
          "name": "tokenId",
          "type": "uint256"
        }
      ],
      "name": "transferFrom",
      "outputs": [],
      "stateMutability": "nonpayable",
      "type": "function"
    },
    {
      "inputs": [
        {
          "internalType": "address",
          "name": "newOwner",
          "type": "address"
        }
      ],
      "name": "transferOwnership",
      "outputs": [],
      "stateMutability": "nonpayable",
      "type": "function"
    },
    {
      "inputs": [
        {
          "internalType": "uint256",
          "name": "tokenId",
          "type": "uint256"
        },
        {
          "internalType": "uint256",
          "name": "newPrice",
          "type": "uint256"
        }
      ],
      "name": "updatePropertyPrice",
      "outputs": [],
      "stateMutability": "nonpayable",
      "type": "function"
    },
    {
      "inputs": [
        {
          "internalType": "uint256",
          "name": "tokenId",
          "type": "uint256"
        },
        {
          "internalType": "enum Property.PropertyStatus",
          "name": "status",
          "type": "uint8"
        }
      ],
      "name": "updatePropertyStatus",
      "outputs": [],
      "stateMutability": "nonpayable",
      "type": "function"
    }
  ],
  "bytecode": "0x608060405234801561001057600080fd5b5060405161496938038061496983398181016040528101906100329190610467565b33848481600090816100449190610727565b5080600190816100549190610727565b505050600073ffffffffffffffffffffffffffffffffffffffff168173ffffffffffffffffffffffffffffffffffffffff16036100c95760006040517f1e4fbdf70000000000000000000000000000000000000000000000000000000081526004016100c09190610808565b60405180910390fd5b6100d88161019360201b60201c565b506001600c819055506000600d8190555060405180604001604052808373ffffffffffffffffffffffffffffffffffffffff1681526020018262ffffff16815250600f60008201518160000160006101000a81548173ffffffffffffffffffffffffffffffffffffffff021916908373ffffffffffffffffffffffffffffffffffffffff16021790555060208201518160000160146101000a81548162ffffff021916908362ffffff16021790555090505050505050610823565b6000600b60009054906101000a900473ffffffffffffffffffffffffffffffffffffffff16905081600b60006101000a81548173ffffffffffffffffffffffffffffffffffffffff021916908373ffffffffffffffffffffffffffffffffffffffff1602179055508173ffffffffffffffffffffffffffffffffffffffff168173ffffffffffffffffffffffffffffffffffffffff167f8be0079c531659141344cd1fd0a4f28419497f9722a3daafe3b4186f6b6457e060405160405180910390a35050565b6000604051905090565b600080fd5b600080fd5b600080fd5b600080fd5b6000601f19601f8301169050919050565b7f4e487b7100000000000000000000000000000000000000000000000000000000600052604160045260246000fd5b6102c082610277565b810181811067ffffffffffffffff821117156102df576102de610288565b5b80604052505050565b60006102f2610259565b90506102fe82826102b7565b919050565b600067ffffffffffffffff82111561031e5761031d610288565b5b61032782610277565b9050602081019050919050565b60005b83811015610352578082015181840152602081019050610337565b60008484015250505050565b600061037161036c84610303565b6102e8565b90508281526020810184848401111561038d5761038c610272565b5b610398848285610334565b509392505050565b600082601f8301126103b5576103b461026d565b5b81516103c584826020860161035e565b91505092915050565b600073ffffffffffffffffffffffffffffffffffffffff82169050919050565b60006103f9826103ce565b9050919050565b610409816103ee565b811461041457600080fd5b50565b60008151905061042681610400565b92915050565b600062ffffff82169050919050565b6104448161042c565b811461044f57600080fd5b50565b6000815190506104618161043b565b92915050565b6000806000806080858703121561048157610480610263565b5b600085015167ffffffffffffffff81111561049f5761049e610268565b5b6104ab878288016103a0565b945050602085015167ffffffffffffffff8111156104cc576104cb610268565b5b6104d8878288016103a0565b93505060406104e987828801610417565b92505060606104fa87828801610452565b91505092959194509250565b600081519050919050565b7f4e487b7100000000000000000000000000000000000000000000000000000000600052602260045260246000fd5b6000600282049050600182168061055857607f821691505b60208210810361056b5761056a610511565b5b50919050565b60008190508160005260206000209050919050565b60006020601f8301049050919050565b600082821b905092915050565b6000600883026105d37fffffffffffffffffffffffffffffffffffffffffffffffffffffffffffffffff82610596565b6105dd8683610596565b95508019841693508086168417925050509392505050565b6000819050919050565b6000819050919050565b600061062461061f61061a846105f5565b6105ff565b6105f5565b9050919050565b6000819050919050565b61063e83610609565b61065261064a8261062b565b8484546105a3565b825550505050565b600090565b61066761065a565b610672818484610635565b505050565b5b818110156106965761068b60008261065f565b600181019050610678565b5050565b601f8211156106db576106ac81610571565b6106b584610586565b810160208510156106c4578190505b6106d86106d085610586565b830182610677565b50505b505050565b600082821c905092915050565b60006106fe600019846008026106e0565b1980831691505092915050565b600061071783836106ed565b9150826002028217905092915050565b61073082610506565b67ffffffffffffffff81111561074957610748610288565b5b6107538254610540565b61075e82828561069a565b600060209050601f831160018114610791576000841561077f578287015190505b610789858261070b565b8655506107f1565b601f19841661079f86610571565b60005b828110156107c7578489015182556001820191506020850194506020810190506107a2565b868310156107e457848901516107e0601f8916826106ed565b8355505b6001600288020188555050505b505050505050565b610802816103ee565b82525050565b600060208201905061081d60008301846107f9565b92915050565b614137806108326000396000f3fe6080604052600436106101b75760003560e01c80636fa830a6116100ec578063b88d4fde1161008a578063e34fc53111610064578063e34fc53114610662578063e985e9c51461069f578063f2fde38b146106dc578063fce401b214610705576101b7565b8063b88d4fde146105d1578063c6ca0af5146105fa578063c87b56dd14610625576101b7565b80638da5cb5b116100c65780638da5cb5b1461050f57806395d89b411461053a578063a22cb46514610565578063a5c55bc11461058e576101b7565b80636fa830a61461049f57806370a08231146104bb578063715018a6146104f8576101b7565b80632a55205a1161015957806342f93c3f1161013357806342f93c3f146103bf5780634f6ccce7146103fc578063564c0aec146104395780636352211e14610462576101b7565b80632a55205a1461031b5780632f745c591461035957806342842e0e14610396576101b7565b8063095ea7b311610195578063095ea7b314610261578063126dbe431461028a57806318160ddd146102c757806323b872dd146102f2576101b7565b806301ffc9a7146101bc57806306fdde03146101f9578063081812fc14610224575b600080fd5b3480156101c857600080fd5b506101e360048036038101906101de9190613088565b61072e565b6040516101f091906130d0565b60405180910390f35b34801561020557600080fd5b5061020e6107a8565b60405161021b919061317b565b60405180910390f35b34801561023057600080fd5b5061024b600480360381019061024691906131d3565b61083a565b6040516102589190613241565b60405180910390f35b34801561026d57600080fd5b5061028860048036038101906102839190613288565b610856565b005b34801561029657600080fd5b506102b160048036038101906102ac91906131d3565b61086c565b6040516102be9190613434565b60405180910390f35b3480156102d357600080fd5b506102dc6109a2565b6040516102e99190613465565b60405180910390f35b3480156102fe57600080fd5b5061031960048036038101906103149190613480565b6109af565b005b34801561032757600080fd5b50610342600480360381019061033d91906134d3565b610ab1565b604051610350929190613513565b60405180910390f35b34801561036557600080fd5b50610380600480360381019061037b9190613288565b610b17565b60405161038d9190613465565b60405180910390f35b3480156103a257600080fd5b506103bd60048036038101906103b89190613480565b610bc0565b005b3480156103cb57600080fd5b506103e660048036038101906103e19190613671565b610be0565b6040516103f39190613465565b60405180910390f35b34801561040857600080fd5b50610423600480360381019061041e91906131d3565b610e09565b6040516104309190613465565b60405180910390f35b34801561044557600080fd5b50610460600480360381019061045b9190613784565b610e7f565b005b34801561046e57600080fd5b50610489600480360381019061048491906131d3565b611051565b6040516104969190613241565b60405180910390f35b6104b960048036038101906104b491906131d3565b611063565b005b3480156104c757600080fd5b506104e260048036038101906104dd91906137c4565b61128a565b6040516104ef9190613465565b60405180910390f35b34801561050457600080fd5b5061050d611344565b005b34801561051b57600080fd5b50610524611358565b6040516105319190613241565b60405180910390f35b34801561054657600080fd5b5061054f611382565b60405161055c919061317b565b60405180910390f35b34801561057157600080fd5b5061058c6004803603810190610587919061381d565b611414565b005b34801561059a57600080fd5b506105b560048036038101906105b091906131d3565b61142a565b6040516105c8979695949392919061386c565b60405180910390f35b3480156105dd57600080fd5b506105f860048036038101906105f39190613983565b611501565b005b34801561060657600080fd5b5061060f611526565b60405161061c9190613465565b60405180910390f35b34801561063157600080fd5b5061064c600480360381019061064791906131d3565b61152c565b604051610659919061317b565b60405180910390f35b34801561066e57600080fd5b50610689600480360381019061068491906131d3565b61153e565b6040516106969190613241565b60405180910390f35b3480156106ab57600080fd5b506106c660048036038101906106c19190613a06565b611550565b6040516106d391906130d0565b60405180910390f35b3480156106e857600080fd5b5061070360048036038101906106fe91906137c4565b6115e4565b005b34801561071157600080fd5b5061072c600480360381019061072791906134d3565b61166a565b005b60007f2a55205a000000000000000000000000000000000000000000000000000000007bffffffffffffffffffffffffffffffffffffffffffffffffffffffff1916827bffffffffffffffffffffffffffffffffffffffffffffffffffffffff191614806107a157506107a082611830565b5b9050919050565b6060600080546107b790613a75565b80601f01602080910402602001604051908101604052809291908181526020018280546107e390613a75565b80156108305780601f1061080557610100808354040283529160200191610830565b820191906000526020600020905b81548152906001019060200180831161081357829003601f168201915b5050505050905090565b6000610845826118aa565b5061084f82611932565b9050919050565b610868828261086361196f565b611977565b5050565b610874612fcd565b61087d82611051565b50600e60008381526020019081526020016000206040518060e00160405290816000820180546108ac90613a75565b80601f01602080910402602001604051908101604052809291908181526020018280546108d890613a75565b80156109255780601f106108fa57610100808354040283529160200191610925565b820191906000526020600020905b81548152906001019060200180831161090857829003601f168201915b50505050508152602001600182015481526020016002820160009054906101000a900460ff16600281111561095d5761095c613321565b5b600281111561096f5761096e613321565b5b81526020016003820154815260200160048201548152602001600582015481526020016006820154815250509050919050565b6000600980549050905090565b600073ffffffffffffffffffffffffffffffffffffffff168273ffffffffffffffffffffffffffffffffffffffff1603610a215760006040517f64a0ae92000000000000000000000000000000000000000000000000000000008152600401610a189190613241565b60405180910390fd5b6000610a358383610a3061196f565b611989565b90508373ffffffffffffffffffffffffffffffffffffffff168173ffffffffffffffffffffffffffffffffffffffff1614610aab578382826040517f64283d7b000000000000000000000000000000000000000000000000000000008152600401610aa293929190613aa6565b60405180910390fd5b50505050565b600080612710600f60000160149054906101000a900462ffffff1662ffffff1684610adc9190613b0c565b610ae69190613b7d565b9050600f60000160009054906101000a900473ffffffffffffffffffffffffffffffffffffffff1691509250929050565b6000610b228361128a565b8210610b675782826040517fa57d13dc000000000000000000000000000000000000000000000000000000008152600401610b5e929190613513565b60405180910390fd5b600760008473ffffffffffffffffffffffffffffffffffffffff1673ffffffffffffffffffffffffffffffffffffffff168152602001908152602001600020600083815260200190815260200160002054905092915050565b610bdb83838360405180602001604052806000815250611501565b505050565b6000610bea61199f565b600088511480610bfb575060008751145b15610c32576040517fb4fa3fb300000000000000000000000000000000000000000000000000000000815260040160405180910390fd5b6000861480610c415750600085145b80610c4c5750600084145b80610c575750600083145b80610c625750600082145b15610c99576040517fb4fa3fb300000000000000000000000000000000000000000000000000000000815260040160405180910390fd5b6001600d6000828254610cac9190613bae565b925050819055506000600d549050610cc433826119e5565b610cce818a611ade565b6040518060e0016040528089815260200188815260200160006002811115610cf957610cf8613321565b5b815260200187815260200186815260200185815260200184815250600e60008381526020019081526020016000206000820151816000019081610d3c9190613d8e565b506020820151816001015560408201518160020160006101000a81548160ff02191690836002811115610d7257610d71613321565b5b0217905550606082015181600301556080820151816004015560a0820151816005015560c082015181600601559050503373ffffffffffffffffffffffffffffffffffffffff16817f23fb658c1698b92f5fe511a079c17ecf7965cbc3f1b873328c67e2c3c0820f1f89604051610de99190613465565b60405180910390a380915050610dfd611b3a565b98975050505050505050565b6000610e136109a2565b8210610e59576000826040517fa57d13dc000000000000000000000000000000000000000000000000000000008152600401610e50929190613513565b60405180910390fd5b60098281548110610e6d57610e6c613e60565b5b90600052602060002001549050919050565b3073ffffffffffffffffffffffffffffffffffffffff16636352211e836040518263ffffffff1660e01b8152600401610eb89190613465565b602060405180830381865afa925050508015610ef257506040513d601f19601f82011682018060405250810190610eef9190613ea4565b60015b610f28576040517fb4fa3fb300000000000000000000000000000000000000000000000000000000815260040160405180910390fd5b503373ffffffffffffffffffffffffffffffffffffffff16610f4983611051565b73ffffffffffffffffffffffffffffffffffffffff1614158015610fa057503373ffffffffffffffffffffffffffffffffffffffff16610f87611358565b73ffffffffffffffffffffffffffffffffffffffff1614155b15610fd7576040517f30cd747100000000000000000000000000000000000000000000000000000000815260040160405180910390fd5b80600e600084815260200190815260200160002060020160006101000a81548160ff021916908360028111156110105761100f613321565b5b0217905550817fc9ad6f316a0c29919c9b20c406f1baca1b93c196df6515c9e236a803e8a50c13826040516110459190613ed1565b60405180910390a25050565b600061105c826118aa565b9050919050565b61106b61199f565b6000600e600083815260200190815260200160002090506000600281111561109657611095613321565b5b8160020160009054906101000a900460ff1660028111156110ba576110b9613321565b5b146110f1576040517fa68cba2400000000000000000000000000000000000000000000000000000000815260040160405180910390fd5b8060010154341461112e576040517f569e8c1100000000000000000000000000000000000000000000000000000000815260040160405180910390fd5b600061113983611051565b9050611146813385611b44565b60028260020160006101000a81548160ff0219169083600281111561116e5761116d613321565b5b021790555060008173ffffffffffffffffffffffffffffffffffffffff163460405161119990613f1d565b60006040518083038185875af1925050503d80600081146111d6576040519150601f19603f3d011682016040523d82523d6000602084013e6111db565b606091505b5050905080611216576040517f90b8ec1800000000000000000000000000000000000000000000000000000000815260040160405180910390fd5b3373ffffffffffffffffffffffffffffffffffffffff168273ffffffffffffffffffffffffffffffffffffffff16857fddd64180d9701c7ede08673ac8106484ff983a472929330d4fbde4e35d65cb06346040516112749190613465565b60405180910390a4505050611287611b3a565b50565b60008073ffffffffffffffffffffffffffffffffffffffff168273ffffffffffffffffffffffffffffffffffffffff16036112fd5760006040517f89c62b640000000000000000000000000000000000000000000000000000000081526004016112f49190613241565b60405180910390fd5b600360008373ffffffffffffffffffffffffffffffffffffffff1673ffffffffffffffffffffffffffffffffffffffff168152602001908152602001600020549050919050565b61134c611cb1565b6113566000611d38565b565b6000600b60009054906101000a900473ffffffffffffffffffffffffffffffffffffffff16905090565b60606001805461139190613a75565b80601f01602080910402602001604051908101604052809291908181526020018280546113bd90613a75565b801561140a5780601f106113df5761010080835404028352916020019161140a565b820191906000526020600020905b8154815290600101906020018083116113ed57829003601f168201915b5050505050905090565b61142661141f61196f565b8383611dfe565b5050565b600e60205280600052604060002060009150905080600001805461144d90613a75565b80601f016020809104026020016040519081016040528092919081815260200182805461147990613a75565b80156114c65780601f1061149b576101008083540402835291602001916114c6565b820191906000526020600020905b8154815290600101906020018083116114a957829003601f168201915b5050505050908060010154908060020160009054906101000a900460ff16908060030154908060040154908060050154908060060154905087565b61150c8484846109af565b61152061151761196f565b85858585611f6d565b50505050565b61271081565b60606115378261211e565b9050919050565b600061154982611051565b9050919050565b6000600560008473ffffffffffffffffffffffffffffffffffffffff1673ffffffffffffffffffffffffffffffffffffffff16815260200190815260200160002060008373ffffffffffffffffffffffffffffffffffffffff1673ffffffffffffffffffffffffffffffffffffffff16815260200190815260200160002060009054906101000a900460ff16905092915050565b6115ec611cb1565b600073ffffffffffffffffffffffffffffffffffffffff168173ffffffffffffffffffffffffffffffffffffffff160361165e5760006040517f1e4fbdf70000000000000000000000000000000000000000000000000000000081526004016116559190613241565b60405180910390fd5b61166781611d38565b50565b3073ffffffffffffffffffffffffffffffffffffffff16636352211e836040518263ffffffff1660e01b81526004016116a39190613465565b602060405180830381865afa9250505080156116dd57506040513d601f19601f820116820180604052508101906116da9190613ea4565b60015b611713576040517fb4fa3fb300000000000000000000000000000000000000000000000000000000815260040160405180910390fd5b503373ffffffffffffffffffffffffffffffffffffffff1661173483611051565b73ffffffffffffffffffffffffffffffffffffffff1614611781576040517f30cd747100000000000000000000000000000000000000000000000000000000815260040160405180910390fd5b600081036117bb576040517fb4fa3fb300000000000000000000000000000000000000000000000000000000815260040160405180910390fd5b6000600e600084815260200190815260200160002060010154905081600e600085815260200190815260200160002060010181905550827fe5f28e34d1b7307cdc088bf0efdf0d985e62941da9ef9b491898f6f2b8cf0a0b8284604051611823929190613f32565b60405180910390a2505050565b60007f780e9d63000000000000000000000000000000000000000000000000000000007bffffffffffffffffffffffffffffffffffffffffffffffffffffffff1916827bffffffffffffffffffffffffffffffffffffffffffffffffffffffff191614806118a357506118a282612231565b5b9050919050565b6000806118b683612292565b9050600073ffffffffffffffffffffffffffffffffffffffff168173ffffffffffffffffffffffffffffffffffffffff160361192957826040517f7e2732890000000000000000000000000000000000000000000000000000000081526004016119209190613465565b60405180910390fd5b80915050919050565b60006004600083815260200190815260200160002060009054906101000a900473ffffffffffffffffffffffffffffffffffffffff169050919050565b600033905090565b61198483838360016122cf565b505050565b6000611996848484612494565b90509392505050565b6002600c54036119db576040517f3ee5aeb500000000000000000000000000000000000000000000000000000000815260040160405180910390fd5b6002600c81905550565b600073ffffffffffffffffffffffffffffffffffffffff168273ffffffffffffffffffffffffffffffffffffffff1603611a575760006040517f64a0ae92000000000000000000000000000000000000000000000000000000008152600401611a4e9190613241565b60405180910390fd5b6000611a6583836000611989565b9050600073ffffffffffffffffffffffffffffffffffffffff168173ffffffffffffffffffffffffffffffffffffffff1614611ad95760006040517f73c6ac6e000000000000000000000000000000000000000000000000000000008152600401611ad09190613241565b60405180910390fd5b505050565b80600660008481526020019081526020016000209081611afe9190613d8e565b507ff8e1a15aba9398e019f0b49df1a4fde98ee17ae345cb5f6b5e2c27f5033e8ce782604051611b2e9190613465565b60405180910390a15050565b6001600c81905550565b600073ffffffffffffffffffffffffffffffffffffffff168273ffffffffffffffffffffffffffffffffffffffff1603611bb65760006040517f64a0ae92000000000000000000000000000000000000000000000000000000008152600401611bad9190613241565b60405180910390fd5b6000611bc483836000611989565b9050600073ffffffffffffffffffffffffffffffffffffffff168173ffffffffffffffffffffffffffffffffffffffff1603611c3757816040517f7e273289000000000000000000000000000000000000000000000000000000008152600401611c2e9190613465565b60405180910390fd5b8373ffffffffffffffffffffffffffffffffffffffff168173ffffffffffffffffffffffffffffffffffffffff1614611cab578382826040517f64283d7b000000000000000000000000000000000000000000000000000000008152600401611ca293929190613aa6565b60405180910390fd5b50505050565b611cb961196f565b73ffffffffffffffffffffffffffffffffffffffff16611cd7611358565b73ffffffffffffffffffffffffffffffffffffffff1614611d3657611cfa61196f565b6040517f118cdaa7000000000000000000000000000000000000000000000000000000008152600401611d2d9190613241565b60405180910390fd5b565b6000600b60009054906101000a900473ffffffffffffffffffffffffffffffffffffffff16905081600b60006101000a81548173ffffffffffffffffffffffffffffffffffffffff021916908373ffffffffffffffffffffffffffffffffffffffff1602179055508173ffffffffffffffffffffffffffffffffffffffff168173ffffffffffffffffffffffffffffffffffffffff167f8be0079c531659141344cd1fd0a4f28419497f9722a3daafe3b4186f6b6457e060405160405180910390a35050565b600073ffffffffffffffffffffffffffffffffffffffff168273ffffffffffffffffffffffffffffffffffffffff1603611e6f57816040517f5b08ba18000000000000000000000000000000000000000000000000000000008152600401611e669190613241565b60405180910390fd5b80600560008573ffffffffffffffffffffffffffffffffffffffff1673ffffffffffffffffffffffffffffffffffffffff16815260200190815260200160002060008473ffffffffffffffffffffffffffffffffffffffff1673ffffffffffffffffffffffffffffffffffffffff16815260200190815260200160002060006101000a81548160ff0219169083151502179055508173ffffffffffffffffffffffffffffffffffffffff168373ffffffffffffffffffffffffffffffffffffffff167f17307eab39ab6107e8899845ad3d59bd9653f200f220920489ca2b5937696c3183604051611f6091906130d0565b60405180910390a3505050565b60008373ffffffffffffffffffffffffffffffffffffffff163b1115612117578273ffffffffffffffffffffffffffffffffffffffff1663150b7a02868685856040518563ffffffff1660e01b8152600401611fcc9493929190613fb0565b6020604051808303816000875af192505050801561200857506040513d601f19601f820116820180604052508101906120059190614011565b60015b61208c573d8060008114612038576040519150601f19603f3d011682016040523d82523d6000602084013e61203d565b606091505b50600081510361208457836040517f64a0ae9200000000000000000000000000000000000000000000000000000000815260040161207b9190613241565b60405180910390fd5b805181602001fd5b63150b7a0260e01b7bffffffffffffffffffffffffffffffffffffffffffffffffffffffff1916817bffffffffffffffffffffffffffffffffffffffffffffffffffffffff19161461211557836040517f64a0ae9200000000000000000000000000000000000000000000000000000000815260040161210c9190613241565b60405180910390fd5b505b5050505050565b6060612129826118aa565b50600060066000848152602001908152602001600020805461214a90613a75565b80601f016020809104026020016040519081016040528092919081815260200182805461217690613a75565b80156121c35780601f10612198576101008083540402835291602001916121c3565b820191906000526020600020905b8154815290600101906020018083116121a657829003601f168201915b5050505050905060006121d46125b1565b905060008151036121e957819250505061222c565b60008251111561221e57808260405160200161220692919061407a565b6040516020818303038152906040529250505061222c565b612227846125c8565b925050505b919050565b6000634906490660e01b7bffffffffffffffffffffffffffffffffffffffffffffffffffffffff1916827bffffffffffffffffffffffffffffffffffffffffffffffffffffffff1916148061228b575061228a82612631565b5b9050919050565b60006002600083815260200190815260200160002060009054906101000a900473ffffffffffffffffffffffffffffffffffffffff169050919050565b80806123085750600073ffffffffffffffffffffffffffffffffffffffff168273ffffffffffffffffffffffffffffffffffffffff1614155b1561243c576000612318846118aa565b9050600073ffffffffffffffffffffffffffffffffffffffff168373ffffffffffffffffffffffffffffffffffffffff161415801561238357508273ffffffffffffffffffffffffffffffffffffffff168173ffffffffffffffffffffffffffffffffffffffff1614155b801561239657506123948184611550565b155b156123d857826040517fa9fbf51f0000000000000000000000000000000000000000000000000000000081526004016123cf9190613241565b60405180910390fd5b811561243a57838573ffffffffffffffffffffffffffffffffffffffff168273ffffffffffffffffffffffffffffffffffffffff167f8c5be1e5ebec7d5bd14f71427d1e84f3dd0314c0f7b2291e5b200ac8c7c3b92560405160405180910390a45b505b836004600085815260200190815260200160002060006101000a81548173ffffffffffffffffffffffffffffffffffffffff021916908373ffffffffffffffffffffffffffffffffffffffff16021790555050505050565b6000806124a2858585612713565b9050600073ffffffffffffffffffffffffffffffffffffffff168173ffffffffffffffffffffffffffffffffffffffff16036124e6576124e18461292d565b612525565b8473ffffffffffffffffffffffffffffffffffffffff168173ffffffffffffffffffffffffffffffffffffffff1614612524576125238185612976565b5b5b600073ffffffffffffffffffffffffffffffffffffffff168573ffffffffffffffffffffffffffffffffffffffff16036125675761256284612a61565b6125a6565b8473ffffffffffffffffffffffffffffffffffffffff168173ffffffffffffffffffffffffffffffffffffffff16146125a5576125a48585612b32565b5b5b809150509392505050565b606060405180602001604052806000815250905090565b60606125d3826118aa565b5060006125de6125b1565b905060008151116125fe5760405180602001604052806000815250612629565b8061260884612bbd565b60405160200161261992919061407a565b6040516020818303038152906040525b915050919050565b60007f80ac58cd000000000000000000000000000000000000000000000000000000007bffffffffffffffffffffffffffffffffffffffffffffffffffffffff1916827bffffffffffffffffffffffffffffffffffffffffffffffffffffffff191614806126fc57507f5b5e139f000000000000000000000000000000000000000000000000000000007bffffffffffffffffffffffffffffffffffffffffffffffffffffffff1916827bffffffffffffffffffffffffffffffffffffffffffffffffffffffff1916145b8061270c575061270b82612c8b565b5b9050919050565b60008061271f84612292565b9050600073ffffffffffffffffffffffffffffffffffffffff168373ffffffffffffffffffffffffffffffffffffffff161461276157612760818486612cf5565b5b600073ffffffffffffffffffffffffffffffffffffffff168173ffffffffffffffffffffffffffffffffffffffff16146127f2576127a36000856000806122cf565b6001600360008373ffffffffffffffffffffffffffffffffffffffff1673ffffffffffffffffffffffffffffffffffffffff168152602001908152602001600020600082825403925050819055505b600073ffffffffffffffffffffffffffffffffffffffff168573ffffffffffffffffffffffffffffffffffffffff1614612875576001600360008773ffffffffffffffffffffffffffffffffffffffff1673ffffffffffffffffffffffffffffffffffffffff168152602001908152602001600020600082825401925050819055505b846002600086815260200190815260200160002060006101000a81548173ffffffffffffffffffffffffffffffffffffffff021916908373ffffffffffffffffffffffffffffffffffffffff160217905550838573ffffffffffffffffffffffffffffffffffffffff168273ffffffffffffffffffffffffffffffffffffffff167fddf252ad1be2c89b69c2b068fc378daa952ba7f163c4a11628f55a4df523b3ef60405160405180910390a4809150509392505050565b600980549050600a600083815260200190815260200160002081905550600981908060018154018082558091505060019003906000526020600020016000909190919091505550565b60006129818361128a565b90506000600860008481526020019081526020016000205490506000600760008673ffffffffffffffffffffffffffffffffffffffff1673ffffffffffffffffffffffffffffffffffffffff1681526020019081526020016000209050828214612a2d5760008160008581526020019081526020016000205490508082600085815260200190815260200160002081905550826008600083815260200190815260200160002081905550505b6008600085815260200190815260200160002060009055806000848152602001908152602001600020600090555050505050565b60006001600980549050612a75919061409e565b90506000600a6000848152602001908152602001600020549050600060098381548110612aa557612aa4613e60565b5b906000526020600020015490508060098381548110612ac757612ac6613e60565b5b906000526020600020018190555081600a600083815260200190815260200160002081905550600a6000858152602001908152602001600020600090556009805480612b1657612b156140d2565b5b6001900381819060005260206000200160009055905550505050565b60006001612b3f8461128a565b612b49919061409e565b905081600760008573ffffffffffffffffffffffffffffffffffffffff1673ffffffffffffffffffffffffffffffffffffffff168152602001908152602001600020600083815260200190815260200160002081905550806008600084815260200190815260200160002081905550505050565b606060006001612bcc84612db9565b01905060008167ffffffffffffffff811115612beb57612bea613546565b5b6040519080825280601f01601f191660200182016040528015612c1d5781602001600182028036833780820191505090505b509050600082602001820190505b600115612c80578080600190039150507f3031323334353637383961626364656600000000000000000000000000000000600a86061a8153600a8581612c7457612c73613b4e565b5b04945060008503612c2b575b819350505050919050565b60007f01ffc9a7000000000000000000000000000000000000000000000000000000007bffffffffffffffffffffffffffffffffffffffffffffffffffffffff1916827bffffffffffffffffffffffffffffffffffffffffffffffffffffffff1916149050919050565b612d00838383612f0c565b612db457600073ffffffffffffffffffffffffffffffffffffffff168373ffffffffffffffffffffffffffffffffffffffff1603612d7557806040517f7e273289000000000000000000000000000000000000000000000000000000008152600401612d6c9190613465565b60405180910390fd5b81816040517f177e802f000000000000000000000000000000000000000000000000000000008152600401612dab929190613513565b60405180910390fd5b505050565b600080600090507a184f03e93ff9f4daa797ed6e38ed64bf6a1f0100000000000000008310612e17577a184f03e93ff9f4daa797ed6e38ed64bf6a1f0100000000000000008381612e0d57612e0c613b4e565b5b0492506040810190505b6d04ee2d6d415b85acef81000000008310612e54576d04ee2d6d415b85acef81000000008381612e4a57612e49613b4e565b5b0492506020810190505b662386f26fc100008310612e8357662386f26fc100008381612e7957612e78613b4e565b5b0492506010810190505b6305f5e1008310612eac576305f5e1008381612ea257612ea1613b4e565b5b0492506008810190505b6127108310612ed1576127108381612ec757612ec6613b4e565b5b0492506004810190505b60648310612ef45760648381612eea57612ee9613b4e565b5b0492506002810190505b600a8310612f03576001810190505b80915050919050565b60008073ffffffffffffffffffffffffffffffffffffffff168373ffffffffffffffffffffffffffffffffffffffff1614158015612fc457508273ffffffffffffffffffffffffffffffffffffffff168473ffffffffffffffffffffffffffffffffffffffff161480612f855750612f848484611550565b5b80612fc357508273ffffffffffffffffffffffffffffffffffffffff16612fab83611932565b73ffffffffffffffffffffffffffffffffffffffff16145b5b90509392505050565b6040518060e00160405280606081526020016000815260200160006002811115612ffa57612ff9613321565b5b8152602001600081526020016000815260200160008152602001600081525090565b6000604051905090565b600080fd5b600080fd5b60007fffffffff0000000000000000000000000000000000000000000000000000000082169050919050565b61306581613030565b811461307057600080fd5b50565b6000813590506130828161305c565b92915050565b60006020828403121561309e5761309d613026565b5b60006130ac84828501613073565b91505092915050565b60008115159050919050565b6130ca816130b5565b82525050565b60006020820190506130e560008301846130c1565b92915050565b600081519050919050565b600082825260208201905092915050565b60005b8381101561312557808201518184015260208101905061310a565b60008484015250505050565b6000601f19601f8301169050919050565b600061314d826130eb565b61315781856130f6565b9350613167818560208601613107565b61317081613131565b840191505092915050565b600060208201905081810360008301526131958184613142565b905092915050565b6000819050919050565b6131b08161319d565b81146131bb57600080fd5b50565b6000813590506131cd816131a7565b92915050565b6000602082840312156131e9576131e8613026565b5b60006131f7848285016131be565b91505092915050565b600073ffffffffffffffffffffffffffffffffffffffff82169050919050565b600061322b82613200565b9050919050565b61323b81613220565b82525050565b60006020820190506132566000830184613232565b92915050565b61326581613220565b811461327057600080fd5b50565b6000813590506132828161325c565b92915050565b6000806040838503121561329f5761329e613026565b5b60006132ad85828601613273565b92505060206132be858286016131be565b9150509250929050565b600082825260208201905092915050565b60006132e4826130eb565b6132ee81856132c8565b93506132fe818560208601613107565b61330781613131565b840191505092915050565b61331b8161319d565b82525050565b7f4e487b7100000000000000000000000000000000000000000000000000000000600052602160045260246000fd5b6003811061336157613360613321565b5b50565b600081905061337282613350565b919050565b600061338282613364565b9050919050565b61339281613377565b82525050565b600060e08301600083015184820360008601526133b582826132d9565b91505060208301516133ca6020860182613312565b5060408301516133dd6040860182613389565b5060608301516133f06060860182613312565b5060808301516134036080860182613312565b5060a083015161341660a0860182613312565b5060c083015161342960c0860182613312565b508091505092915050565b6000602082019050818103600083015261344e8184613398565b905092915050565b61345f8161319d565b82525050565b600060208201905061347a6000830184613456565b92915050565b60008060006060848603121561349957613498613026565b5b60006134a786828701613273565b93505060206134b886828701613273565b92505060406134c9868287016131be565b9150509250925092565b600080604083850312156134ea576134e9613026565b5b60006134f8858286016131be565b9250506020613509858286016131be565b9150509250929050565b60006040820190506135286000830185613232565b6135356020830184613456565b9392505050565b600080fd5b600080fd5b7f4e487b7100000000000000000000000000000000000000000000000000000000600052604160045260246000fd5b61357e82613131565b810181811067ffffffffffffffff8211171561359d5761359c613546565b5b80604052505050565b60006135b061301c565b90506135bc8282613575565b919050565b600067ffffffffffffffff8211156135dc576135db613546565b5b6135e582613131565b9050602081019050919050565b82818337600083830152505050565b600061361461360f846135c1565b6135a6565b9050828152602081018484840111156136305761362f613541565b5b61363b8482856135f2565b509392505050565b600082601f8301126136585761365761353c565b5b8135613668848260208601613601565b91505092915050565b600080600080600080600080610100898b03121561369257613691613026565b5b60006136a08b828c01613273565b985050602089013567ffffffffffffffff8111156136c1576136c061302b565b5b6136cd8b828c01613643565b975050604089013567ffffffffffffffff8111156136ee576136ed61302b565b5b6136fa8b828c01613643565b965050606061370b8b828c016131be565b955050608061371c8b828c016131be565b94505060a061372d8b828c016131be565b93505060c061373e8b828c016131be565b92505060e061374f8b828c016131be565b9150509295985092959890939650565b6003811061376c57600080fd5b50565b60008135905061377e8161375f565b92915050565b6000806040838503121561379b5761379a613026565b5b60006137a9858286016131be565b92505060206137ba8582860161376f565b9150509250929050565b6000602082840312156137da576137d9613026565b5b60006137e884828501613273565b91505092915050565b6137fa816130b5565b811461380557600080fd5b50565b600081359050613817816137f1565b92915050565b6000806040838503121561383457613833613026565b5b600061384285828601613273565b925050602061385385828601613808565b9150509250929050565b61386681613377565b82525050565b600060e0820190508181036000830152613886818a613142565b90506138956020830189613456565b6138a2604083018861385d565b6138af6060830187613456565b6138bc6080830186613456565b6138c960a0830185613456565b6138d660c0830184613456565b98975050505050505050565b600067ffffffffffffffff8211156138fd576138fc613546565b5b61390682613131565b9050602081019050919050565b6000613926613921846138e2565b6135a6565b90508281526020810184848401111561394257613941613541565b5b61394d8482856135f2565b509392505050565b600082601f83011261396a5761396961353c565b5b813561397a848260208601613913565b91505092915050565b6000806000806080858703121561399d5761399c613026565b5b60006139ab87828801613273565b94505060206139bc87828801613273565b93505060406139cd878288016131be565b925050606085013567ffffffffffffffff8111156139ee576139ed61302b565b5b6139fa87828801613955565b91505092959194509250565b60008060408385031215613a1d57613a1c613026565b5b6000613a2b85828601613273565b9250506020613a3c85828601613273565b9150509250929050565b7f4e487b7100000000000000000000000000000000000000000000000000000000600052602260045260246000fd5b60006002820490506001821680613a8d57607f821691505b602082108103613aa057613a9f613a46565b5b50919050565b6000606082019050613abb6000830186613232565b613ac86020830185613456565b613ad56040830184613232565b949350505050565b7f4e487b7100000000000000000000000000000000000000000000000000000000600052601160045260246000fd5b6000613b178261319d565b9150613b228361319d565b9250828202613b308161319d565b91508282048414831517613b4757613b46613add565b5b5092915050565b7f4e487b7100000000000000000000000000000000000000000000000000000000600052601260045260246000fd5b6000613b888261319d565b9150613b938361319d565b925082613ba357613ba2613b4e565b5b828204905092915050565b6000613bb98261319d565b9150613bc48361319d565b9250828201905080821115613bdc57613bdb613add565b5b92915050565b60008190508160005260206000209050919050565b60006020601f8301049050919050565b600082821b905092915050565b600060088302613c447fffffffffffffffffffffffffffffffffffffffffffffffffffffffffffffffff82613c07565b613c4e8683613c07565b95508019841693508086168417925050509392505050565b6000819050919050565b6000613c8b613c86613c818461319d565b613c66565b61319d565b9050919050565b6000819050919050565b613ca583613c70565b613cb9613cb182613c92565b848454613c14565b825550505050565b600090565b613cce613cc1565b613cd9818484613c9c565b505050565b5b81811015613cfd57613cf2600082613cc6565b600181019050613cdf565b5050565b601f821115613d4257613d1381613be2565b613d1c84613bf7565b81016020851015613d2b578190505b613d3f613d3785613bf7565b830182613cde565b50505b505050565b600082821c905092915050565b6000613d6560001984600802613d47565b1980831691505092915050565b6000613d7e8383613d54565b9150826002028217905092915050565b613d97826130eb565b67ffffffffffffffff811115613db057613daf613546565b5b613dba8254613a75565b613dc5828285613d01565b600060209050601f831160018114613df85760008415613de6578287015190505b613df08582613d72565b865550613e58565b601f198416613e0686613be2565b60005b82811015613e2e57848901518255600182019150602085019450602081019050613e09565b86831015613e4b5784890151613e47601f891682613d54565b8355505b6001600288020188555050505b505050505050565b7f4e487b7100000000000000000000000000000000000000000000000000000000600052603260045260246000fd5b600081519050613e9e8161325c565b92915050565b600060208284031215613eba57613eb9613026565b5b6000613ec884828501613e8f565b91505092915050565b6000602082019050613ee6600083018461385d565b92915050565b600081905092915050565b50565b6000613f07600083613eec565b9150613f1282613ef7565b600082019050919050565b6000613f2882613efa565b9150819050919050565b6000604082019050613f476000830185613456565b613f546020830184613456565b9392505050565b600081519050919050565b600082825260208201905092915050565b6000613f8282613f5b565b613f8c8185613f66565b9350613f9c818560208601613107565b613fa581613131565b840191505092915050565b6000608082019050613fc56000830187613232565b613fd26020830186613232565b613fdf6040830185613456565b8181036060830152613ff18184613f77565b905095945050505050565b60008151905061400b8161305c565b92915050565b60006020828403121561402757614026613026565b5b600061403584828501613ffc565b91505092915050565b600081905092915050565b6000614054826130eb565b61405e818561403e565b935061406e818560208601613107565b80840191505092915050565b60006140868285614049565b91506140928284614049565b91508190509392505050565b60006140a98261319d565b91506140b48361319d565b92508282039050818111156140cc576140cb613add565b5b92915050565b7f4e487b7100000000000000000000000000000000000000000000000000000000600052603160045260246000fdfea2646970667358221220c2d1cc8f3c7f53cf45103ce6e273fc211fb450271ffb4517e82208bf6c8c5abf64736f6c634300081c0033",
  "linkReferences": {},
  "deployedLinkReferences": {}
}